{
  "_format": "hh-sol-artifact-1",
  "contractName": "CommunityLocker",
  "sourceName": "contracts/schain/CommunityLocker.sol",
  "abi": [
    {
      "anonymous": false,
      "inputs": [
        {
          "indexed": false,
          "internalType": "bytes32",
          "name": "schainHash",
          "type": "bytes32"
        },
        {
          "indexed": false,
          "internalType": "address",
          "name": "user",
          "type": "address"
        }
      ],
      "name": "ActivateUser",
      "type": "event"
    },
    {
      "anonymous": false,
      "inputs": [
        {
          "indexed": false,
          "internalType": "bytes32",
          "name": "schainHash",
          "type": "bytes32"
        },
        {
          "indexed": false,
          "internalType": "address",
          "name": "user",
          "type": "address"
        }
      ],
      "name": "LockUser",
      "type": "event"
    },
    {
      "anonymous": false,
      "inputs": [
        {
          "indexed": true,
          "internalType": "bytes32",
          "name": "role",
          "type": "bytes32"
        },
        {
          "indexed": true,
          "internalType": "bytes32",
          "name": "previousAdminRole",
          "type": "bytes32"
        },
        {
          "indexed": true,
          "internalType": "bytes32",
          "name": "newAdminRole",
          "type": "bytes32"
        }
      ],
      "name": "RoleAdminChanged",
      "type": "event"
    },
    {
      "anonymous": false,
      "inputs": [
        {
          "indexed": true,
          "internalType": "bytes32",
          "name": "role",
          "type": "bytes32"
        },
        {
          "indexed": true,
          "internalType": "address",
          "name": "account",
          "type": "address"
        },
        {
          "indexed": true,
          "internalType": "address",
          "name": "sender",
          "type": "address"
        }
      ],
      "name": "RoleGranted",
      "type": "event"
    },
    {
      "anonymous": false,
      "inputs": [
        {
          "indexed": true,
          "internalType": "bytes32",
          "name": "role",
          "type": "bytes32"
        },
        {
          "indexed": true,
          "internalType": "address",
          "name": "account",
          "type": "address"
        },
        {
          "indexed": true,
          "internalType": "address",
          "name": "sender",
          "type": "address"
        }
      ],
      "name": "RoleRevoked",
      "type": "event"
    },
    {
      "inputs": [],
      "name": "CONSTANT_SETTER_ROLE",
      "outputs": [
        {
          "internalType": "bytes32",
          "name": "",
          "type": "bytes32"
        }
      ],
      "stateMutability": "view",
      "type": "function"
    },
    {
      "inputs": [],
      "name": "DEFAULT_ADMIN_ROLE",
      "outputs": [
        {
          "internalType": "bytes32",
          "name": "",
          "type": "bytes32"
        }
      ],
      "stateMutability": "view",
      "type": "function"
    },
    {
      "inputs": [],
      "name": "MAINNET_HASH",
      "outputs": [
        {
          "internalType": "bytes32",
          "name": "",
          "type": "bytes32"
        }
      ],
      "stateMutability": "view",
      "type": "function"
    },
    {
      "inputs": [],
      "name": "MAINNET_NAME",
      "outputs": [
        {
          "internalType": "string",
          "name": "",
          "type": "string"
        }
      ],
      "stateMutability": "view",
      "type": "function"
    },
    {
      "inputs": [
        {
          "internalType": "address",
          "name": "",
          "type": "address"
        }
      ],
      "name": "activeUsers",
      "outputs": [
        {
          "internalType": "bool",
          "name": "",
          "type": "bool"
        }
      ],
      "stateMutability": "view",
      "type": "function"
    },
    {
      "inputs": [
        {
          "internalType": "address",
          "name": "receiver",
          "type": "address"
        }
      ],
      "name": "checkAllowedToSendMessage",
      "outputs": [],
      "stateMutability": "nonpayable",
      "type": "function"
    },
    {
      "inputs": [],
      "name": "communityPool",
      "outputs": [
        {
          "internalType": "address",
          "name": "",
          "type": "address"
        }
      ],
      "stateMutability": "view",
      "type": "function"
    },
    {
      "inputs": [
        {
          "internalType": "bytes32",
          "name": "role",
          "type": "bytes32"
        }
      ],
      "name": "getRoleAdmin",
      "outputs": [
        {
          "internalType": "bytes32",
          "name": "",
          "type": "bytes32"
        }
      ],
      "stateMutability": "view",
      "type": "function"
    },
    {
      "inputs": [
        {
          "internalType": "bytes32",
          "name": "role",
          "type": "bytes32"
        },
        {
          "internalType": "uint256",
          "name": "index",
          "type": "uint256"
        }
      ],
      "name": "getRoleMember",
      "outputs": [
        {
          "internalType": "address",
          "name": "",
          "type": "address"
        }
      ],
      "stateMutability": "view",
      "type": "function"
    },
    {
      "inputs": [
        {
          "internalType": "bytes32",
          "name": "role",
          "type": "bytes32"
        }
      ],
      "name": "getRoleMemberCount",
      "outputs": [
        {
          "internalType": "uint256",
          "name": "",
          "type": "uint256"
        }
      ],
      "stateMutability": "view",
      "type": "function"
    },
    {
      "inputs": [
        {
          "internalType": "bytes32",
          "name": "role",
          "type": "bytes32"
        },
        {
          "internalType": "address",
          "name": "account",
          "type": "address"
        }
      ],
      "name": "grantRole",
      "outputs": [],
      "stateMutability": "nonpayable",
      "type": "function"
    },
    {
      "inputs": [
        {
          "internalType": "bytes32",
          "name": "role",
          "type": "bytes32"
        },
        {
          "internalType": "address",
          "name": "account",
          "type": "address"
        }
      ],
      "name": "hasRole",
      "outputs": [
        {
          "internalType": "bool",
          "name": "",
          "type": "bool"
        }
      ],
      "stateMutability": "view",
      "type": "function"
    },
    {
      "inputs": [
        {
          "internalType": "string",
          "name": "newSchainName",
          "type": "string"
        },
        {
          "internalType": "contract MessageProxyForSchain",
          "name": "newMessageProxy",
          "type": "address"
        },
        {
          "internalType": "contract TokenManagerLinker",
          "name": "newTokenManagerLinker",
          "type": "address"
        },
        {
          "internalType": "address",
          "name": "newCommunityPool",
          "type": "address"
        }
      ],
      "name": "initialize",
      "outputs": [],
      "stateMutability": "nonpayable",
      "type": "function"
    },
    {
      "inputs": [],
      "name": "messageProxy",
      "outputs": [
        {
          "internalType": "contract MessageProxyForSchain",
          "name": "",
          "type": "address"
        }
      ],
      "stateMutability": "view",
      "type": "function"
    },
    {
      "inputs": [
        {
          "internalType": "bytes32",
          "name": "fromChainHash",
          "type": "bytes32"
        },
        {
          "internalType": "address",
          "name": "sender",
          "type": "address"
        },
        {
          "internalType": "bytes",
          "name": "data",
          "type": "bytes"
        }
      ],
      "name": "postMessage",
      "outputs": [
        {
          "internalType": "address",
          "name": "",
          "type": "address"
        }
      ],
      "stateMutability": "nonpayable",
      "type": "function"
    },
    {
      "inputs": [
        {
          "internalType": "bytes32",
          "name": "role",
          "type": "bytes32"
        },
        {
          "internalType": "address",
          "name": "account",
          "type": "address"
        }
      ],
      "name": "renounceRole",
      "outputs": [],
      "stateMutability": "nonpayable",
      "type": "function"
    },
    {
      "inputs": [
        {
          "internalType": "bytes32",
          "name": "role",
          "type": "bytes32"
        },
        {
          "internalType": "address",
          "name": "account",
          "type": "address"
        }
      ],
      "name": "revokeRole",
      "outputs": [],
      "stateMutability": "nonpayable",
      "type": "function"
    },
    {
      "inputs": [],
      "name": "schainHash",
      "outputs": [
        {
          "internalType": "bytes32",
          "name": "",
          "type": "bytes32"
        }
      ],
      "stateMutability": "view",
      "type": "function"
    },
    {
      "inputs": [
        {
          "internalType": "uint256",
          "name": "newTimeLimitPerMessage",
          "type": "uint256"
        }
      ],
      "name": "setTimeLimitPerMessage",
      "outputs": [],
      "stateMutability": "nonpayable",
      "type": "function"
    },
    {
      "inputs": [],
      "name": "timeLimitPerMessage",
      "outputs": [
        {
          "internalType": "uint256",
          "name": "",
          "type": "uint256"
        }
      ],
      "stateMutability": "view",
      "type": "function"
    },
    {
      "inputs": [],
      "name": "tokenManagerLinker",
      "outputs": [
        {
          "internalType": "contract TokenManagerLinker",
          "name": "",
          "type": "address"
        }
      ],
      "stateMutability": "view",
      "type": "function"
    }
  ],
  "bytecode": "0x608060405234801561001057600080fd5b5061159b806100206000396000f3fe608060405234801561001057600080fd5b50600436106101375760003560e01c80635573b8b6116100b8578063a217fddf1161007c578063a217fddf1461024b578063bbc4e8c214610253578063ca15c8731461025b578063d547741f1461026e578063eb0eb8ab14610281578063f34822b41461029457610137565b80635573b8b6146101f557806382fd8c96146101fd578063884cee5a146102055780639010d07c1461021857806391d148541461022b57610137565b80632f2ff15d116100ff5780632f2ff15d1461019f57806336568abe146101b25780633b690b6b146101c557806348ed32ef146101cd57806350f44280146101e057610137565b806314d140b01461013c578063237c667a1461015a578063248a9ca31461016f57806328c5e1821461018f5780632dc151de14610197575b600080fd5b6101446102a7565b6040516101519190611092565b60405180910390f35b61016d610168366004610df6565b6102b6565b005b61018261017d366004610e35565b6103d0565b60405161015191906110b1565b6101826103e5565b61014461042e565b61016d6101ad366004610e4d565b61043d565b61016d6101c0366004610e4d565b610485565b6101826104c7565b61016d6101db366004610e35565b6104cd565b6101e8610518565b60405161015191906110d1565b61014461053b565b61018261054a565b610144610213366004610e7c565b610550565b610144610226366004610f00565b610773565b61023e610239366004610e4d565b610794565b60405161015191906110a6565b6101826107ac565b6101826107b1565b610182610269366004610e35565b6107d5565b61016d61027c366004610e4d565b6107ec565b61023e61028f366004610df6565b610826565b61016d6102a2366004610f3c565b61083b565b6067546001600160a01b031681565b6066546040516374a9e4c960e11b81526001600160a01b039091169063e953c992906102e6903390600401611092565b60206040518083038186803b1580156102fe57600080fd5b505afa158015610312573d6000803e3d6000fd5b505050506040513d601f19601f820116820180604052508101906103369190610e19565b506001600160a01b0381166000908152606a602052604090205460ff166103785760405162461bcd60e51b815260040161036f9061121c565b60405180910390fd5b6069546001600160a01b0382166000908152606b6020526040902054429101106103b45760405162461bcd60e51b815260040161036f906113a5565b6001600160a01b03166000908152606b60205260409020429055565b60009081526033602052604090206002015490565b6040518060400160405280600781526020016613585a5b9b995d60ca1b8152506040516020016104159190611076565b6040516020818303038152906040528051906020012081565b6066546001600160a01b031681565b60008281526033602052604090206002015461045b90610239610952565b6104775760405162461bcd60e51b815260040161036f90611146565b6104818282610956565b5050565b61048d610952565b6001600160a01b0316816001600160a01b0316146104bd5760405162461bcd60e51b815260040161036f90611468565b61048182826109bf565b60685481565b6104f77f96e3fc3be15159903e053027cff8a23f39a990e0194abcd8ac1cf1b355b8b93c33610794565b6105135760405162461bcd60e51b815260040161036f906111d6565b606955565b6040518060400160405280600781526020016613585a5b9b995d60ca1b81525081565b6065546001600160a01b031681565b60695481565b6065546000906001600160a01b0316331461057d5760405162461bcd60e51b815260040161036f906113e6565b6067546001600160a01b038581169116146105aa5760405162461bcd60e51b815260040161036f90611253565b6040518060400160405280600781526020016613585a5b9b995d60ca1b8152506040516020016105da9190611076565b60405160208183030381529060405280519060200120851461060e5760405162461bcd60e51b815260040161036f90611195565b600061061a8484610a28565b9050600781600c81111561062a57fe5b146106475760405162461bcd60e51b815260040161036f9061141d565b61064f610da3565b6106598585610a69565b6040818101516020808401516001600160a01b03166000908152606a9091529190912054919250151560ff909116151514156106a75760405162461bcd60e51b815260040161036f90611328565b604081810180516020808501516001600160a01b03166000908152606a90915292909220805460ff1916921515929092179091555115610725577fdacccea96400d48c51a00ff7af4d1c6b6ac4909bbff0fe495f0e0edc298c3dde60685482602001516040516107189291906110ba565b60405180910390a1610765565b7f01d8973c54faac85b2cfd40f935f8da4261d9883283ad73ce0e10aa91fc37bdf606854826020015160405161075c9291906110ba565b60405180910390a15b602001519695505050505050565b600082815260336020526040812061078b9083610ab1565b90505b92915050565b600082815260336020526040812061078b9083610abd565b600081565b7f96e3fc3be15159903e053027cff8a23f39a990e0194abcd8ac1cf1b355b8b93c81565b600081815260336020526040812061078e90610ad2565b60008281526033602052604090206002015461080a90610239610952565b6104bd5760405162461bcd60e51b815260040161036f9061128a565b606a6020526000908152604090205460ff1681565b600054610100900460ff16806108545750610854610add565b80610862575060005460ff16155b61087e5760405162461bcd60e51b815260040161036f906112da565b600054610100900460ff161580156108a9576000805460ff1961ff0019909116610100171660011790555b6108b1610aee565b6108bc600033610477565b606580546001600160a01b038087166001600160a01b03199283161790925560668054928616929091169190911790556040516108fd908690602001611076565b60408051808303601f19018152919052805160209091012060685561012c606955606780546001600160a01b0319166001600160a01b038416179055801561094b576000805461ff00191690555b5050505050565b3390565b600082815260336020526040902061096e9082610b81565b156104815761097b610952565b6001600160a01b0316816001600160a01b0316837f2f8788117e7eff1d82e926ec794901d17c78024a50270940304540a733656f0d60405160405180910390a45050565b60008281526033602052604090206109d79082610b96565b15610481576109e4610952565b6001600160a01b0316816001600160a01b0316837ff6391f5c32d9c69d2a47ea670b442974b53935d1edc7fd64eb21e047a839171b60405160405180910390a45050565b600080610a3783850185610e35565b905060208106610a5d57610a55610a50848381886114de565b610a28565b91505061078e565b610a5583850185610f21565b610a71610da3565b6007610a7d8484610a28565b600c811115610a8857fe5b14610aa55760405162461bcd60e51b815260040161036f9061136e565b61078b82840184610ffe565b600061078b8383610bab565b600061078b836001600160a01b038416610bf0565b600061078e82610c08565b6000610ae830610c0c565b15905090565b600054610100900460ff1680610b075750610b07610add565b80610b15575060005460ff16155b610b315760405162461bcd60e51b815260040161036f906112da565b600054610100900460ff16158015610b5c576000805460ff1961ff0019909116610100171660011790555b610b64610c12565b610b6c610c12565b8015610b7e576000805461ff00191690555b50565b600061078b836001600160a01b038416610c93565b600061078b836001600160a01b038416610cdd565b81546000908210610bce5760405162461bcd60e51b815260040161036f90611104565b826000018281548110610bdd57fe5b9060005260206000200154905092915050565b60009081526001919091016020526040902054151590565b5490565b3b151590565b600054610100900460ff1680610c2b5750610c2b610add565b80610c39575060005460ff16155b610c555760405162461bcd60e51b815260040161036f906112da565b600054610100900460ff16158015610b6c576000805460ff1961ff0019909116610100171660011790558015610b7e576000805461ff001916905550565b6000610c9f8383610bf0565b610cd55750815460018181018455600084815260208082209093018490558454848252828601909352604090209190915561078e565b50600061078e565b60008181526001830160205260408120548015610d995783546000198083019190810190600090879083908110610d1057fe5b9060005260206000200154905080876000018481548110610d2d57fe5b600091825260208083209091019290925582815260018981019092526040902090840190558654879080610d5d57fe5b6001900381819060005260206000200160009055905586600101600087815260200190815260200160002060009055600194505050505061078e565b600091505061078e565b6040518060600160405280610db6610dca565b815260006020820181905260409091015290565b60408051602081019091526000815290565b803561078e81611542565b8035600d811061078e57600080fd5b600060208284031215610e07578081fd5b8135610e1281611542565b9392505050565b600060208284031215610e2a578081fd5b8151610e1281611557565b600060208284031215610e46578081fd5b5035919050565b60008060408385031215610e5f578081fd5b823591506020830135610e7181611542565b809150509250929050565b60008060008060608587031215610e91578182fd5b843593506020850135610ea381611542565b9250604085013567ffffffffffffffff80821115610ebf578384fd5b818701915087601f830112610ed2578384fd5b813581811115610ee0578485fd5b886020828501011115610ef1578485fd5b95989497505060200194505050565b60008060408385031215610f12578182fd5b50508035926020909101359150565b600060208284031215610f32578081fd5b61078b8383610de7565b60008060008060808587031215610f51578384fd5b843567ffffffffffffffff80821115610f68578586fd5b818701915087601f830112610f7b578586fd5b813581811115610f89578687fd5b610f9c601f8201601f19166020016114b7565b9150808252886020828501011115610fb2578687fd5b610fc3816020840160208601611506565b509450506020850135610fd581611542565b9250610fe48660408701610ddc565b9150610ff38660608701610ddc565b905092959194509250565b60008183036060811215611010578182fd5b61101a60606114b7565b6020821215611027578283fd5b61103160206114b7565b915061103d8585610de7565b825290815260208301359061105182611542565b8160208201526040840135915061106782611557565b60408101919091529392505050565b60008251611088818460208701611512565b9190910192915050565b6001600160a01b0391909116815260200190565b901515815260200190565b90815260200190565b9182526001600160a01b0316602082015260400190565b60006020825282518060208401526110f0816040850160208701611512565b601f01601f19169190910160400192915050565b60208082526022908201527f456e756d657261626c655365743a20696e646578206f7574206f6620626f756e604082015261647360f01b606082015260800190565b6020808252602f908201527f416363657373436f6e74726f6c3a2073656e646572206d75737420626520616e60408201526e0818591b5a5b881d1bc819dc985b9d608a1b606082015260800190565b60208082526021908201527f536f7572636520636861696e206e616d65206d757374206265204d61696e6e656040820152601d60fa1b606082015260800190565b60208082526026908201527f4e6f7420656e6f756768207065726d697373696f6e7320746f2073657420636f6040820152651b9cdd185b9d60d21b606082015260800190565b60208082526018908201527f526563697069656e74206d757374206265206163746976650000000000000000604082015260600190565b6020808252601c908201527f53656e646572206d75737420626520436f6d6d756e697479506f6f6c00000000604082015260600190565b60208082526030908201527f416363657373436f6e74726f6c3a2073656e646572206d75737420626520616e60408201526f2061646d696e20746f207265766f6b6560801b606082015260800190565b6020808252602e908201527f496e697469616c697a61626c653a20636f6e747261637420697320616c72656160408201526d191e481a5b9a5d1a585b1a5e995960921b606082015260800190565b60208082526026908201527f4163746976652075736572207374617475736573206d7573742062652064696660408201526519995c995b9d60d21b606082015260800190565b6020808252601f908201527f4d6573736167652074797065206973206e6f7420557365722053746174757300604082015260600190565b60208082526021908201527f547279696e6720746f2073656e64206d6573736167657320746f6f206f6674656040820152603760f91b606082015260800190565b6020808252601d908201527f53656e646572206973206e6f742061206d6573736167652070726f7879000000604082015260600190565b6020808252602b908201527f546865206d6573736167652073686f756c6420636f6e7461696e20612073746160408201526a3a3ab99037b3103ab9b2b960a91b606082015260800190565b6020808252602f908201527f416363657373436f6e74726f6c3a2063616e206f6e6c792072656e6f756e636560408201526e103937b632b9903337b91039b2b63360891b606082015260800190565b60405181810167ffffffffffffffff811182821017156114d657600080fd5b604052919050565b600080858511156114ed578182fd5b838611156114f9578182fd5b5050820193919092039150565b82818337506000910152565b60005b8381101561152d578181015183820152602001611515565b8381111561153c576000848401525b50505050565b6001600160a01b0381168114610b7e57600080fd5b8015158114610b7e57600080fdfea26469706673582212208e3679052ae45882e13fe3f323d2b5b3a5de42c12a9cb1df0fa23cf8808cfb9d64736f6c634300060c0033",
  "linkReferences": {},
  "deployedLinkReferences": {}
}