{
  "_format": "hh-sol-artifact-1",
  "contractName": "CommunityLocker",
  "sourceName": "contracts/schain/CommunityLocker.sol",
  "abi": [
    {
      "anonymous": false,
      "inputs": [
        {
          "indexed": false,
          "internalType": "bytes32",
          "name": "schainHash",
          "type": "bytes32"
        },
        {
          "indexed": false,
          "internalType": "address",
          "name": "user",
          "type": "address"
        }
      ],
      "name": "ActivateUser",
      "type": "event"
    },
    {
      "anonymous": false,
      "inputs": [
        {
          "indexed": false,
          "internalType": "bytes32",
          "name": "schainHash",
          "type": "bytes32"
        },
        {
          "indexed": false,
          "internalType": "address",
          "name": "user",
          "type": "address"
        }
      ],
      "name": "LockUser",
      "type": "event"
    },
    {
      "anonymous": false,
      "inputs": [
        {
          "indexed": true,
          "internalType": "bytes32",
          "name": "role",
          "type": "bytes32"
        },
        {
          "indexed": true,
          "internalType": "bytes32",
          "name": "previousAdminRole",
          "type": "bytes32"
        },
        {
          "indexed": true,
          "internalType": "bytes32",
          "name": "newAdminRole",
          "type": "bytes32"
        }
      ],
      "name": "RoleAdminChanged",
      "type": "event"
    },
    {
      "anonymous": false,
      "inputs": [
        {
          "indexed": true,
          "internalType": "bytes32",
          "name": "role",
          "type": "bytes32"
        },
        {
          "indexed": true,
          "internalType": "address",
          "name": "account",
          "type": "address"
        },
        {
          "indexed": true,
          "internalType": "address",
          "name": "sender",
          "type": "address"
        }
      ],
      "name": "RoleGranted",
      "type": "event"
    },
    {
      "anonymous": false,
      "inputs": [
        {
          "indexed": true,
          "internalType": "bytes32",
          "name": "role",
          "type": "bytes32"
        },
        {
          "indexed": true,
          "internalType": "address",
          "name": "account",
          "type": "address"
        },
        {
          "indexed": true,
          "internalType": "address",
          "name": "sender",
          "type": "address"
        }
      ],
      "name": "RoleRevoked",
      "type": "event"
    },
    {
      "inputs": [],
      "name": "DEFAULT_ADMIN_ROLE",
      "outputs": [
        {
          "internalType": "bytes32",
          "name": "",
          "type": "bytes32"
        }
      ],
      "stateMutability": "view",
      "type": "function"
    },
    {
      "inputs": [],
      "name": "MAINNET_HASH",
      "outputs": [
        {
          "internalType": "bytes32",
          "name": "",
          "type": "bytes32"
        }
      ],
      "stateMutability": "view",
      "type": "function"
    },
    {
      "inputs": [],
      "name": "MAINNET_NAME",
      "outputs": [
        {
          "internalType": "string",
          "name": "",
          "type": "string"
        }
      ],
      "stateMutability": "view",
      "type": "function"
    },
    {
      "inputs": [
        {
          "internalType": "address",
          "name": "",
          "type": "address"
        }
      ],
      "name": "activeUsers",
      "outputs": [
        {
          "internalType": "bool",
          "name": "",
          "type": "bool"
        }
      ],
      "stateMutability": "view",
      "type": "function"
    },
    {
      "inputs": [
        {
          "internalType": "address",
          "name": "receiver",
          "type": "address"
        }
      ],
      "name": "checkAllowedToSendMessage",
      "outputs": [],
      "stateMutability": "nonpayable",
      "type": "function"
    },
    {
      "inputs": [],
      "name": "communityPool",
      "outputs": [
        {
          "internalType": "address",
          "name": "",
          "type": "address"
        }
      ],
      "stateMutability": "view",
      "type": "function"
    },
    {
      "inputs": [
        {
          "internalType": "bytes32",
          "name": "role",
          "type": "bytes32"
        }
      ],
      "name": "getRoleAdmin",
      "outputs": [
        {
          "internalType": "bytes32",
          "name": "",
          "type": "bytes32"
        }
      ],
      "stateMutability": "view",
      "type": "function"
    },
    {
      "inputs": [
        {
          "internalType": "bytes32",
          "name": "role",
          "type": "bytes32"
        },
        {
          "internalType": "uint256",
          "name": "index",
          "type": "uint256"
        }
      ],
      "name": "getRoleMember",
      "outputs": [
        {
          "internalType": "address",
          "name": "",
          "type": "address"
        }
      ],
      "stateMutability": "view",
      "type": "function"
    },
    {
      "inputs": [
        {
          "internalType": "bytes32",
          "name": "role",
          "type": "bytes32"
        }
      ],
      "name": "getRoleMemberCount",
      "outputs": [
        {
          "internalType": "uint256",
          "name": "",
          "type": "uint256"
        }
      ],
      "stateMutability": "view",
      "type": "function"
    },
    {
      "inputs": [
        {
          "internalType": "bytes32",
          "name": "role",
          "type": "bytes32"
        },
        {
          "internalType": "address",
          "name": "account",
          "type": "address"
        }
      ],
      "name": "grantRole",
      "outputs": [],
      "stateMutability": "nonpayable",
      "type": "function"
    },
    {
      "inputs": [
        {
          "internalType": "bytes32",
          "name": "role",
          "type": "bytes32"
        },
        {
          "internalType": "address",
          "name": "account",
          "type": "address"
        }
      ],
      "name": "hasRole",
      "outputs": [
        {
          "internalType": "bool",
          "name": "",
          "type": "bool"
        }
      ],
      "stateMutability": "view",
      "type": "function"
    },
    {
      "inputs": [
        {
          "internalType": "string",
          "name": "newSchainName",
          "type": "string"
        },
        {
          "internalType": "contract MessageProxyForSchain",
          "name": "newMessageProxy",
          "type": "address"
        },
        {
          "internalType": "contract TokenManagerLinker",
          "name": "newTokenManagerLinker",
          "type": "address"
        },
        {
          "internalType": "address",
          "name": "newCommunityPool",
          "type": "address"
        }
      ],
      "name": "initialize",
      "outputs": [],
      "stateMutability": "nonpayable",
      "type": "function"
    },
    {
      "inputs": [],
      "name": "messageProxy",
      "outputs": [
        {
          "internalType": "contract MessageProxyForSchain",
          "name": "",
          "type": "address"
        }
      ],
      "stateMutability": "view",
      "type": "function"
    },
    {
      "inputs": [
        {
          "internalType": "bytes32",
          "name": "fromChainHash",
          "type": "bytes32"
        },
        {
          "internalType": "address",
          "name": "sender",
          "type": "address"
        },
        {
          "internalType": "bytes",
          "name": "data",
          "type": "bytes"
        }
      ],
      "name": "postMessage",
      "outputs": [
        {
          "internalType": "bool",
          "name": "",
          "type": "bool"
        }
      ],
      "stateMutability": "nonpayable",
      "type": "function"
    },
    {
      "inputs": [
        {
          "internalType": "bytes32",
          "name": "role",
          "type": "bytes32"
        },
        {
          "internalType": "address",
          "name": "account",
          "type": "address"
        }
      ],
      "name": "renounceRole",
      "outputs": [],
      "stateMutability": "nonpayable",
      "type": "function"
    },
    {
      "inputs": [
        {
          "internalType": "bytes32",
          "name": "role",
          "type": "bytes32"
        },
        {
          "internalType": "address",
          "name": "account",
          "type": "address"
        }
      ],
      "name": "revokeRole",
      "outputs": [],
      "stateMutability": "nonpayable",
      "type": "function"
    },
    {
      "inputs": [],
      "name": "schainHash",
      "outputs": [
        {
          "internalType": "bytes32",
          "name": "",
          "type": "bytes32"
        }
      ],
      "stateMutability": "view",
      "type": "function"
    },
    {
      "inputs": [
        {
          "internalType": "uint256",
          "name": "newTimeLimitPerMessage",
          "type": "uint256"
        }
      ],
      "name": "setTimeLimitPerMessage",
      "outputs": [],
      "stateMutability": "nonpayable",
      "type": "function"
    },
    {
      "inputs": [],
      "name": "timeLimitPerMessage",
      "outputs": [
        {
          "internalType": "uint256",
          "name": "",
          "type": "uint256"
        }
      ],
      "stateMutability": "view",
      "type": "function"
    },
    {
      "inputs": [],
      "name": "tokenManagerLinker",
      "outputs": [
        {
          "internalType": "contract TokenManagerLinker",
          "name": "",
          "type": "address"
        }
      ],
      "stateMutability": "view",
      "type": "function"
    }
  ],
  "bytecode": "0x608060405234801561001057600080fd5b5061151e806100206000396000f3fe608060405234801561001057600080fd5b506004361061012c5760003560e01c80635573b8b6116100ad578063a217fddf11610071578063a217fddf14610240578063ca15c87314610248578063d547741f1461025b578063eb0eb8ab1461026e578063f34822b4146102815761012c565b80635573b8b6146101ea57806382fd8c96146101f2578063884cee5a146101fa5780639010d07c1461021a57806391d148541461022d5761012c565b80632f2ff15d116100f45780632f2ff15d1461019457806336568abe146101a75780633b690b6b146101ba57806348ed32ef146101c257806350f44280146101d55761012c565b806314d140b014610131578063237c667a1461014f578063248a9ca31461016457806328c5e182146101845780632dc151de1461018c575b600080fd5b610139610294565b604051610146919061103b565b60405180910390f35b61016261015d366004610d9f565b6102a3565b005b610177610172366004610dde565b6103bd565b604051610146919061105a565b6101776103d2565b61013961041b565b6101626101a2366004610df6565b61042a565b6101626101b5366004610df6565b610472565b6101776104b4565b6101626101d0366004610dde565b6104ba565b6101dd6104e6565b604051610146919061107a565b610139610509565b610177610518565b61020d610208366004610e25565b61051e565b604051610146919061104f565b610139610228366004610ea9565b610740565b61020d61023b366004610df6565b610761565b610177610779565b610177610256366004610dde565b61077e565b610162610269366004610df6565b610795565b61020d61027c366004610d9f565b6107cf565b61016261028f366004610ee5565b6107e4565b6067546001600160a01b031681565b6066546040516374a9e4c960e11b81526001600160a01b039091169063e953c992906102d390339060040161103b565b60206040518083038186803b1580156102eb57600080fd5b505afa1580156102ff573d6000803e3d6000fd5b505050506040513d601f19601f820116820180604052508101906103239190610dc2565b506001600160a01b0381166000908152606a602052604090205460ff166103655760405162461bcd60e51b815260040161035c9061117f565b60405180910390fd5b6069546001600160a01b0382166000908152606b6020526040902054429101106103a15760405162461bcd60e51b815260040161035c906112c2565b6001600160a01b03166000908152606b60205260409020429055565b60009081526033602052604090206002015490565b6040518060400160405280600781526020016613585a5b9b995d60ca1b815250604051602001610402919061101f565b6040516020818303038152906040528051906020012081565b6066546001600160a01b031681565b6000828152603360205260409020600201546104489061023b6108fb565b6104645760405162461bcd60e51b815260040161035c906110ef565b61046e82826108ff565b5050565b61047a6108fb565b6001600160a01b0316816001600160a01b0316146104aa5760405162461bcd60e51b815260040161035c906113eb565b61046e8282610968565b60685481565b6104c5600033610761565b6104e15760405162461bcd60e51b815260040161035c9061133a565b606955565b6040518060400160405280600781526020016613585a5b9b995d60ca1b81525081565b6065546001600160a01b031681565b60695481565b6065546000906001600160a01b0316331461054b5760405162461bcd60e51b815260040161035c90611369565b6067546001600160a01b038581169116146105785760405162461bcd60e51b815260040161035c906111b6565b6040518060400160405280600781526020016613585a5b9b995d60ca1b8152506040516020016105a8919061101f565b6040516020818303038152906040528051906020012085146105dc5760405162461bcd60e51b815260040161035c9061113e565b60006105e884846109d1565b9050600781600c8111156105f857fe5b146106155760405162461bcd60e51b815260040161035c906113a0565b61061d610d4c565b6106278585610a12565b6040818101516020808401516001600160a01b03166000908152606a9091529190912054919250151560ff909116151514156106755760405162461bcd60e51b815260040161035c90611303565b604081810180516020808501516001600160a01b03166000908152606a90915292909220805460ff19169215159290921790915551156106f3577fdacccea96400d48c51a00ff7af4d1c6b6ac4909bbff0fe495f0e0edc298c3dde60685482602001516040516106e6929190611063565b60405180910390a1610733565b7f01d8973c54faac85b2cfd40f935f8da4261d9883283ad73ce0e10aa91fc37bdf606854826020015160405161072a929190611063565b60405180910390a15b5060019695505050505050565b60008281526033602052604081206107589083610a5a565b90505b92915050565b60008281526033602052604081206107589083610a66565b600081565b600081815260336020526040812061075b90610a7b565b6000828152603360205260409020600201546107b39061023b6108fb565b6104aa5760405162461bcd60e51b815260040161035c906111ed565b606a6020526000908152604090205460ff1681565b600054610100900460ff16806107fd57506107fd610a86565b8061080b575060005460ff16155b6108275760405162461bcd60e51b815260040161035c9061123d565b600054610100900460ff16158015610852576000805460ff1961ff0019909116610100171660011790555b61085a610a97565b610865600033610464565b606580546001600160a01b038087166001600160a01b03199283161790925560668054928616929091169190911790556040516108a690869060200161101f565b60408051808303601f19018152919052805160209091012060685561012c606955606780546001600160a01b0319166001600160a01b03841617905580156108f4576000805461ff00191690555b5050505050565b3390565b60008281526033602052604090206109179082610b2a565b1561046e576109246108fb565b6001600160a01b0316816001600160a01b0316837f2f8788117e7eff1d82e926ec794901d17c78024a50270940304540a733656f0d60405160405180910390a45050565b60008281526033602052604090206109809082610b3f565b1561046e5761098d6108fb565b6001600160a01b0316816001600160a01b0316837ff6391f5c32d9c69d2a47ea670b442974b53935d1edc7fd64eb21e047a839171b60405160405180910390a45050565b6000806109e083850185610dde565b905060208106610a06576109fe6109f984838188611461565b6109d1565b91505061075b565b6109fe83850185610eca565b610a1a610d4c565b6007610a2684846109d1565b600c811115610a3157fe5b14610a4e5760405162461bcd60e51b815260040161035c9061128b565b61075882840184610fa7565b60006107588383610b54565b6000610758836001600160a01b038416610b99565b600061075b82610bb1565b6000610a9130610bb5565b15905090565b600054610100900460ff1680610ab05750610ab0610a86565b80610abe575060005460ff16155b610ada5760405162461bcd60e51b815260040161035c9061123d565b600054610100900460ff16158015610b05576000805460ff1961ff0019909116610100171660011790555b610b0d610bbb565b610b15610bbb565b8015610b27576000805461ff00191690555b50565b6000610758836001600160a01b038416610c3c565b6000610758836001600160a01b038416610c86565b81546000908210610b775760405162461bcd60e51b815260040161035c906110ad565b826000018281548110610b8657fe5b9060005260206000200154905092915050565b60009081526001919091016020526040902054151590565b5490565b3b151590565b600054610100900460ff1680610bd45750610bd4610a86565b80610be2575060005460ff16155b610bfe5760405162461bcd60e51b815260040161035c9061123d565b600054610100900460ff16158015610b15576000805460ff1961ff0019909116610100171660011790558015610b27576000805461ff001916905550565b6000610c488383610b99565b610c7e5750815460018181018455600084815260208082209093018490558454848252828601909352604090209190915561075b565b50600061075b565b60008181526001830160205260408120548015610d425783546000198083019190810190600090879083908110610cb957fe5b9060005260206000200154905080876000018481548110610cd657fe5b600091825260208083209091019290925582815260018981019092526040902090840190558654879080610d0657fe5b6001900381819060005260206000200160009055905586600101600087815260200190815260200160002060009055600194505050505061075b565b600091505061075b565b6040518060600160405280610d5f610d73565b815260006020820181905260409091015290565b60408051602081019091526000815290565b803561075b816114c5565b8035600d811061075b57600080fd5b600060208284031215610db0578081fd5b8135610dbb816114c5565b9392505050565b600060208284031215610dd3578081fd5b8151610dbb816114da565b600060208284031215610def578081fd5b5035919050565b60008060408385031215610e08578081fd5b823591506020830135610e1a816114c5565b809150509250929050565b60008060008060608587031215610e3a578182fd5b843593506020850135610e4c816114c5565b9250604085013567ffffffffffffffff80821115610e68578384fd5b818701915087601f830112610e7b578384fd5b813581811115610e89578485fd5b886020828501011115610e9a578485fd5b95989497505060200194505050565b60008060408385031215610ebb578182fd5b50508035926020909101359150565b600060208284031215610edb578081fd5b6107588383610d90565b60008060008060808587031215610efa578384fd5b843567ffffffffffffffff80821115610f11578586fd5b818701915087601f830112610f24578586fd5b813581811115610f32578687fd5b610f45601f8201601f191660200161143a565b9150808252886020828501011115610f5b578687fd5b610f6c816020840160208601611489565b509450506020850135610f7e816114c5565b9250610f8d8660408701610d85565b9150610f9c8660608701610d85565b905092959194509250565b60008183036060811215610fb9578182fd5b610fc3606061143a565b6020821215610fd0578283fd5b610fda602061143a565b9150610fe68585610d90565b8252908152602083013590610ffa826114c5565b81602082015260408401359150611010826114da565b60408101919091529392505050565b60008251611031818460208701611495565b9190910192915050565b6001600160a01b0391909116815260200190565b901515815260200190565b90815260200190565b9182526001600160a01b0316602082015260400190565b6000602082528251806020840152611099816040850160208701611495565b601f01601f19169190910160400192915050565b60208082526022908201527f456e756d657261626c655365743a20696e646578206f7574206f6620626f756e604082015261647360f01b606082015260800190565b6020808252602f908201527f416363657373436f6e74726f6c3a2073656e646572206d75737420626520616e60408201526e0818591b5a5b881d1bc819dc985b9d608a1b606082015260800190565b60208082526021908201527f536f7572636520636861696e206e616d65206d757374206265204d61696e6e656040820152601d60fa1b606082015260800190565b60208082526018908201527f526563697069656e74206d757374206265206163746976650000000000000000604082015260600190565b6020808252601c908201527f53656e646572206d75737420626520436f6d6d756e697479506f6f6c00000000604082015260600190565b60208082526030908201527f416363657373436f6e74726f6c3a2073656e646572206d75737420626520616e60408201526f2061646d696e20746f207265766f6b6560801b606082015260800190565b6020808252602e908201527f496e697469616c697a61626c653a20636f6e747261637420697320616c72656160408201526d191e481a5b9a5d1a585b1a5e995960921b606082015260800190565b6020808252601f908201527f4d6573736167652074797065206973206e6f7420557365722053746174757300604082015260600190565b60208082526021908201527f547279696e6720746f2073656e64206d6573736167657320746f6f206f6674656040820152603760f91b606082015260800190565b6020808252601f908201527f55736572207374617475736573206d75737420626520646966666572656e7400604082015260600190565b6020808252601590820152742737ba1030baba3437b934bd32b21031b0b63632b960591b604082015260600190565b6020808252601d908201527f53656e646572206973206e6f742061206d6573736167652070726f7879000000604082015260600190565b6020808252602b908201527f546865206d6573736167652073686f756c6420636f6e7461696e20612073746160408201526a3a3ab99037b3103ab9b2b960a91b606082015260800190565b6020808252602f908201527f416363657373436f6e74726f6c3a2063616e206f6e6c792072656e6f756e636560408201526e103937b632b9903337b91039b2b63360891b606082015260800190565b60405181810167ffffffffffffffff8111828210171561145957600080fd5b604052919050565b60008085851115611470578182fd5b8386111561147c578182fd5b5050820193919092039150565b82818337506000910152565b60005b838110156114b0578181015183820152602001611498565b838111156114bf576000848401525b50505050565b6001600160a01b0381168114610b2757600080fd5b8015158114610b2757600080fdfea2646970667358221220eaecceb38634cccc48fee5bd7120ec63a85c4c2b37cd101f4cae6cc948694b7b64736f6c634300060c0033",
  "linkReferences": {},
  "deployedLinkReferences": {}
}