{
  "_format": "hh-sol-artifact-1",
  "contractName": "MessageProxyForSchain",
  "sourceName": "contracts/schain/MessageProxyForSchain.sol",
  "abi": [
    {
      "anonymous": false,
      "inputs": [
        {
          "indexed": true,
          "internalType": "bytes32",
          "name": "dstChainHash",
          "type": "bytes32"
        },
        {
          "indexed": true,
          "internalType": "uint256",
          "name": "msgCounter",
          "type": "uint256"
        },
        {
          "indexed": true,
          "internalType": "address",
          "name": "srcContract",
          "type": "address"
        },
        {
          "indexed": false,
          "internalType": "address",
          "name": "dstContract",
          "type": "address"
        },
        {
          "indexed": false,
          "internalType": "bytes",
          "name": "data",
          "type": "bytes"
        }
      ],
      "name": "OutgoingMessage",
      "type": "event"
    },
    {
      "anonymous": false,
      "inputs": [
        {
          "indexed": true,
          "internalType": "uint256",
          "name": "msgCounter",
          "type": "uint256"
        },
        {
          "indexed": false,
          "internalType": "bytes",
          "name": "message",
          "type": "bytes"
        }
      ],
      "name": "PostMessageError",
      "type": "event"
    },
    {
      "anonymous": false,
      "inputs": [
        {
          "indexed": true,
          "internalType": "bytes32",
          "name": "role",
          "type": "bytes32"
        },
        {
          "indexed": true,
          "internalType": "bytes32",
          "name": "previousAdminRole",
          "type": "bytes32"
        },
        {
          "indexed": true,
          "internalType": "bytes32",
          "name": "newAdminRole",
          "type": "bytes32"
        }
      ],
      "name": "RoleAdminChanged",
      "type": "event"
    },
    {
      "anonymous": false,
      "inputs": [
        {
          "indexed": true,
          "internalType": "bytes32",
          "name": "role",
          "type": "bytes32"
        },
        {
          "indexed": true,
          "internalType": "address",
          "name": "account",
          "type": "address"
        },
        {
          "indexed": true,
          "internalType": "address",
          "name": "sender",
          "type": "address"
        }
      ],
      "name": "RoleGranted",
      "type": "event"
    },
    {
      "anonymous": false,
      "inputs": [
        {
          "indexed": true,
          "internalType": "bytes32",
          "name": "role",
          "type": "bytes32"
        },
        {
          "indexed": true,
          "internalType": "address",
          "name": "account",
          "type": "address"
        },
        {
          "indexed": true,
          "internalType": "address",
          "name": "sender",
          "type": "address"
        }
      ],
      "name": "RoleRevoked",
      "type": "event"
    },
    {
      "inputs": [],
      "name": "CHAIN_CONNECTOR_ROLE",
      "outputs": [
        {
          "internalType": "bytes32",
          "name": "",
          "type": "bytes32"
        }
      ],
      "stateMutability": "view",
      "type": "function"
    },
    {
      "inputs": [],
      "name": "CONSTANT_SETTER_ROLE",
      "outputs": [
        {
          "internalType": "bytes32",
          "name": "",
          "type": "bytes32"
        }
      ],
      "stateMutability": "view",
      "type": "function"
    },
    {
      "inputs": [],
      "name": "DEFAULT_ADMIN_ROLE",
      "outputs": [
        {
          "internalType": "bytes32",
          "name": "",
          "type": "bytes32"
        }
      ],
      "stateMutability": "view",
      "type": "function"
    },
    {
      "inputs": [],
      "name": "EXTRA_CONTRACT_REGISTRAR_ROLE",
      "outputs": [
        {
          "internalType": "bytes32",
          "name": "",
          "type": "bytes32"
        }
      ],
      "stateMutability": "view",
      "type": "function"
    },
    {
      "inputs": [
        {
          "internalType": "string",
          "name": "chainName",
          "type": "string"
        }
      ],
      "name": "addConnectedChain",
      "outputs": [],
      "stateMutability": "nonpayable",
      "type": "function"
    },
    {
      "inputs": [
        {
          "internalType": "bytes32",
          "name": "",
          "type": "bytes32"
        }
      ],
      "name": "connectedChains",
      "outputs": [
        {
          "internalType": "uint256",
          "name": "incomingMessageCounter",
          "type": "uint256"
        },
        {
          "internalType": "uint256",
          "name": "outgoingMessageCounter",
          "type": "uint256"
        },
        {
          "internalType": "bool",
          "name": "inited",
          "type": "bool"
        }
      ],
      "stateMutability": "view",
      "type": "function"
    },
    {
      "inputs": [],
      "name": "gasLimit",
      "outputs": [
        {
          "internalType": "uint256",
          "name": "",
          "type": "uint256"
        }
      ],
      "stateMutability": "view",
      "type": "function"
    },
    {
      "inputs": [
        {
          "internalType": "string",
          "name": "fromSchainName",
          "type": "string"
        }
      ],
      "name": "getIncomingMessagesCounter",
      "outputs": [
        {
          "internalType": "uint256",
          "name": "",
          "type": "uint256"
        }
      ],
      "stateMutability": "view",
      "type": "function"
    },
    {
      "inputs": [
        {
          "internalType": "string",
          "name": "targetSchainName",
          "type": "string"
        }
      ],
      "name": "getOutgoingMessagesCounter",
      "outputs": [
        {
          "internalType": "uint256",
          "name": "",
          "type": "uint256"
        }
      ],
      "stateMutability": "view",
      "type": "function"
    },
    {
      "inputs": [
        {
          "internalType": "bytes32",
          "name": "role",
          "type": "bytes32"
        }
      ],
      "name": "getRoleAdmin",
      "outputs": [
        {
          "internalType": "bytes32",
          "name": "",
          "type": "bytes32"
        }
      ],
      "stateMutability": "view",
      "type": "function"
    },
    {
      "inputs": [
        {
          "internalType": "bytes32",
          "name": "role",
          "type": "bytes32"
        },
        {
          "internalType": "uint256",
          "name": "index",
          "type": "uint256"
        }
      ],
      "name": "getRoleMember",
      "outputs": [
        {
          "internalType": "address",
          "name": "",
          "type": "address"
        }
      ],
      "stateMutability": "view",
      "type": "function"
    },
    {
      "inputs": [
        {
          "internalType": "bytes32",
          "name": "role",
          "type": "bytes32"
        }
      ],
      "name": "getRoleMemberCount",
      "outputs": [
        {
          "internalType": "uint256",
          "name": "",
          "type": "uint256"
        }
      ],
      "stateMutability": "view",
      "type": "function"
    },
    {
      "inputs": [
        {
          "internalType": "bytes32",
          "name": "role",
          "type": "bytes32"
        },
        {
          "internalType": "address",
          "name": "account",
          "type": "address"
        }
      ],
      "name": "grantRole",
      "outputs": [],
      "stateMutability": "nonpayable",
      "type": "function"
    },
    {
      "inputs": [
        {
          "internalType": "bytes32",
          "name": "role",
          "type": "bytes32"
        },
        {
          "internalType": "address",
          "name": "account",
          "type": "address"
        }
      ],
      "name": "hasRole",
      "outputs": [
        {
          "internalType": "bool",
          "name": "",
          "type": "bool"
        }
      ],
      "stateMutability": "view",
      "type": "function"
    },
    {
      "inputs": [
        {
          "internalType": "contract KeyStorage",
          "name": "blsKeyStorage",
          "type": "address"
        },
        {
          "internalType": "string",
          "name": "schainName",
          "type": "string"
        }
      ],
      "name": "initialize",
      "outputs": [],
      "stateMutability": "nonpayable",
      "type": "function"
    },
    {
      "inputs": [
        {
          "internalType": "string",
          "name": "schainName",
          "type": "string"
        }
      ],
      "name": "isConnectedChain",
      "outputs": [
        {
          "internalType": "bool",
          "name": "",
          "type": "bool"
        }
      ],
      "stateMutability": "view",
      "type": "function"
    },
    {
      "inputs": [
        {
          "internalType": "string",
          "name": "schainName",
          "type": "string"
        },
        {
          "internalType": "address",
          "name": "contractAddress",
          "type": "address"
        }
      ],
      "name": "isContractRegistered",
      "outputs": [
        {
          "internalType": "bool",
          "name": "",
          "type": "bool"
        }
      ],
      "stateMutability": "view",
      "type": "function"
    },
    {
      "inputs": [],
      "name": "keyStorage",
      "outputs": [
        {
          "internalType": "contract KeyStorage",
          "name": "",
          "type": "address"
        }
      ],
      "stateMutability": "view",
      "type": "function"
    },
    {
      "inputs": [
        {
          "internalType": "string",
          "name": "fromChainName",
          "type": "string"
        },
        {
          "internalType": "uint256",
          "name": "startingCounter",
          "type": "uint256"
        },
        {
          "components": [
            {
              "internalType": "address",
              "name": "sender",
              "type": "address"
            },
            {
              "internalType": "address",
              "name": "destinationContract",
              "type": "address"
            },
            {
              "internalType": "bytes",
              "name": "data",
              "type": "bytes"
            }
          ],
          "internalType": "struct MessageProxyForSchain.Message[]",
          "name": "messages",
          "type": "tuple[]"
        },
        {
          "components": [
            {
              "internalType": "uint256[2]",
              "name": "blsSignature",
              "type": "uint256[2]"
            },
            {
              "internalType": "uint256",
              "name": "hashA",
              "type": "uint256"
            },
            {
              "internalType": "uint256",
              "name": "hashB",
              "type": "uint256"
            },
            {
              "internalType": "uint256",
              "name": "counter",
              "type": "uint256"
            }
          ],
          "internalType": "struct MessageProxyForSchain.Signature",
          "name": "signature",
          "type": "tuple"
        }
      ],
      "name": "postIncomingMessages",
      "outputs": [],
      "stateMutability": "nonpayable",
      "type": "function"
    },
    {
      "inputs": [
        {
          "internalType": "bytes32",
          "name": "targetChainHash",
          "type": "bytes32"
        },
        {
          "internalType": "address",
          "name": "dstContract",
          "type": "address"
        },
        {
          "internalType": "bytes",
          "name": "data",
          "type": "bytes"
        }
      ],
      "name": "postOutgoingMessage",
      "outputs": [],
      "stateMutability": "nonpayable",
      "type": "function"
    },
    {
      "inputs": [
        {
          "internalType": "string",
          "name": "schainName",
          "type": "string"
        },
        {
          "internalType": "address",
          "name": "contractOnSchain",
          "type": "address"
        }
      ],
      "name": "registerExtraContract",
      "outputs": [],
      "stateMutability": "nonpayable",
      "type": "function"
    },
    {
      "inputs": [
        {
          "internalType": "address",
          "name": "contractOnSchain",
          "type": "address"
        }
      ],
      "name": "registerExtraContractForAll",
      "outputs": [],
      "stateMutability": "nonpayable",
      "type": "function"
    },
    {
      "inputs": [
        {
          "internalType": "bytes32",
          "name": "",
          "type": "bytes32"
        },
        {
          "internalType": "address",
          "name": "",
          "type": "address"
        }
      ],
      "name": "registryContracts",
      "outputs": [
        {
          "internalType": "bool",
          "name": "",
          "type": "bool"
        }
      ],
      "stateMutability": "view",
      "type": "function"
    },
    {
      "inputs": [
        {
          "internalType": "string",
          "name": "schainName",
          "type": "string"
        }
      ],
      "name": "removeConnectedChain",
      "outputs": [],
      "stateMutability": "nonpayable",
      "type": "function"
    },
    {
      "inputs": [
        {
          "internalType": "string",
          "name": "schainName",
          "type": "string"
        },
        {
          "internalType": "address",
          "name": "contractOnSchain",
          "type": "address"
        }
      ],
      "name": "removeExtraContract",
      "outputs": [],
      "stateMutability": "nonpayable",
      "type": "function"
    },
    {
      "inputs": [
        {
          "internalType": "address",
          "name": "contractOnSchain",
          "type": "address"
        }
      ],
      "name": "removeExtraContractForAll",
      "outputs": [],
      "stateMutability": "nonpayable",
      "type": "function"
    },
    {
      "inputs": [
        {
          "internalType": "bytes32",
          "name": "role",
          "type": "bytes32"
        },
        {
          "internalType": "address",
          "name": "account",
          "type": "address"
        }
      ],
      "name": "renounceRole",
      "outputs": [],
      "stateMutability": "nonpayable",
      "type": "function"
    },
    {
      "inputs": [
        {
          "internalType": "bytes32",
          "name": "role",
          "type": "bytes32"
        },
        {
          "internalType": "address",
          "name": "account",
          "type": "address"
        }
      ],
      "name": "revokeRole",
      "outputs": [],
      "stateMutability": "nonpayable",
      "type": "function"
    },
    {
      "inputs": [],
      "name": "schainHash",
      "outputs": [
        {
          "internalType": "bytes32",
          "name": "",
          "type": "bytes32"
        }
      ],
      "stateMutability": "view",
      "type": "function"
    },
    {
      "inputs": [
        {
          "internalType": "uint256",
          "name": "newGasLimit",
          "type": "uint256"
        }
      ],
      "name": "setNewGasLimit",
      "outputs": [],
      "stateMutability": "nonpayable",
      "type": "function"
    },
    {
      "inputs": [
        {
          "components": [
            {
              "internalType": "bytes32",
              "name": "dstChain",
              "type": "bytes32"
            },
            {
              "internalType": "uint256",
              "name": "msgCounter",
              "type": "uint256"
            },
            {
              "internalType": "address",
              "name": "srcContract",
              "type": "address"
            },
            {
              "internalType": "address",
              "name": "dstContract",
              "type": "address"
            },
            {
              "internalType": "bytes",
              "name": "data",
              "type": "bytes"
            }
          ],
          "internalType": "struct MessageProxyForSchain.OutgoingMessageData",
          "name": "message",
          "type": "tuple"
        }
      ],
      "name": "verifyOutgoingMessageData",
      "outputs": [
        {
          "internalType": "bool",
          "name": "isValidMessage",
          "type": "bool"
        }
      ],
      "stateMutability": "view",
      "type": "function"
    }
  ],
  "bytecode": "0x608060405234801561001057600080fd5b506131e4806100206000396000f3fe608060405234801561001057600080fd5b50600436106101e55760003560e01c806391d148541161010f578063d547741f116100a2578063f399e22e11610071578063f399e22e146103f5578063f68016b714610408578063f79f795414610410578063f8c88a1614610418576101e5565b8063d547741f1461039a578063e356a6f9146103ad578063e6ab8403146103c0578063f2f63605146103e2576101e5565b8063a8bb1b7d116100de578063a8bb1b7d14610359578063bbc4e8c21461036c578063ca15c87314610374578063cab010c914610387576101e5565b806391d1485414610318578063944892021461032b578063999ab9aa1461033e578063a217fddf14610351576101e5565b80634d2038591161018757806377fe0f311161015657806377fe0f31146102b25780637aa38a7c146102c55780637c5ad80c146102e55780639010d07c146102f8576101e5565b80634d20385914610271578063523c8ab614610284578063603e5d131461028c57806367ec60201461029f576101e5565b806336568abe116101c357806336568abe146102305780633b597ffe146102435780633b690b6b146102565780633cdd2cc31461025e576101e5565b806313c52260146101ea578063248a9ca3146102085780632f2ff15d1461021b575b600080fd5b6101f261042b565b6040516101ff9190612797565b60405180910390f35b6101f261021636600461233b565b61044f565b61022e610229366004612353565b610464565b005b61022e61023e366004612353565b6104b5565b61022e61025136600461233b565b6104f7565b6101f2610542565b61022e61026c36600461244b565b610548565b61022e61027f366004612303565b610658565b6101f2610731565b61022e61029a3660046124e0565b610743565b6101f26102ad36600461244b565b61086e565b6101f26102c036600461244b565b6108db565b6102d86102d33660046125d4565b610943565b6040516101ff919061278c565b6102d86102f3366004612353565b61097d565b61030b6103063660046123dc565b61099d565b6040516101ff9190612754565b6102d8610326366004612353565b6109bc565b61022e610339366004612382565b6109d4565b6102d861034c36600461244b565b610b0f565b6101f2610b5b565b61022e610367366004612303565b610b60565b6101f2610c35565b6101f261038236600461233b565b610c59565b61022e61039536600461248b565b610c70565b61022e6103a8366004612353565b610d73565b6102d86103bb36600461248b565b610dad565b6103d36103ce36600461233b565b610e0c565b6040516101ff93929190612fc9565b61022e6103f036600461244b565b610e30565b61022e6104033660046123fd565b610f49565b6101f26110a6565b61030b6110ac565b61022e61042636600461248b565b6110bb565b7f2785f35fe7d8743aa971942d8474737bb31895d396eff2cc688a481e0221e19181565b60009081526033602052604090206002015490565b600082815260336020526040902060020154610482906103266111ba565b6104a75760405162461bcd60e51b815260040161049e906128c2565b60405180910390fd5b6104b182826111bf565b5050565b6104bd6111ba565b6001600160a01b0316816001600160a01b0316146104ed5760405162461bcd60e51b815260040161049e90612f7a565b6104b18282611228565b6105217f96e3fc3be15159903e053027cff8a23f39a990e0194abcd8ac1cf1b355b8b93c336109bc565b61053d5760405162461bcd60e51b815260040161049e906129e7565b606c55565b60665481565b6105727f2785f35fe7d8743aa971942d8474737bb31895d396eff2cc688a481e0221e191336109bc565b61058e5760405162461bcd60e51b815260040161049e90612a2d565b600082826040516020016105a3929190612715565b6040516020818303038152906040528051906020012090506040516020016105ca90612741565b604051602081830303815290604052805190602001208114156105ff5760405162461bcd60e51b815260040161049e90612f31565b60008181526067602052604090206002015460ff166106305760405162461bcd60e51b815260040161049e90612dfa565b60009081526067602052604081208181556001810191909155600201805460ff191690555050565b61067060008051602061314f833981519152336109bc565b61068c5760405162461bcd60e51b815260040161049e90612911565b61069e816001600160a01b0316611291565b6106ba5760405162461bcd60e51b815260040161049e90612e59565b6001600160a01b038116600090815260008051602061318f833981519152602052604090205460ff16156107005760405162461bcd60e51b815260040161049e90612eed565b6001600160a01b0316600090815260008051602061318f83398151915260205260409020805460ff19166001179055565b60008051602061314f83398151915281565b60008686604051602001610758929190612715565b60405160208183030381529060405280519060200120905061078361077d8585611297565b83611386565b61079f5760405162461bcd60e51b815260040161049e90612b78565b60008181526067602052604090206002015460ff166107d05760405162461bcd60e51b815260040161049e90612dfa565b60008181526067602052604090205485146107fd5760405162461bcd60e51b815260040161049e90612c5e565b60005b8381101561083c576108338286868481811061081857fe5b905060200281019061082a9190613026565b88600101611433565b50600101610800565b5060008181526067602052604090205461085690846115a1565b60009182526067602052604090912055505050505050565b6000808383604051602001610884929190612715565b60408051601f1981840301815291815281516020928301206000818152606790935291206002015490915060ff166108c05760009150506108d5565b60009081526067602052604090206001015490505b92915050565b60008083836040516020016108f1929190612715565b60408051601f1981840301815291815281516020928301206000818152606790935291206002015490915060ff1661092d5760009150506108d5565b6000908152606760205260409020549392505050565b8051600090815260686020908152604080832082850151845290915281205461096b836115c6565b81141561097757600191505b50919050565b606b60209081526000928352604080842090915290825290205460ff1681565b60008281526033602052604081206109b59083611633565b9392505050565b60008281526033602052604081206109b5908361163f565b60008481526067602052604090206002015460ff16610a055760405162461bcd60e51b815260040161049e90612d5a565b33600090815260008051602061318f833981519152602052604090205460ff1680610a4957506000848152606b6020908152604080832033845290915290205460ff165b610a655760405162461bcd60e51b815260040161049e906129a6565b6000848152606760205260409020600190810154610a82916115a1565b6000858152606760208181526040808420600101859055805160a081018252898152938990529181526000199093018284015233828201526001600160a01b03861660608301528051601f8501849004840281018401909152838152610b099260808301919086908690819084018382808284376000920191909152505050915250611654565b50505050565b6000606760008484604051602001610b28929190612715565b60408051808303601f190181529181528151602092830120835290820192909252016000206002015460ff169392505050565b600081565b610b7860008051602061314f833981519152336109bc565b610b945760405162461bcd60e51b815260040161049e90612e90565b610ba6816001600160a01b0316611291565b610bc25760405162461bcd60e51b815260040161049e90612e59565b6001600160a01b038116600090815260008051602061318f833981519152602052604090205460ff16610c075760405162461bcd60e51b815260040161049e90612be6565b6001600160a01b0316600090815260008051602061318f83398151915260205260409020805460ff19169055565b7f96e3fc3be15159903e053027cff8a23f39a990e0194abcd8ac1cf1b355b8b93c81565b60008181526033602052604081206108d590611706565b60008383604051602001610c85929190612715565b604051602081830303815290604052805190602001209050610cb560008051602061314f833981519152336109bc565b610cd15760405162461bcd60e51b815260040161049e90612cbb565b610ce3826001600160a01b0316611291565b610cff5760405162461bcd60e51b815260040161049e90612e59565b6000818152606b602090815260408083206001600160a01b038616845290915290205460ff1615610d425760405162461bcd60e51b815260040161049e90612eed565b6000908152606b602090815260408083206001600160a01b03909416835292905220805460ff191660011790555050565b600082815260336020526040902060020154610d91906103266111ba565b6104ed5760405162461bcd60e51b815260040161049e90612b28565b6000606b60008585604051602001610dc6929190612715565b60408051601f19818403018152918152815160209283012083528282019390935290820160009081206001600160a01b0386168252909152205460ff1690509392505050565b60676020526000908152604090208054600182015460029092015490919060ff1683565b610e5a7f2785f35fe7d8743aa971942d8474737bb31895d396eff2cc688a481e0221e191336109bc565b610e765760405162461bcd60e51b815260040161049e90612a2d565b60008282604051602001610e8b929190612715565b604051602081830303815290604052805190602001209050606654811415610ec55760405162461bcd60e51b815260040161049e9061288b565b60008181526067602052604090206002015460ff1615610ef75760405162461bcd60e51b815260040161049e90612baf565b604080516060810182526000808252602080830182815260018486018181529684526067909252939091209151825591519181019190915590516002909101805460ff19169115159190911790555050565b600054610100900460ff1680610f625750610f62611711565b80610f70575060005460ff16155b610f8c5760405162461bcd60e51b815260040161049e90612d0c565b600054610100900460ff16158015610fb7576000805460ff1961ff0019909116610100171660011790555b610fbf611722565b610fca6000336104a7565b606580546001600160a01b0319166001600160a01b0385161790556040805160608101825260008082526020808301829052600183850152925191926067926110139101612741565b60408051808303601f19018152918152815160209283012083528282019390935290820160002083518155838201516001820155928201516002909301805460ff1916931515939093179092555161106d91849101612725565b60408051601f198184030181529190528051602090910120606655622dc6c0606c5580156110a1576000805461ff00191690555b505050565b606c5481565b6065546001600160a01b031681565b600083836040516020016110d0929190612715565b60405160208183030381529060405280519060200120905061110060008051602061314f833981519152336109bc565b61111c5760405162461bcd60e51b815260040161049e9061283c565b61112e826001600160a01b0316611291565b61114a5760405162461bcd60e51b815260040161049e90612e59565b6000818152606b602090815260408083206001600160a01b038616845290915290205460ff1661118c5760405162461bcd60e51b815260040161049e90612be6565b6000908152606b602090815260408083206001600160a01b03909416835292905220805460ff191690555050565b335b90565b60008281526033602052604090206111d790826117b5565b156104b1576111e46111ba565b6001600160a01b0316816001600160a01b0316837f2f8788117e7eff1d82e926ec794901d17c78024a50270940304540a733656f0d60405160405180910390a45050565b600082815260336020526040902061124090826117ca565b156104b15761124d6111ba565b6001600160a01b0316816001600160a01b0316837ff6391f5c32d9c69d2a47ea670b442974b53935d1edc7fd64eb21e047a839171b60405160405180910390a45050565b3b151590565b6000606060005b8381101561137657818585838181106112b357fe5b90506020028101906112c59190613026565b6112d3906020810190612303565b60601b6001600160601b0319168686848181106112ec57fe5b90506020028101906112fe9190613026565b61130f906040810190602001612303565b60601b6001600160601b03191687878581811061132857fe5b905060200281019061133a9190613026565b611348906040810190612fe1565b60405160200161135c9594939291906126de565b60408051601f19818403018152919052915060010161129e565b5080516020909101209392505050565b60408051808201825282358152602080840135908201526065548251632aa77bd360e11b815283516000946109b5949388936080808a013594938a01359360608b0135936001600160a01b03169263554ef7a6926004808301939192829003018186803b1580156113f657600080fd5b505afa15801561140a573d6000803e3d6000fd5b505050506040513d601f19601f8201168201806040525081019061142e9190612594565b6117df565b60006114456040840160208501612303565b6001600160a01b031663884cee5a606c548686600001602081019061146a9190612303565b6114776040890189612fe1565b6040518663ffffffff1660e01b815260040161149694939291906127a0565b602060405180830381600088803b1580156114b057600080fd5b5087f1935050505080156114e1575060408051601f3d908101601f191682019092526114de9181019061231f565b60015b61159a576114ed613094565b806114f8575061153a565b827f4b7d3908626050c0d998d657e4e6f31cb43ed736bf2b9a1a0192494537ca0e598260405161152891906127e7565b60405180910390a260009150506109b5565b3d808015611564576040519150601f19603f3d011682016040523d82523d6000602084013e611569565b606091505b50827f4b7d3908626050c0d998d657e4e6f31cb43ed736bf2b9a1a0192494537ca0e598260405161152891906127e7565b90506109b5565b6000828201838110156109b55760405162461bcd60e51b815260040161049e9061296f565b600060608260000151836020015160001b846040015160601b6001600160601b031916856060015160601b6001600160601b03191686608001516040516020016116149594939291906126a3565b60408051808303601f1901815291905280516020909101209392505050565b60006109b5838361191d565b60006109b5836001600160a01b038416611962565b60008160000151905081604001516001600160a01b03168260200151827f803d7f3ca0e5f93fcce39fa29812ed57a95a151594966e17125220132741c6b0856060015186608001516040516116aa929190612768565b60405180910390a46116bb826115c6565b6000828152606860209081526040808320606a80845282852080548652918452918420949094559184905252546116f39060016115a1565b6000918252606a60205260409091205550565b60006108d58261197a565b600061171c30611291565b15905090565b600054610100900460ff168061173b575061173b611711565b80611749575060005460ff16155b6117655760405162461bcd60e51b815260040161049e90612d0c565b600054610100900460ff16158015611790576000805460ff1961ff0019909116610100171660011790555b61179861197e565b6117a061197e565b80156117b2576000805461ff00191690555b50565b60006109b5836001600160a01b0384166119ff565b60006109b5836001600160a01b038416611a49565b60006117ea87611b16565b6118065760405162461bcd60e51b815260040161049e90612a99565b61181286868686611b4c565b61181e57506000611913565b600061182d8860200151611c20565b905061183d886000015182611c44565b6118595760405162461bcd60e51b815260040161049e90612e31565b6118638585611c44565b61187f5760405162461bcd60e51b815260040161049e90612ac9565b61188761218a565b61188f611c74565b905061189a84611d34565b6118b65760405162461bcd60e51b815260040161049e90612dcc565b61190e8960000151838360000151602001518460000151600001518560200151602001518660200151600001518c8c8c60000151602001518d60000151600001518e60200151602001518f6020015160000151611d48565b925050505b9695505050505050565b815460009082106119405760405162461bcd60e51b815260040161049e906127fa565b82600001828154811061194f57fe5b9060005260206000200154905092915050565b60009081526001919091016020526040902054151590565b5490565b600054610100900460ff16806119975750611997611711565b806119a5575060005460ff16155b6119c15760405162461bcd60e51b815260040161049e90612d0c565b600054610100900460ff161580156117a0576000805460ff1961ff00199091166101001716600117905580156117b2576000805461ff001916905550565b6000611a0b8383611962565b611a41575081546001818101845560008481526020808220909301849055845484825282860190935260409020919091556108d5565b5060006108d5565b60008181526001830160205260408120548015611b055783546000198083019190810190600090879083908110611a7c57fe5b9060005260206000200154905080876000018481548110611a9957fe5b600091825260208083209091019290925582815260018981019092526040902090840190558654879080611ac957fe5b600190038181906000526020600020016000905590558660010160008781526020019081526020016000206000905560019450505050506108d5565b60009150506108d5565b5092915050565b600060008051602061316f83398151915282600001511080156108d55750506020015160008051602061316f8339815191521190565b60006064841115611b5f57506000611c18565b60008051602061316f83398151915280860690611b7c82876115a1565b81611b8357fe5b069050600060008051602061316f833981519152600360008051602061316f8339815191528460008051602061316f83398151915286870909089050611bd860008051602061316f8339815191526002611df1565b841080611bf657508060008051602061316f83398151915285860914155b80611c015750848214155b15611c1157600092505050611c18565b6001925050505b949350505050565b60006108d560008051602061316f833981519152611c3e8185611e23565b90611e4b565b600060008051602061316f83398151915280600381868188890909088180611c6857fe5b84850914949350505050565b611c7c61218a565b50604080516080810182527f1800deef121f1e76426a00665e5c4479674322d4f75edadd46debd5cd992f6ed8183019081527f198e9393920d483a7260bfb731fb5d25f1aa493335a9e71297e485b7aef312c26060830152815281518083019092527f12c85ea5db8c6deb4aab71808dcb408fe3d1e7690c43d37b4ce6cc0166fa7daa82527f090689d0585ff075ec9e99ad690c3395bc4b313370b38ef355acdadcd122975b60208381019190915281019190915290565b60006108d582600001518360200151611e7d565b600080611d536121af565b8e8152602081018e9052604081018d9052606081018c9052608081018b905260a081018a905260c0810189905260e081018890526101008101879052610120810186905261014081018590526101608101849052611daf6121ce565b602081610180846008600019fa925082611ddb5760405162461bcd60e51b815260040161049e90612d9e565b5115159f9e505050505050505050505050505050565b6000808211611e125760405162461bcd60e51b815260040161049e90612af1565b818381611e1b57fe5b049392505050565b600082821115611e455760405162461bcd60e51b815260040161049e90612a62565b50900390565b6000808211611e6c5760405162461bcd60e51b815260040161049e90612c27565b818381611e7557fe5b069392505050565b6000611e898383611efc565b15611e96575060016108d5565b611e9e6121ec565b611ea783611f2f565b9050611eb16121ec565b611edf611ebc611fb4565b611ed9611ed288611ecc8a611f2f565b90612012565b85906120d6565b906120d6565b8051909150158015611ef357506020810151155b95945050505050565b8151600090158015611f1057506020830151155b8015611f1d575081516001145b80156109b55750506020015115919050565b611f376121ec565b60008051602061316f8339815191526000816020850151855109905060008280611f5d57fe5b8380611f6557fe5b8480611f6d57fe5b876020015160018703098751088480611f8257fe5b602088015188510809905060405180604001604052808281526020018480611fa657fe5b848508905295945050505050565b611fbc6121ec565b50604080518082019091527f2b149d40ceb8aaae81be18991be06ac3b5b4c5e559dbefa33267e6dc24a138e581527e9713b03af0fed4cd2cafadeed8fdf4a74fa084e52d1852e4a2bd0685c315d2602082015290565b61201a6121ec565b60008051602061316f8339815191526120316121ec565b6040518060400160405280838061204457fe5b86518851098152602001838061205657fe5b866020015188602001510990529050818061206d57fe5b828061207557fe5b826020015160018503098251088352818061208c57fe5b828061209457fe5b6020830151835108830383806120a657fe5b84806120ae57fe5b602088015188510885806120be57fe5b60208a01518a51080908602084015250909392505050565b6120de6121ec565b8151835160008051602061316f833981519152911161210f5780806120ff57fe5b835185519083039008825261212f565b61212c81828061211b57fe5b865186519085039008830390611e4b565b82525b826020015184602001511061215d57808061214657fe5b836020015182038560200151086020830152611b0f565b61217e81828061216957fe5b86602001518403866020015108830390611e4b565b60208301525092915050565b604051806040016040528061219d6121ec565b81526020016121aa6121ec565b905290565b604051806101800160405280600c906020820280368337509192915050565b60405180602001604052806001906020820280368337509192915050565b604051806040016040528060008152602001600081525090565b80356108d581613139565b60008083601f840112612222578182fd5b50813567ffffffffffffffff811115612239578182fd5b60208301915083602082850101111561225157600080fd5b9250929050565b600082601f830112612268578081fd5b813567ffffffffffffffff81111561227e578182fd5b612291601f8201601f191660200161303b565b91508082528360208285010111156122a857600080fd5b8060208401602084013760009082016020015292915050565b6000604082840312156122d2578081fd5b6122dc604061303b565b9050815181526020820151602082015292915050565b600060a08284031215610977578081fd5b600060208284031215612314578081fd5b81356109b581613139565b600060208284031215612330578081fd5b81516109b581613139565b60006020828403121561234c578081fd5b5035919050565b60008060408385031215612365578081fd5b82359150602083013561237781613139565b809150509250929050565b60008060008060608587031215612397578182fd5b8435935060208501356123a981613139565b9250604085013567ffffffffffffffff8111156123c4578283fd5b6123d087828801612211565b95989497509550505050565b600080604083850312156123ee578182fd5b50508035926020909101359150565b6000806040838503121561240f578182fd5b823561241a81613139565b9150602083013567ffffffffffffffff811115612435578182fd5b61244185828601612258565b9150509250929050565b6000806020838503121561245d578182fd5b823567ffffffffffffffff811115612473578283fd5b61247f85828601612211565b90969095509350505050565b60008060006040848603121561249f578283fd5b833567ffffffffffffffff8111156124b5578384fd5b6124c186828701612211565b90945092505060208401356124d581613139565b809150509250925092565b60008060008060008061010087890312156124f9578384fd5b863567ffffffffffffffff80821115612510578586fd5b61251c8a838b01612211565b909850965060208901359550604089013591508082111561253b578384fd5b818901915089601f83011261254e578384fd5b81358181111561255c578485fd5b8a6020808302850101111561256f578485fd5b60208301955080945050505061258888606089016122f2565b90509295509295509295565b6000608082840312156125a5578081fd5b6125af604061303b565b6125b984846122c1565b81526125c884604085016122c1565b60208201529392505050565b6000602082840312156125e5578081fd5b813567ffffffffffffffff808211156125fc578283fd5b9083019060a0828603121561260f578283fd5b61261960a061303b565b82358152602083013560208201526126348660408501612206565b60408201526126468660608501612206565b606082015260808301358281111561265c578485fd5b61266887828601612258565b60808301525095945050505050565b6000815180845261268f816020860160208601613062565b601f01601f19169290920160200192915050565b600086825285602083015284604083015283606083015282516126cd816080850160208701613062565b919091016080019695505050505050565b600086516126f0818460208b01613062565b8201868152602081018690528385604083013790920160400191825250949350505050565b6000828483379101908152919050565b60008251612737818460208701613062565b9190910192915050565b6613585a5b9b995d60ca1b815260070190565b6001600160a01b0391909116815260200190565b6001600160a01b0383168152604060208201819052600090611c1890830184612677565b901515815260200190565b90815260200190565b8481526001600160a01b03841660208201526060604082018190528101829052600082846080840137818301608090810191909152601f909201601f191601019392505050565b6000602082526109b56020830184612677565b60208082526022908201527f456e756d657261626c655365743a20696e646578206f7574206f6620626f756e604082015261647360f01b606082015260800190565b6020808252602f908201527f4e6f7420656e6f756768207065726d697373696f6e7320746f2072656d6f766560408201526e08195e1d1c984818dbdb9d1c9858dd608a1b606082015260800190565b6020808252601c908201527f53636861696e2063616e6e6f7420636f6e6e65637420697473656c6600000000604082015260600190565b6020808252602f908201527f416363657373436f6e74726f6c3a2073656e646572206d75737420626520616e60408201526e0818591b5a5b881d1bc819dc985b9d608a1b606082015260800190565b602080825260409082018190527f4e6f7420656e6f756768207065726d697373696f6e7320746f20726567697374908201527f657220657874726120636f6e747261637420666f7220616c6c20636861696e73606082015260800190565b6020808252601b908201527f536166654d6174683a206164646974696f6e206f766572666c6f770000000000604082015260600190565b60208082526021908201527f53656e64657220636f6e7472616374206973206e6f74207265676973746572656040820152601960fa1b606082015260800190565b60208082526026908201527f4e6f7420656e6f756768207065726d697373696f6e7320746f2073657420636f6040820152651b9cdd185b9d60d21b606082015260800190565b6020808252818101527f434841494e5f434f4e4e4543544f525f524f4c45206973207265717569726564604082015260600190565b6020808252601e908201527f536166654d6174683a207375627472616374696f6e206f766572666c6f770000604082015260600190565b60208082526016908201527514da59db985d1d5c99481a5cc81b9bdd081d985b1a5960521b604082015260600190565b6020808252600e908201526d48617368206e6f7420696e20473160901b604082015260600190565b6020808252601a908201527f536166654d6174683a206469766973696f6e206279207a65726f000000000000604082015260600190565b60208082526030908201527f416363657373436f6e74726f6c3a2073656e646572206d75737420626520616e60408201526f2061646d696e20746f207265766f6b6560801b606082015260800190565b60208082526019908201527f5369676e6174757265206973206e6f7420766572696669656400000000000000604082015260600190565b6020808252601a908201527f436861696e20697320616c726561647920636f6e6e6563746564000000000000604082015260600190565b60208082526021908201527f457874726120636f6e747261637420697320616c72656164792072656d6f76656040820152601960fa1b606082015260800190565b60208082526018908201527f536166654d6174683a206d6f64756c6f206279207a65726f0000000000000000604082015260600190565b60208082526038908201527f5374617274696e6720636f756e746572206973206e6f74207175616c20746f2060408201527f696e636f6d696e67206d65737361676520636f756e7465720000000000000000606082015260800190565b60208082526031908201527f4e6f7420656e6f756768207065726d697373696f6e7320746f20726567697374604082015270195c88195e1d1c984818dbdb9d1c9858dd607a1b606082015260800190565b6020808252602e908201527f496e697469616c697a61626c653a20636f6e747261637420697320616c72656160408201526d191e481a5b9a5d1a585b1a5e995960921b606082015260800190565b60208082526024908201527f44657374696e6174696f6e20636861696e206973206e6f7420696e697469616c6040820152631a5e995960e21b606082015260800190565b60208082526014908201527314185a5c9a5b99c818da1958dac819985a5b195960621b604082015260600190565b602080825260149082015273283ab13634b19025b2bc903737ba1034b710239960611b604082015260600190565b60208082526018908201527f436861696e206973206e6f7420696e697469616c697a65640000000000000000604082015260600190565b6020808252600e908201526d5369676e206e6f7420696e20473160901b604082015260600190565b6020808252601f908201527f476976656e2061646472657373206973206e6f74206120636f6e747261637400604082015260600190565b6020808252603e908201527f4e6f7420656e6f756768207065726d697373696f6e7320746f2072656d6f766560408201527f20657874726120636f6e747261637420666f7220616c6c20636861696e730000606082015260800190565b60208082526024908201527f457874726120636f6e747261637420697320616c726561647920726567697374604082015263195c995960e21b606082015260800190565b60208082526029908201527f4e657720636861696e20686173682063616e6e6f7420626520657175616c20746040820152681bc813585a5b9b995d60ba1b606082015260800190565b6020808252602f908201527f416363657373436f6e74726f6c3a2063616e206f6e6c792072656e6f756e636560408201526e103937b632b9903337b91039b2b63360891b606082015260800190565b92835260208301919091521515604082015260600190565b6000808335601e19843603018112612ff7578283fd5b83018035915067ffffffffffffffff821115613011578283fd5b60200191503681900382131561225157600080fd5b60008235605e19833603018112612737578182fd5b60405181810167ffffffffffffffff8111828210171561305a57600080fd5b604052919050565b60005b8381101561307d578181015183820152602001613065565b83811115610b095750506000910152565b60e01c90565b600060443d10156130a4576111bc565b600481823e6308c379a06130b8825161308e565b146130c2576111bc565b6040513d600319016004823e80513d67ffffffffffffffff81602484011181841117156130f257505050506111bc565b8284019250825191508082111561310c57505050506111bc565b503d83016020828401011115613124575050506111bc565b601f01601f1916810160200160405291505090565b6001600160a01b03811681146117b257600080fdfe6155b5aac15ce9aa193c0527a6f43be0a36a7e2e7496c2b615c0e5f92284277330644e72e131a029b85045b68181585d97816a916871ca8d3c208c16d87cfd47c8cc8bda7ad4886bea3ebbdafa02e79d37c39bf4011696b26a31a0802fd9458ba2646970667358221220137b1f62d2d38e987e806236ac7ef481932ca93f9c5b6fcb6471e050c4f4998464736f6c634300060c0033",
  "linkReferences": {},
  "deployedLinkReferences": {}
}