{
  "_format": "hh-sol-artifact-1",
  "contractName": "TokenManagerERC721",
  "sourceName": "contracts/schain/TokenManagers/TokenManagerERC721.sol",
  "abi": [
    {
      "anonymous": false,
      "inputs": [
        {
          "indexed": true,
          "internalType": "address",
          "name": "erc721OnMainnet",
          "type": "address"
        },
        {
          "indexed": true,
          "internalType": "address",
          "name": "erc721OnSchain",
          "type": "address"
        }
      ],
      "name": "ERC721TokenAdded",
      "type": "event"
    },
    {
      "anonymous": false,
      "inputs": [
        {
          "indexed": true,
          "internalType": "address",
          "name": "erc721OnMainnet",
          "type": "address"
        },
        {
          "indexed": true,
          "internalType": "address",
          "name": "erc721OnSchain",
          "type": "address"
        }
      ],
      "name": "ERC721TokenCreated",
      "type": "event"
    },
    {
      "anonymous": false,
      "inputs": [
        {
          "indexed": true,
          "internalType": "address",
          "name": "erc721OnMainnet",
          "type": "address"
        },
        {
          "indexed": true,
          "internalType": "address",
          "name": "erc721OnSchain",
          "type": "address"
        },
        {
          "indexed": false,
          "internalType": "uint256",
          "name": "tokenId",
          "type": "uint256"
        }
      ],
      "name": "ERC721TokenReceived",
      "type": "event"
    },
    {
      "anonymous": false,
      "inputs": [
        {
          "indexed": true,
          "internalType": "bytes32",
          "name": "role",
          "type": "bytes32"
        },
        {
          "indexed": true,
          "internalType": "bytes32",
          "name": "previousAdminRole",
          "type": "bytes32"
        },
        {
          "indexed": true,
          "internalType": "bytes32",
          "name": "newAdminRole",
          "type": "bytes32"
        }
      ],
      "name": "RoleAdminChanged",
      "type": "event"
    },
    {
      "anonymous": false,
      "inputs": [
        {
          "indexed": true,
          "internalType": "bytes32",
          "name": "role",
          "type": "bytes32"
        },
        {
          "indexed": true,
          "internalType": "address",
          "name": "account",
          "type": "address"
        },
        {
          "indexed": true,
          "internalType": "address",
          "name": "sender",
          "type": "address"
        }
      ],
      "name": "RoleGranted",
      "type": "event"
    },
    {
      "anonymous": false,
      "inputs": [
        {
          "indexed": true,
          "internalType": "bytes32",
          "name": "role",
          "type": "bytes32"
        },
        {
          "indexed": true,
          "internalType": "address",
          "name": "account",
          "type": "address"
        },
        {
          "indexed": true,
          "internalType": "address",
          "name": "sender",
          "type": "address"
        }
      ],
      "name": "RoleRevoked",
      "type": "event"
    },
    {
      "inputs": [],
      "name": "AUTOMATIC_DEPLOY_ROLE",
      "outputs": [
        {
          "internalType": "bytes32",
          "name": "",
          "type": "bytes32"
        }
      ],
      "stateMutability": "view",
      "type": "function"
    },
    {
      "inputs": [],
      "name": "DEFAULT_ADMIN_ROLE",
      "outputs": [
        {
          "internalType": "bytes32",
          "name": "",
          "type": "bytes32"
        }
      ],
      "stateMutability": "view",
      "type": "function"
    },
    {
      "inputs": [],
      "name": "MAINNET_HASH",
      "outputs": [
        {
          "internalType": "bytes32",
          "name": "",
          "type": "bytes32"
        }
      ],
      "stateMutability": "view",
      "type": "function"
    },
    {
      "inputs": [],
      "name": "MAINNET_NAME",
      "outputs": [
        {
          "internalType": "string",
          "name": "",
          "type": "string"
        }
      ],
      "stateMutability": "view",
      "type": "function"
    },
    {
      "inputs": [],
      "name": "TOKEN_REGISTRAR_ROLE",
      "outputs": [
        {
          "internalType": "bytes32",
          "name": "",
          "type": "bytes32"
        }
      ],
      "stateMutability": "view",
      "type": "function"
    },
    {
      "inputs": [
        {
          "internalType": "address",
          "name": "erc721OnMainnet",
          "type": "address"
        },
        {
          "internalType": "contract ERC721OnChain",
          "name": "erc721OnSchain",
          "type": "address"
        }
      ],
      "name": "addERC721TokenByOwner",
      "outputs": [],
      "stateMutability": "nonpayable",
      "type": "function"
    },
    {
      "inputs": [
        {
          "internalType": "string",
          "name": "schainName",
          "type": "string"
        },
        {
          "internalType": "address",
          "name": "newTokenManager",
          "type": "address"
        }
      ],
      "name": "addTokenManager",
      "outputs": [],
      "stateMutability": "nonpayable",
      "type": "function"
    },
    {
      "inputs": [],
      "name": "automaticDeploy",
      "outputs": [
        {
          "internalType": "bool",
          "name": "",
          "type": "bool"
        }
      ],
      "stateMutability": "view",
      "type": "function"
    },
    {
      "inputs": [
        {
          "internalType": "address",
          "name": "newDepositBox",
          "type": "address"
        }
      ],
      "name": "changeDepositBoxAddress",
      "outputs": [],
      "stateMutability": "nonpayable",
      "type": "function"
    },
    {
      "inputs": [
        {
          "internalType": "address",
          "name": "",
          "type": "address"
        }
      ],
      "name": "clonesErc721",
      "outputs": [
        {
          "internalType": "contract ERC721OnChain",
          "name": "",
          "type": "address"
        }
      ],
      "stateMutability": "view",
      "type": "function"
    },
    {
      "inputs": [],
      "name": "communityLocker",
      "outputs": [
        {
          "internalType": "contract CommunityLocker",
          "name": "",
          "type": "address"
        }
      ],
      "stateMutability": "view",
      "type": "function"
    },
    {
      "inputs": [],
      "name": "depositBox",
      "outputs": [
        {
          "internalType": "address",
          "name": "",
          "type": "address"
        }
      ],
      "stateMutability": "view",
      "type": "function"
    },
    {
      "inputs": [],
      "name": "disableAutomaticDeploy",
      "outputs": [],
      "stateMutability": "nonpayable",
      "type": "function"
    },
    {
      "inputs": [],
      "name": "enableAutomaticDeploy",
      "outputs": [],
      "stateMutability": "nonpayable",
      "type": "function"
    },
    {
      "inputs": [
        {
          "internalType": "address",
          "name": "contractOnMainnet",
          "type": "address"
        },
        {
          "internalType": "address",
          "name": "to",
          "type": "address"
        },
        {
          "internalType": "uint256",
          "name": "tokenId",
          "type": "uint256"
        }
      ],
      "name": "exitToMainERC721",
      "outputs": [],
      "stateMutability": "nonpayable",
      "type": "function"
    },
    {
      "inputs": [
        {
          "internalType": "bytes32",
          "name": "role",
          "type": "bytes32"
        }
      ],
      "name": "getRoleAdmin",
      "outputs": [
        {
          "internalType": "bytes32",
          "name": "",
          "type": "bytes32"
        }
      ],
      "stateMutability": "view",
      "type": "function"
    },
    {
      "inputs": [
        {
          "internalType": "bytes32",
          "name": "role",
          "type": "bytes32"
        },
        {
          "internalType": "uint256",
          "name": "index",
          "type": "uint256"
        }
      ],
      "name": "getRoleMember",
      "outputs": [
        {
          "internalType": "address",
          "name": "",
          "type": "address"
        }
      ],
      "stateMutability": "view",
      "type": "function"
    },
    {
      "inputs": [
        {
          "internalType": "bytes32",
          "name": "role",
          "type": "bytes32"
        }
      ],
      "name": "getRoleMemberCount",
      "outputs": [
        {
          "internalType": "uint256",
          "name": "",
          "type": "uint256"
        }
      ],
      "stateMutability": "view",
      "type": "function"
    },
    {
      "inputs": [
        {
          "internalType": "bytes32",
          "name": "role",
          "type": "bytes32"
        },
        {
          "internalType": "address",
          "name": "account",
          "type": "address"
        }
      ],
      "name": "grantRole",
      "outputs": [],
      "stateMutability": "nonpayable",
      "type": "function"
    },
    {
      "inputs": [
        {
          "internalType": "bytes32",
          "name": "role",
          "type": "bytes32"
        },
        {
          "internalType": "address",
          "name": "account",
          "type": "address"
        }
      ],
      "name": "hasRole",
      "outputs": [
        {
          "internalType": "bool",
          "name": "",
          "type": "bool"
        }
      ],
      "stateMutability": "view",
      "type": "function"
    },
    {
      "inputs": [
        {
          "internalType": "string",
          "name": "schainName",
          "type": "string"
        }
      ],
      "name": "hasTokenManager",
      "outputs": [
        {
          "internalType": "bool",
          "name": "",
          "type": "bool"
        }
      ],
      "stateMutability": "view",
      "type": "function"
    },
    {
      "inputs": [
        {
          "internalType": "string",
          "name": "newChainName",
          "type": "string"
        },
        {
          "internalType": "contract MessageProxyForSchain",
          "name": "newMessageProxy",
          "type": "address"
        },
        {
          "internalType": "contract TokenManagerLinker",
          "name": "newIMALinker",
          "type": "address"
        },
        {
          "internalType": "contract CommunityLocker",
          "name": "newCommunityLocker",
          "type": "address"
        },
        {
          "internalType": "address",
          "name": "newDepositBox",
          "type": "address"
        }
      ],
      "name": "initialize",
      "outputs": [],
      "stateMutability": "nonpayable",
      "type": "function"
    },
    {
      "inputs": [
        {
          "internalType": "string",
          "name": "newSchainName",
          "type": "string"
        },
        {
          "internalType": "contract MessageProxyForSchain",
          "name": "newMessageProxy",
          "type": "address"
        },
        {
          "internalType": "contract TokenManagerLinker",
          "name": "newIMALinker",
          "type": "address"
        },
        {
          "internalType": "contract CommunityLocker",
          "name": "newCommunityLocker",
          "type": "address"
        },
        {
          "internalType": "address",
          "name": "newDepositBox",
          "type": "address"
        }
      ],
      "name": "initializeTokenManager",
      "outputs": [],
      "stateMutability": "nonpayable",
      "type": "function"
    },
    {
      "inputs": [],
      "name": "messageProxy",
      "outputs": [
        {
          "internalType": "contract MessageProxyForSchain",
          "name": "",
          "type": "address"
        }
      ],
      "stateMutability": "view",
      "type": "function"
    },
    {
      "inputs": [
        {
          "internalType": "bytes32",
          "name": "fromChainHash",
          "type": "bytes32"
        },
        {
          "internalType": "address",
          "name": "sender",
          "type": "address"
        },
        {
          "internalType": "bytes",
          "name": "data",
          "type": "bytes"
        }
      ],
      "name": "postMessage",
      "outputs": [
        {
          "internalType": "address",
          "name": "",
          "type": "address"
        }
      ],
      "stateMutability": "nonpayable",
      "type": "function"
    },
    {
      "inputs": [
        {
          "internalType": "string",
          "name": "schainName",
          "type": "string"
        }
      ],
      "name": "removeTokenManager",
      "outputs": [],
      "stateMutability": "nonpayable",
      "type": "function"
    },
    {
      "inputs": [
        {
          "internalType": "bytes32",
          "name": "role",
          "type": "bytes32"
        },
        {
          "internalType": "address",
          "name": "account",
          "type": "address"
        }
      ],
      "name": "renounceRole",
      "outputs": [],
      "stateMutability": "nonpayable",
      "type": "function"
    },
    {
      "inputs": [
        {
          "internalType": "bytes32",
          "name": "role",
          "type": "bytes32"
        },
        {
          "internalType": "address",
          "name": "account",
          "type": "address"
        }
      ],
      "name": "revokeRole",
      "outputs": [],
      "stateMutability": "nonpayable",
      "type": "function"
    },
    {
      "inputs": [],
      "name": "schainHash",
      "outputs": [
        {
          "internalType": "bytes32",
          "name": "",
          "type": "bytes32"
        }
      ],
      "stateMutability": "view",
      "type": "function"
    },
    {
      "inputs": [],
      "name": "tokenManagerLinker",
      "outputs": [
        {
          "internalType": "contract TokenManagerLinker",
          "name": "",
          "type": "address"
        }
      ],
      "stateMutability": "view",
      "type": "function"
    },
    {
      "inputs": [
        {
          "internalType": "bytes32",
          "name": "",
          "type": "bytes32"
        }
      ],
      "name": "tokenManagers",
      "outputs": [
        {
          "internalType": "address",
          "name": "",
          "type": "address"
        }
      ],
      "stateMutability": "view",
      "type": "function"
    },
    {
      "inputs": [
        {
          "internalType": "string",
          "name": "targetSchainName",
          "type": "string"
        },
        {
          "internalType": "address",
          "name": "contractOnMainnet",
          "type": "address"
        },
        {
          "internalType": "address",
          "name": "to",
          "type": "address"
        },
        {
          "internalType": "uint256",
          "name": "tokenId",
          "type": "uint256"
        }
      ],
      "name": "transferToSchainERC721",
      "outputs": [],
      "stateMutability": "nonpayable",
      "type": "function"
    }
  ],
  "bytecode": "0x608060405234801561001057600080fd5b50615cb8806100206000396000f3fe60806040523480156200001157600080fd5b5060043610620002205760003560e01c80636d6112861162000129578063b9581c5011620000b1578063cc5b715b116200007b578063cc5b715b1462000461578063d547741f146200046b578063dec2deb61462000482578063edcc12b5146200048c5762000220565b8063b9581c501462000412578063c0e312dc146200041c578063ca15c8731462000433578063cb703bff146200044a5762000220565b80638a8fe42111620000f35780638a8fe42114620003c35780639010d07c14620003da57806391d1485414620003f1578063a217fddf14620004085762000220565b80636d61128614620003815780636d6c68e6146200038b5780637b69620f1462000395578063884cee5a14620003ac5762000220565b806336568abe11620001ad5780633fa194ce11620001775780633fa194ce146200033d57806350f4428014620003475780635573b8b614620003605780636ce681d2146200036a5762000220565b806336568abe14620002df57806339927cf914620002f65780633b4612c1146200031c5780633b690b6b14620003335762000220565b806328c5e18211620001ef57806328c5e182146200029d5780632dc151de14620002a75780632f2ff15d14620002b157806330d86b2a14620002c85762000220565b8063029996b814620002255780630b885ac314620002315780630f1a8f741462000248578063248a9ca31462000277575b600080fd5b6200022f620004a3565b005b6200022f6200024236600462001ed9565b620004fb565b6200025f6200025936600462001ce4565b62000511565b6040516200026e9190620020cb565b60405180910390f35b6200028e6200028836600462001ce4565b6200052c565b6040516200026e919062002127565b6200028e62000541565b6200025f6200058c565b6200022f620002c236600462001cfd565b6200059b565b6200022f620002d936600462001c62565b620005eb565b6200022f620002f036600462001cfd565b620006b9565b6200030d6200030736600462001dc4565b62000702565b6040516200026e91906200211c565b6200022f6200032d36600462001e63565b62000761565b6200028e620008ea565b6200028e620008f0565b6200035162000903565b6040516200026e919062002165565b6200025f62000926565b6200022f6200037b36600462001ed9565b62000935565b6200025f62000a9c565b6200025f62000aab565b6200022f620003a636600462001ca7565b62000aba565b6200025f620003bd36600462001d24565b62000b8f565b6200025f620003d436600462001c24565b62000cec565b6200025f620003eb36600462001d84565b62000d07565b6200030d6200040236600462001cfd565b62000d28565b6200028e62000d42565b6200022f62000d47565b6200022f6200042d36600462001dc4565b62000d90565b6200028e6200044436600462001ce4565b62000e58565b6200022f6200045b36600462001e08565b62000e71565b6200028e62000f73565b6200022f6200047c36600462001cfd565b62000f97565b6200030d62000fd7565b6200022f6200049d36600462001c24565b62000fe7565b620004be60008051602062005c638339815191523362000d28565b620004e65760405162461bcd60e51b8152600401620004dd9062002360565b60405180910390fd5b6069805460ff60a01b1916600160a01b179055565b6200050a858585858562000935565b5050505050565b606a602052600090815260409020546001600160a01b031681565b60009081526033602052604090206002015490565b6040518060400160405280600781526020016613585a5b9b995d60ca1b815250604051602001620005739190620020ad565b6040516020818303038152906040528051906020012081565b6066546001600160a01b031681565b600082815260336020526040902060020154620005bc906200040262001035565b620005db5760405162461bcd60e51b8152600401620004dd906200221c565b620005e7828262001039565b5050565b6067546040516311be333d60e11b81526001600160a01b039091169063237c667a906200061d908590600401620020cb565b600060405180830381600087803b1580156200063857600080fd5b505af11580156200064d573d6000803e3d6000fd5b50505050620006b46040518060400160405280600781526020016613585a5b9b995d60ca1b815250604051602001620006879190620020ad565b60408051601f1981840301815291905280516020909101206069546001600160a01b0316858585620010a7565b505050565b620006c362001035565b6001600160a01b0316816001600160a01b031614620006f65760405162461bcd60e51b8152600401620004dd9062002677565b620005e78282620012e4565b6000806001600160a01b0316606a60008585604051602001620007279291906200209d565b60408051601f19818403018152918152815160209283012083529082019290925201600020546001600160a01b0316141590505b92915050565b84848080601f0160208091040260200160405190810160405280939291908181526020018383808284376000920182905250604051879450909250620007ad91508490602001620020ad565b60408051601f1981840301815282825280516020918201208383018352600784526613585a5b9b995d60ca1b848301529151919350620007ef929101620020ad565b60405160208183030381529060405280519060200120811415620008275760405162461bcd60e51b8152600401620004dd90620022d9565b6001600160a01b038216620008505760405162461bcd60e51b8152600401620004dd90620024ab565b6000818152606a60205260409020546001600160a01b0316620008875760405162461bcd60e51b8152600401620004dd90620021a3565b600088886040516020016200089e9291906200209d565b60408051601f1981840301815291815281516020928301206000818152606a909352912054909150620008df9082906001600160a01b0316898989620010a7565b505050505050505050565b60685481565b60008051602062005c6383398151915281565b6040518060400160405280600781526020016613585a5b9b995d60ca1b81525081565b6065546001600160a01b031681565b600054610100900460ff16806200095157506200095162001352565b8062000960575060005460ff16155b6200097f5760405162461bcd60e51b8152600401620004dd9062002426565b600054610100900460ff16158015620009ab576000805460ff1961ff0019909116610100171660011790555b620009b562001365565b620009c2600033620005db565b620009dd60008051602062005c6383398151915233620005db565b62000a097ffda70c2cc66a36c14884ee85424961f51b1d92b4494751699b6d105b3bcbcba833620005db565b8560405160200162000a1c9190620020ad565b60408051601f198184030181529190528051602090910120606855606580546001600160a01b038088166001600160a01b03199283161790925560668054878416908316179055606780548684169083161790556069805492851692909116919091179055801562000a94576000805461ff00191690555b505050505050565b6069546001600160a01b031681565b6067546001600160a01b031681565b62000ae67ffda70c2cc66a36c14884ee85424961f51b1d92b4494751699b6d105b3bcbcba83362000d28565b62000b055760405162461bcd60e51b8152600401620004dd90620023f1565b62000b19816001600160a01b031662001405565b62000b385760405162461bcd60e51b8152600401620004dd90620024e2565b6001600160a01b038281166000818152606b602052604080822080546001600160a01b0319169486169485179055517f8d7013baea57225dad80fd4e01f9abc0a832b852212426af1dee770b843472029190a35050565b6065546000906001600160a01b0316331462000bbf5760405162461bcd60e51b8152600401620004dd906200226b565b8484606854821415801562000c5357506040518060400160405280600781526020016613585a5b9b995d60ca1b81525060405160200162000c019190620020ad565b60405160208183030381529060405280519060200120821462000c41576000828152606a60205260409020546001600160a01b0382811691161462000c53565b6069546001600160a01b038281169116145b62000c725760405162461bcd60e51b8152600401620004dd90620025a3565b600062000c8086866200140b565b90506000600682600c81111562000c9357fe5b148062000cac5750600582600c81111562000caa57fe5b145b1562000cc65762000cbe878762001456565b905062000ce0565b60405162461bcd60e51b8152600401620004dd9062002709565b98975050505050505050565b606b602052600090815260409020546001600160a01b031681565b600082815260336020526040812062000d219083620016b9565b9392505050565b600082815260336020526040812062000d219083620016c7565b600081565b62000d6260008051602062005c638339815191523362000d28565b62000d815760405162461bcd60e51b8152600401620004dd9062002360565b6069805460ff60a01b19169055565b6066546001600160a01b031633148062000db2575062000db260003362000d28565b62000dd15760405162461bcd60e51b8152600401620004dd9062002611565b6000828260405160200162000de89291906200209d565b60408051601f1981840301815291815281516020928301206000818152606a9093529120549091506001600160a01b031662000e385760405162461bcd60e51b8152600401620004dd9062002329565b6000908152606a6020526040902080546001600160a01b03191690555050565b60008181526033602052604081206200075b90620016de565b6066546001600160a01b031633148062000e93575062000e9360003362000d28565b62000eb25760405162461bcd60e51b8152600401620004dd9062002611565b6000838360405160200162000ec99291906200209d565b60408051601f1981840301815291815281516020928301206000818152606a9093529120549091506001600160a01b03161562000f1a5760405162461bcd60e51b8152600401620004dd90620025da565b6001600160a01b03821662000f435760405162461bcd60e51b8152600401620004dd90620021a3565b6000908152606a6020526040902080546001600160a01b0319166001600160a01b03929092169190911790555050565b7ffda70c2cc66a36c14884ee85424961f51b1d92b4494751699b6d105b3bcbcba881565b60008281526033602052604090206002015462000fb8906200040262001035565b620006f65760405162461bcd60e51b8152600401620004dd90620023a1565b606954600160a01b900460ff1681565b62000ff460003362000d28565b620010135760405162461bcd60e51b8152600401620004dd90620022a2565b606980546001600160a01b0319166001600160a01b0392909216919091179055565b3390565b6000828152603360205260409020620010539082620016eb565b15620005e7576200106362001035565b6001600160a01b0316816001600160a01b0316837f2f8788117e7eff1d82e926ec794901d17c78024a50270940304540a733656f0d60405160405180910390a45050565b6001600160a01b038084166000908152606b602052604090205416620010cd8162001405565b620010ec5760405162461bcd60e51b8152600401620004dd9062002640565b60405163020604bf60e21b815230906001600160a01b0383169063081812fc906200111c90869060040162002127565b60206040518083038186803b1580156200113557600080fd5b505afa1580156200114a573d6000803e3d6000fd5b505050506040513d601f19601f8201168201806040525081019062001170919062001c43565b6001600160a01b031614620011995760405162461bcd60e51b8152600401620004dd9062002519565b6040516323b872dd60e01b81526001600160a01b038216906323b872dd90620011cb90339030908790600401620020df565b600060405180830381600087803b158015620011e657600080fd5b505af1158015620011fb573d6000803e3d6000fd5b5050604051630852cd8d60e31b81526001600160a01b03841692506342966c6891506200122d90859060040162002127565b600060405180830381600087803b1580156200124857600080fd5b505af11580156200125d573d6000803e3d6000fd5b5050505060606200127085858562001702565b606554604051634a24490160e11b81529192506001600160a01b031690639448920290620012a7908a908a90869060040162002130565b600060405180830381600087803b158015620012c257600080fd5b505af1158015620012d7573d6000803e3d6000fd5b5050505050505050505050565b6000828152603360205260409020620012fe908262001779565b15620005e7576200130e62001035565b6001600160a01b0316816001600160a01b0316837ff6391f5c32d9c69d2a47ea670b442974b53935d1edc7fd64eb21e047a839171b60405160405180910390a45050565b60006200135f3062001405565b15905090565b600054610100900460ff16806200138157506200138162001352565b8062001390575060005460ff16155b620013af5760405162461bcd60e51b8152600401620004dd9062002426565b600054610100900460ff16158015620013db576000805460ff1961ff0019909116610100171660011790555b620013e562001790565b620013ef62001790565b801562001402576000805461ff00191690555b50565b3b151590565b6000806200141c8385018562001ce4565b90506020810662001448576200143f6200143984838188620027aa565b6200140b565b9150506200075b565b6200143f8385018562001da6565b6000806200146584846200140b565b90506000808080600585600c8111156200147b57fe5b1415620014d8576200148c62001a3e565b6200149889896200181a565b6040808201516020808401516060909401516001600160a01b038086166000908152606b9093529390912054919850929650919450169150620015fc9050565b620014e262001a6e565b620014ee89896200186c565b80516040808201516020808401516060909401516001600160a01b038086166000908152606b9093529390912054919950929750919550169250905081620015fa57606954600160a01b900460ff166200155c5760405162461bcd60e51b8152600401620004dd9062002474565b6020808201518051910151604051620015759062001a97565b620015829291906200217a565b604051809103906000f0801580156200159f573d6000803e3d6000fd5b506001600160a01b038581166000818152606b602052604080822080546001600160a01b031916948616948517905551939550919290917faa19c94b56abf04a93a1f32d59067d3918d378afd32b2d1bea847773b7d08f3991a35b505b6040516340c10f1960e01b81526001600160a01b038216906340c10f19906200162c908790869060040162002103565b600060405180830381600087803b1580156200164757600080fd5b505af11580156200165c573d6000803e3d6000fd5b50505050806001600160a01b0316836001600160a01b03167fb1196fae12e56db8b0fc57623312e966cbf6b4a45adc9b3002df48577de9f3b184604051620016a5919062002127565b60405180910390a350919695505050505050565b600062000d218383620018be565b600062000d21836001600160a01b03841662001907565b60006200075b826200191f565b600062000d21836001600160a01b03841662001923565b60606200170e62001a3e565b6040805160a0810190915280608081018060058152508152602001866001600160a01b03168152602001856001600160a01b031681526020018481525090508060405160200162001760919062002739565b6040516020818303038152906040529150509392505050565b600062000d21836001600160a01b03841662001972565b600054610100900460ff1680620017ac5750620017ac62001352565b80620017bb575060005460ff16155b620017da5760405162461bcd60e51b8152600401620004dd9062002426565b600054610100900460ff16158015620013ef576000805460ff1961ff001990911661010017166001179055801562001402576000805461ff001916905550565b6200182462001a3e565b60056200183284846200140b565b600c8111156200183e57fe5b146200185e5760405162461bcd60e51b8152600401620004dd90620026c6565b62000d218284018462002051565b6200187662001a6e565b60066200188484846200140b565b600c8111156200189057fe5b14620018b05760405162461bcd60e51b8152600401620004dd9062002550565b62000d218284018462001f6d565b81546000908210620018e45760405162461bcd60e51b8152600401620004dd90620021da565b826000018281548110620018f457fe5b9060005260206000200154905092915050565b60009081526001919091016020526040902054151590565b5490565b600062001931838362001907565b62001969575081546001818101845560008481526020808220909301849055845484825282860190935260409020919091556200075b565b5060006200075b565b6000818152600183016020526040812054801562001a335783546000198083019190810190600090879083908110620019a757fe5b9060005260206000200154905080876000018481548110620019c557fe5b600091825260208083209091019290925582815260018981019092526040902090840190558654879080620019f657fe5b600190038181906000526020600020016000905590558660010160008781526020019081526020016000206000905560019450505050506200075b565b60009150506200075b565b604051806080016040528062001a5362001aa5565b81526000602082018190526040820181905260609091015290565b604051806040016040528062001a8362001a3e565b815260200162001a9262001ab9565b905290565b613445806200281e83390190565b604080516020810190915280600062001a92565b604051806040016040528060608152602001606081525090565b60008083601f84011262001ae5578182fd5b50813567ffffffffffffffff81111562001afd578182fd5b60208301915083602082850101111562001b1657600080fd5b9250929050565b8035600d81106200075b57600080fd5b600082601f83011262001b3e578081fd5b813567ffffffffffffffff81111562001b55578182fd5b62001b6a601f8201601f191660200162002782565b915080825283602082850101111562001b8257600080fd5b8060208401602084013760009082016020015292915050565b6000818303608081121562001bae578182fd5b62001bba608062002782565b9150602081121562001bcb57600080fd5b5062001bd8602062002782565b62001be4848462001b1d565b81528152602082013562001bf88162002807565b6020820152604082013562001c0d8162002807565b806040830152506060820135606082015292915050565b60006020828403121562001c36578081fd5b813562000d218162002807565b60006020828403121562001c55578081fd5b815162000d218162002807565b60008060006060848603121562001c77578182fd5b833562001c848162002807565b9250602084013562001c968162002807565b929592945050506040919091013590565b6000806040838503121562001cba578182fd5b823562001cc78162002807565b9150602083013562001cd98162002807565b809150509250929050565b60006020828403121562001cf6578081fd5b5035919050565b6000806040838503121562001d10578182fd5b82359150602083013562001cd98162002807565b6000806000806060858703121562001d3a578081fd5b84359350602085013562001d4e8162002807565b9250604085013567ffffffffffffffff81111562001d6a578182fd5b62001d788782880162001ad3565b95989497509550505050565b6000806040838503121562001d97578182fd5b50508035926020909101359150565b60006020828403121562001db8578081fd5b62000d21838362001b1d565b6000806020838503121562001dd7578182fd5b823567ffffffffffffffff81111562001dee578283fd5b62001dfc8582860162001ad3565b90969095509350505050565b60008060006040848603121562001e1d578081fd5b833567ffffffffffffffff81111562001e34578182fd5b62001e428682870162001ad3565b909450925050602084013562001e588162002807565b809150509250925092565b60008060008060006080868803121562001e7b578283fd5b853567ffffffffffffffff81111562001e92578384fd5b62001ea08882890162001ad3565b909650945050602086013562001eb68162002807565b9250604086013562001ec88162002807565b949793965091946060013592915050565b600080600080600060a0868803121562001ef1578283fd5b853567ffffffffffffffff81111562001f08578384fd5b62001f168882890162001b2d565b955050602086013562001f298162002807565b9350604086013562001f3b8162002807565b9250606086013562001f4d8162002807565b9150608086013562001f5f8162002807565b809150509295509295909350565b60006020828403121562001f7f578081fd5b813567ffffffffffffffff8082111562001f97578283fd5b9083019060a0828603121562001fab578283fd5b62001fb7604062002782565b62001fc3868462001b9b565b815260808301358281111562001fd7578485fd5b92909201916040838703121562001fec578384fd5b62001ff8604062002782565b83358381111562002007578586fd5b620020158882870162001b2d565b8252506020840135838111156200202a578586fd5b620020388882870162001b2d565b6020830152508060208301525080935050505092915050565b60006080828403121562002063578081fd5b62000d21838362001b9b565b6000815180845262002089816020860160208601620027d4565b601f01601f19169290920160200192915050565b6000828483379101908152919050565b60008251620020c1818460208701620027d4565b9190910192915050565b6001600160a01b0391909116815260200190565b6001600160a01b039384168152919092166020820152604081019190915260600190565b6001600160a01b03929092168252602082015260400190565b901515815260200190565b90815260200190565b8381526001600160a01b03831660208201526060604082018190526000906200215c908301846200206f565b95945050505050565b60006020825262000d2160208301846200206f565b6000604082526200218f60408301856200206f565b82810360208401526200215c81856200206f565b6020808252601f908201527f496e636f727265637420546f6b656e204d616e61676572206164647265737300604082015260600190565b60208082526022908201527f456e756d657261626c655365743a20696e646578206f7574206f6620626f756e604082015261647360f01b606082015260800190565b6020808252602f908201527f416363657373436f6e74726f6c3a2073656e646572206d75737420626520616e60408201526e0818591b5a5b881d1bc819dc985b9d608a1b606082015260800190565b6020808252601c908201527f53656e646572206973206e6f742061204d65737361676550726f787900000000604082015260600190565b6020808252601e908201527f44454641554c545f41444d494e5f524f4c452069732072657175697265640000604082015260600190565b60208082526030908201527f546869732066756e6374696f6e206973206e6f7420666f72207472616e73666560408201526f1c9c9a5b99c81d1bc813585a5b9b995d60821b606082015260800190565b60208082526018908201527f546f6b656e204d616e61676572206973206e6f74207365740000000000000000604082015260600190565b60208082526021908201527f4155544f4d415449435f4445504c4f595f524f4c4520697320726571756972656040820152601960fa1b606082015260800190565b60208082526030908201527f416363657373436f6e74726f6c3a2073656e646572206d75737420626520616e60408201526f2061646d696e20746f207265766f6b6560801b606082015260800190565b6020808252818101527f544f4b454e5f5245474953545241525f524f4c45206973207265717569726564604082015260600190565b6020808252602e908201527f496e697469616c697a61626c653a20636f6e747261637420697320616c72656160408201526d191e481a5b9a5d1a585b1a5e995960921b606082015260800190565b6020808252601c908201527f4175746f6d61746963206465706c6f792069732064697361626c656400000000604082015260600190565b6020808252601a908201527f496e636f72726563742072656365697665722061646472657373000000000000604082015260600190565b6020808252601f908201527f476976656e2061646472657373206973206e6f74206120636f6e747261637400604082015260600190565b60208082526018908201527f4e6f7420616c6c6f7765642045524337323120546f6b656e0000000000000000604082015260600190565b60208082526033908201527f4d6573736167652074797065206973206e6f7420455243373231207472616e73604082015272666572207769746820746f6b656e20696e666f60681b606082015260800190565b6020808252601b908201527f526563656976657220636861696e20697320696e636f72726563740000000000604082015260600190565b6020808252601c908201527f546f6b656e204d616e6167657220697320616c72656164792073657400000000604082015260600190565b6020808252601590820152742737ba1030baba3437b934bd32b21031b0b63632b960591b604082015260600190565b60208082526018908201527f4e6f20746f6b656e20636c6f6e65206f6e2073636861696e0000000000000000604082015260600190565b6020808252602f908201527f416363657373436f6e74726f6c3a2063616e206f6e6c792072656e6f756e636560408201526e103937b632b9903337b91039b2b63360891b606082015260800190565b60208082526023908201527f4d6573736167652074797065206973206e6f7420455243373231207472616e736040820152623332b960e91b606082015260800190565b60208082526016908201527526b2b9b9b0b3b2aa3cb8329034b9903ab735b737bbb760511b604082015260600190565b8151516080820190600d81106200274c57fe5b80835250602083015160018060a01b03808216602085015280604086015116604085015250506060830151606083015292915050565b60405181810167ffffffffffffffff81118282101715620027a257600080fd5b604052919050565b60008085851115620027ba578182fd5b83861115620027c7578182fd5b5050820193919092039150565b60005b83811015620027f1578181015183820152602001620027d7565b8381111562002801576000848401525b50505050565b6001600160a01b03811681146200140257600080fdfe60806040523480156200001157600080fd5b506040516200344538038062003445833981810160405260408110156200003757600080fd5b81019080805160405193929190846401000000008211156200005857600080fd5b9083019060208201858111156200006e57600080fd5b82516401000000008111828201881017156200008957600080fd5b82525081516020918201929091019080838360005b83811015620000b85781810151838201526020016200009e565b50505050905090810190601f168015620000e65780820380516001836020036101000a031916815260200191505b50604052602001805160405193929190846401000000008211156200010a57600080fd5b9083019060208201858111156200012057600080fd5b82516401000000008111828201881017156200013b57600080fd5b82525081516020918201929091019080838360005b838110156200016a57818101518382015260200162000150565b50505050905090810190601f168015620001985780820380516001836020036101000a031916815260200191505b50604052505050620001b46200022760201b620012c81760201c565b620001cb8282620002e560201b620013791760201c565b620001e0620003b160201b620014361760201c565b620001fb600080516020620034258339815191528062000459565b6200021f6000805160206200342583398151915262000219620004ab565b620004af565b50506200094a565b600054610100900460ff168062000243575062000243620004bf565b8062000252575060005460ff16155b6200028f5760405162461bcd60e51b815260040180806020018281038252602e815260200180620033f7602e913960400191505060405180910390fd5b600054610100900460ff16158015620002bb576000805460ff1961ff0019909116610100171660011790555b620002c5620004dd565b620002cf620004dd565b8015620002e2576000805461ff00191690555b50565b600054610100900460ff168062000301575062000301620004bf565b8062000310575060005460ff16155b6200034d5760405162461bcd60e51b815260040180806020018281038252602e815260200180620033f7602e913960400191505060405180910390fd5b600054610100900460ff1615801562000379576000805460ff1961ff0019909116610100171660011790555b62000383620004dd565b6200038d62000585565b6200039983836200062b565b8015620003ac576000805461ff00191690555b505050565b600054610100900460ff1680620003cd5750620003cd620004bf565b80620003dc575060005460ff16155b620004195760405162461bcd60e51b815260040180806020018281038252602e815260200180620033f7602e913960400191505060405180910390fd5b600054610100900460ff1615801562000445576000805460ff1961ff0019909116610100171660011790555b6200044f620004dd565b620002c562000585565b600082815260336020526040808220600201549051839285917fbd79b86ffe0ab8e8776151514217cd7cacd52c909f66475c3af44e129f0b00ff9190a460009182526033602052604090912060020155565b3390565b620004bb828262000721565b5050565b6000620004d7306200079c60201b620014d31760201c565b15905090565b600054610100900460ff1680620004f95750620004f9620004bf565b8062000508575060005460ff16155b620005455760405162461bcd60e51b815260040180806020018281038252602e815260200180620033f7602e913960400191505060405180910390fd5b600054610100900460ff16158015620002cf576000805460ff1961ff0019909116610100171660011790558015620002e2576000805461ff001916905550565b600054610100900460ff1680620005a15750620005a1620004bf565b80620005b0575060005460ff16155b620005ed5760405162461bcd60e51b815260040180806020018281038252602e815260200180620033f7602e913960400191505060405180910390fd5b600054610100900460ff1615801562000619576000805460ff1961ff0019909116610100171660011790555b620002cf6301ffc9a760e01b620007a2565b600054610100900460ff168062000647575062000647620004bf565b8062000656575060005460ff16155b620006935760405162461bcd60e51b815260040180806020018281038252602e815260200180620033f7602e913960400191505060405180910390fd5b600054610100900460ff16158015620006bf576000805460ff1961ff0019909116610100171660011790555b8251620006d490609c906020860190620008ae565b508151620006ea90609d906020850190620008ae565b50620006fd6380ac58cd60e01b620007a2565b6200070f635b5e139f60e01b620007a2565b6200039963780e9d6360e01b620007a2565b600082815260336020908152604090912062000748918390620014d962000827821b17901c565b15620004bb5762000758620004ab565b6001600160a01b0316816001600160a01b0316837f2f8788117e7eff1d82e926ec794901d17c78024a50270940304540a733656f0d60405160405180910390a45050565b3b151590565b6001600160e01b0319808216141562000802576040805162461bcd60e51b815260206004820152601c60248201527f4552433136353a20696e76616c696420696e7465726661636520696400000000604482015290519081900360640190fd5b6001600160e01b0319166000908152606560205260409020805460ff19166001179055565b60006200083e836001600160a01b03841662000847565b90505b92915050565b600062000855838362000896565b6200088d5750815460018181018455600084815260208082209093018490558454848252828601909352604090209190915562000841565b50600062000841565b60009081526001919091016020526040902054151590565b828054600181600116156101000203166002900490600052602060002090601f016020900481019282601f10620008f157805160ff191683800117855562000921565b8280016001018555821562000921579182015b828111156200092157825182559160200191906001019062000904565b506200092f92915062000933565b5090565b5b808211156200092f576000815560010162000934565b612a9d806200095a6000396000f3fe608060405234801561001057600080fd5b50600436106101cf5760003560e01c80634f6ccce711610104578063a217fddf116100a2578063ca15c87311610071578063ca15c873146106b2578063d5391393146106cf578063d547741f146106d7578063e985e9c514610703576101cf565b8063a217fddf14610599578063a22cb465146105a1578063b88d4fde146105cf578063c87b56dd14610695576101cf565b806370a08231116100de57806370a082311461051c5780639010d07c1461054257806391d148541461056557806395d89b4114610591576101cf565b80634f6ccce7146104da5780636352211e146104f75780636c0360eb14610514576101cf565b8063248a9ca31161017157806336568abe1161014b57806336568abe1461042f57806340c10f191461045b57806342842e0e1461048757806342966c68146104bd576101cf565b8063248a9ca3146103ba5780632f2ff15d146103d75780632f745c5914610403576101cf565b8063095ea7b3116101ad578063095ea7b3146102c5578063162094c4146102f357806318160ddd1461036a57806323b872dd14610384576101cf565b806301ffc9a7146101d457806306fdde031461020f578063081812fc1461028c575b600080fd5b6101fb600480360360208110156101ea57600080fd5b50356001600160e01b031916610731565b604080519115158252519081900360200190f35b610217610754565b6040805160208082528351818301528351919283929083019185019080838360005b83811015610251578181015183820152602001610239565b50505050905090810190601f16801561027e5780820380516001836020036101000a031916815260200191505b509250505060405180910390f35b6102a9600480360360208110156102a257600080fd5b50356107ea565b604080516001600160a01b039092168252519081900360200190f35b6102f1600480360360408110156102db57600080fd5b506001600160a01b03813516906020013561084c565b005b6101fb6004803603604081101561030957600080fd5b8135919081019060408101602082013564010000000081111561032b57600080fd5b82018360208201111561033d57600080fd5b8035906020019184600183028401116401000000008311171561035f57600080fd5b509092509050610927565b610372610a21565b60408051918252519081900360200190f35b6102f16004803603606081101561039a57600080fd5b506001600160a01b03813581169160208101359091169060400135610a32565b610372600480360360208110156103d057600080fd5b5035610a89565b6102f1600480360360408110156103ed57600080fd5b50803590602001356001600160a01b0316610a9e565b6103726004803603604081101561041957600080fd5b506001600160a01b038135169060200135610b0a565b6102f16004803603604081101561044557600080fd5b50803590602001356001600160a01b0316610b35565b6102f16004803603604081101561047157600080fd5b506001600160a01b038135169060200135610b96565b6102f16004803603606081101561049d57600080fd5b506001600160a01b03813581169160208101359091169060400135610c16565b6102f1600480360360208110156104d357600080fd5b5035610c31565b610372600480360360208110156104f057600080fd5b5035610c83565b6102a96004803603602081101561050d57600080fd5b5035610c99565b610217610cc1565b6103726004803603602081101561053257600080fd5b50356001600160a01b0316610d22565b6102a96004803603604081101561055857600080fd5b5080359060200135610d8a565b6101fb6004803603604081101561057b57600080fd5b50803590602001356001600160a01b0316610da2565b610217610dba565b610372610e1b565b6102f1600480360360408110156105b757600080fd5b506001600160a01b0381351690602001351515610e20565b6102f1600480360360808110156105e557600080fd5b6001600160a01b0382358116926020810135909116916040820135919081019060808101606082013564010000000081111561062057600080fd5b82018360208201111561063257600080fd5b8035906020019184600183028401116401000000008311171561065457600080fd5b91908080601f016020809104026020016040519081016040528093929190818152602001838380828437600092019190915250929550610f25945050505050565b610217600480360360208110156106ab57600080fd5b5035610f83565b610372600480360360208110156106c857600080fd5b5035611206565b61037261121d565b6102f1600480360360408110156106ed57600080fd5b50803590602001356001600160a01b0316611241565b6101fb6004803603604081101561071957600080fd5b506001600160a01b038135811691602001351661129a565b6001600160e01b0319811660009081526065602052604090205460ff165b919050565b609c8054604080516020601f60026000196101006001881615020190951694909404938401819004810282018101909252828152606093909290918301828280156107e05780601f106107b5576101008083540402835291602001916107e0565b820191906000526020600020905b8154815290600101906020018083116107c357829003601f168201915b5050505050905090565b60006107f5826114ee565b6108305760405162461bcd60e51b815260040180806020018281038252602c815260200180612907602c913960400191505060405180910390fd5b506000908152609a60205260409020546001600160a01b031690565b600061085782610c99565b9050806001600160a01b0316836001600160a01b031614156108aa5760405162461bcd60e51b81526004018080602001828103825260218152602001806129b76021913960400191505060405180910390fd5b806001600160a01b03166108bc6114fb565b6001600160a01b031614806108dd57506108dd816108d86114fb565b61129a565b6109185760405162461bcd60e51b815260040180806020018281038252603881526020018061282c6038913960400191505060405180910390fd5b61092283836114ff565b505050565b6000610932846114ee565b61097b576040805162461bcd60e51b8152602060048201526015602482015274546f6b656e20646f6573206e6f742065786973747360581b604482015290519081900360640190fd5b610985338561156d565b6109d6576040805162461bcd60e51b815260206004820152601c60248201527f53656e6465722063616e206e6f742073657420746f6b656e2055524900000000604482015290519081900360640190fd5b610a168484848080601f01602080910402602001604051908101604052809392919081815260200183838082843760009201919091525061161192505050565b5060015b9392505050565b6000610a2d6098611674565b905090565b610a43610a3d6114fb565b8261156d565b610a7e5760405162461bcd60e51b81526004018080602001828103825260318152602001806129d86031913960400191505060405180910390fd5b61092283838361167f565b60009081526033602052604090206002015490565b600082815260336020526040902060020154610ac190610abc6114fb565b610da2565b610afc5760405162461bcd60e51b815260040180806020018281038252602f81526020018061274b602f913960400191505060405180910390fd5b610b0682826117cb565b5050565b6001600160a01b0382166000908152609760205260408120610b2c9083611834565b90505b92915050565b610b3d6114fb565b6001600160a01b0316816001600160a01b031614610b8c5760405162461bcd60e51b815260040180806020018281038252602f815260200180612a39602f913960400191505060405180910390fd5b610b068282611840565b610bc27f9f2df0fed2c77648de5860a4cc508cd0818c85b8b8a1ab4ceeef8d981c8956a6610abc6114fb565b610c0c576040805162461bcd60e51b815260206004820152601660248201527529b2b73232b91034b9903737ba10309026b4b73a32b960511b604482015290519081900360640190fd5b610b0682826118a9565b61092283838360405180602001604052806000815250610f25565b610c3c610a3d6114fb565b610c775760405162461bcd60e51b8152600401808060200182810382526030815260200180612a096030913960400191505060405180910390fd5b610c80816119d7565b50565b600080610c91609884611aa4565b509392505050565b6000610b2f8260405180606001604052806029815260200161288e6029913960989190611ac0565b609f8054604080516020601f60026000196101006001881615020190951694909404938401819004810282018101909252828152606093909290918301828280156107e05780601f106107b5576101008083540402835291602001916107e0565b60006001600160a01b038216610d695760405162461bcd60e51b815260040180806020018281038252602a815260200180612864602a913960400191505060405180910390fd5b6001600160a01b0382166000908152609760205260409020610b2f90611674565b6000828152603360205260408120610b2c9083611834565b6000828152603360205260408120610b2c9083611acd565b609d8054604080516020601f60026000196101006001881615020190951694909404938401819004810282018101909252828152606093909290918301828280156107e05780601f106107b5576101008083540402835291602001916107e0565b600081565b610e286114fb565b6001600160a01b0316826001600160a01b03161415610e8e576040805162461bcd60e51b815260206004820152601960248201527f4552433732313a20617070726f766520746f2063616c6c657200000000000000604482015290519081900360640190fd5b80609b6000610e9b6114fb565b6001600160a01b03908116825260208083019390935260409182016000908120918716808252919093529120805460ff191692151592909217909155610edf6114fb565b6001600160a01b03167f17307eab39ab6107e8899845ad3d59bd9653f200f220920489ca2b5937696c318360405180821515815260200191505060405180910390a35050565b610f36610f306114fb565b8361156d565b610f715760405162461bcd60e51b81526004018080602001828103825260318152602001806129d86031913960400191505060405180910390fd5b610f7d84848484611ae2565b50505050565b6060610f8e826114ee565b610fc95760405162461bcd60e51b815260040180806020018281038252602f815260200180612988602f913960400191505060405180910390fd5b6000828152609e602090815260409182902080548351601f600260001961010060018616150201909316929092049182018490048402810184019094528084526060939283018282801561105e5780601f106110335761010080835404028352916020019161105e565b820191906000526020600020905b81548152906001019060200180831161104157829003601f168201915b50505050509050606061106f610cc1565b90508051600014156110835750905061074f565b8151156111445780826040516020018083805190602001908083835b602083106110be5780518252601f19909201916020918201910161109f565b51815160209384036101000a600019018019909216911617905285519190930192850191508083835b602083106111065780518252601f1990920191602091820191016110e7565b6001836020036101000a038019825116818451168082178552505050505050905001925050506040516020818303038152906040529250505061074f565b8061114e85611b34565b6040516020018083805190602001908083835b602083106111805780518252601f199092019160209182019101611161565b51815160209384036101000a600019018019909216911617905285519190930192850191508083835b602083106111c85780518252601f1990920191602091820191016111a9565b6001836020036101000a0380198251168184511680821785525050505050509050019250505060405160208183030381529060405292505050919050565b6000818152603360205260408120610b2f90611674565b7f9f2df0fed2c77648de5860a4cc508cd0818c85b8b8a1ab4ceeef8d981c8956a681565b60008281526033602052604090206002015461125f90610abc6114fb565b610b8c5760405162461bcd60e51b81526004018080602001828103825260308152602001806127fc6030913960400191505060405180910390fd5b6001600160a01b039182166000908152609b6020908152604080832093909416825291909152205460ff1690565b600054610100900460ff16806112e157506112e1611c0f565b806112ef575060005460ff16155b61132a5760405162461bcd60e51b815260040180806020018281038252602e8152602001806128b7602e913960400191505060405180910390fd5b600054610100900460ff16158015611355576000805460ff1961ff0019909116610100171660011790555b61135d611c20565b611365611c20565b8015610c80576000805461ff001916905550565b600054610100900460ff16806113925750611392611c0f565b806113a0575060005460ff16155b6113db5760405162461bcd60e51b815260040180806020018281038252602e8152602001806128b7602e913960400191505060405180910390fd5b600054610100900460ff16158015611406576000805460ff1961ff0019909116610100171660011790555b61140e611c20565b611416611cc0565b6114208383611d5d565b8015610922576000805461ff0019169055505050565b600054610100900460ff168061144f575061144f611c0f565b8061145d575060005460ff16155b6114985760405162461bcd60e51b815260040180806020018281038252602e8152602001806128b7602e913960400191505060405180910390fd5b600054610100900460ff161580156114c3576000805460ff1961ff0019909116610100171660011790555b6114cb611c20565b61135d611cc0565b3b151590565b6000610b2c836001600160a01b038416611e42565b6000610b2f609883611e8c565b3390565b6000818152609a6020526040902080546001600160a01b0319166001600160a01b038416908117909155819061153482610c99565b6001600160a01b03167f8c5be1e5ebec7d5bd14f71427d1e84f3dd0314c0f7b2291e5b200ac8c7c3b92560405160405180910390a45050565b6000611578826114ee565b6115b35760405162461bcd60e51b815260040180806020018281038252602c8152602001806127d0602c913960400191505060405180910390fd5b60006115be83610c99565b9050806001600160a01b0316846001600160a01b031614806115f95750836001600160a01b03166115ee846107ea565b6001600160a01b0316145b806116095750611609818561129a565b949350505050565b61161a826114ee565b6116555760405162461bcd60e51b815260040180806020018281038252602c815260200180612933602c913960400191505060405180910390fd5b6000828152609e60209081526040909120825161092292840190612655565b6000610b2f82611e98565b826001600160a01b031661169282610c99565b6001600160a01b0316146116d75760405162461bcd60e51b815260040180806020018281038252602981526020018061295f6029913960400191505060405180910390fd5b6001600160a01b03821661171c5760405162461bcd60e51b81526004018080602001828103825260248152602001806127ac6024913960400191505060405180910390fd5b611727838383610922565b6117326000826114ff565b6001600160a01b03831660009081526097602052604090206117549082611e9c565b506001600160a01b03821660009081526097602052604090206117779082611ea8565b5061178460988284611eb4565b5080826001600160a01b0316846001600160a01b03167fddf252ad1be2c89b69c2b068fc378daa952ba7f163c4a11628f55a4df523b3ef60405160405180910390a4505050565b60008281526033602052604090206117e390826114d9565b15610b06576117f06114fb565b6001600160a01b0316816001600160a01b0316837f2f8788117e7eff1d82e926ec794901d17c78024a50270940304540a733656f0d60405160405180910390a45050565b6000610b2c8383611eca565b60008281526033602052604090206118589082611f2e565b15610b06576118656114fb565b6001600160a01b0316816001600160a01b0316837ff6391f5c32d9c69d2a47ea670b442974b53935d1edc7fd64eb21e047a839171b60405160405180910390a45050565b6001600160a01b038216611904576040805162461bcd60e51b815260206004820181905260248201527f4552433732313a206d696e7420746f20746865207a65726f2061646472657373604482015290519081900360640190fd5b61190d816114ee565b1561195f576040805162461bcd60e51b815260206004820152601c60248201527f4552433732313a20746f6b656e20616c7265616479206d696e74656400000000604482015290519081900360640190fd5b61196b60008383610922565b6001600160a01b038216600090815260976020526040902061198d9082611ea8565b5061199a60988284611eb4565b5060405181906001600160a01b038416906000907fddf252ad1be2c89b69c2b068fc378daa952ba7f163c4a11628f55a4df523b3ef908290a45050565b60006119e282610c99565b90506119f081600084610922565b6119fb6000836114ff565b6000828152609e60205260409020546002600019610100600184161502019091160415611a39576000828152609e60205260408120611a39916126d3565b6001600160a01b0381166000908152609760205260409020611a5b9083611e9c565b50611a67609883611f43565b5060405182906000906001600160a01b038416907fddf252ad1be2c89b69c2b068fc378daa952ba7f163c4a11628f55a4df523b3ef908390a45050565b6000808080611ab38686611f4f565b9097909650945050505050565b6000611609848484611fca565b6000610b2c836001600160a01b038416612094565b611aed84848461167f565b611af9848484846120ac565b610f7d5760405162461bcd60e51b815260040180806020018281038252603281526020018061277a6032913960400191505060405180910390fd5b606081611b5957506040805180820190915260018152600360fc1b602082015261074f565b8160005b8115611b7157600101600a82049150611b5d565b60608167ffffffffffffffff81118015611b8a57600080fd5b506040519080825280601f01601f191660200182016040528015611bb5576020820181803683370190505b50859350905060001982015b8315611c0657600a840660300160f81b82828060019003935081518110611be457fe5b60200101906001600160f81b031916908160001a905350600a84049350611bc1565b50949350505050565b6000611c1a306114d3565b15905090565b600054610100900460ff1680611c395750611c39611c0f565b80611c47575060005460ff16155b611c825760405162461bcd60e51b815260040180806020018281038252602e8152602001806128b7602e913960400191505060405180910390fd5b600054610100900460ff16158015611365576000805460ff1961ff0019909116610100171660011790558015610c80576000805461ff001916905550565b600054610100900460ff1680611cd95750611cd9611c0f565b80611ce7575060005460ff16155b611d225760405162461bcd60e51b815260040180806020018281038252602e8152602001806128b7602e913960400191505060405180910390fd5b600054610100900460ff16158015611d4d576000805460ff1961ff0019909116610100171660011790555b6113656301ffc9a760e01b612214565b600054610100900460ff1680611d765750611d76611c0f565b80611d84575060005460ff16155b611dbf5760405162461bcd60e51b815260040180806020018281038252602e8152602001806128b7602e913960400191505060405180910390fd5b600054610100900460ff16158015611dea576000805460ff1961ff0019909116610100171660011790555b8251611dfd90609c906020860190612655565b508151611e1190609d906020850190612655565b50611e226380ac58cd60e01b612214565b611e32635b5e139f60e01b612214565b61142063780e9d6360e01b612214565b6000611e4e8383612094565b611e8457508154600181810184556000848152602080822090930184905584548482528286019093526040902091909155610b2f565b506000610b2f565b6000610b2c8383612094565b5490565b6000610b2c8383612298565b6000610b2c8383611e42565b600061160984846001600160a01b03851661235e565b81546000908210611f0c5760405162461bcd60e51b81526004018080602001828103825260228152602001806127296022913960400191505060405180910390fd5b826000018281548110611f1b57fe5b9060005260206000200154905092915050565b6000610b2c836001600160a01b038416612298565b6000610b2c83836123f5565b815460009081908310611f935760405162461bcd60e51b81526004018080602001828103825260228152602001806128e56022913960400191505060405180910390fd5b6000846000018481548110611fa457fe5b906000526020600020906002020190508060000154816001015492509250509250929050565b600082815260018401602052604081205482816120655760405162461bcd60e51b81526004018080602001828103825283818151815260200191508051906020019080838360005b8381101561202a578181015183820152602001612012565b50505050905090810190601f1680156120575780820380516001836020036101000a031916815260200191505b509250505060405180910390fd5b5084600001600182038154811061207857fe5b9060005260206000209060020201600101549150509392505050565b60009081526001919091016020526040902054151590565b60006120c0846001600160a01b03166114d3565b6120cc57506001611609565b60606121da630a85bd0160e11b6120e16114fb565b88878760405160240180856001600160a01b03168152602001846001600160a01b0316815260200183815260200180602001828103825283818151815260200191508051906020019080838360005b83811015612148578181015183820152602001612130565b50505050905090810190601f1680156121755780820380516001836020036101000a031916815260200191505b5095505050505050604051602081830303815290604052906001600160e01b0319166020820180516001600160e01b03838183161783525050505060405180606001604052806032815260200161277a603291396001600160a01b03881691906124c9565b905060008180602001905160208110156121f357600080fd5b50516001600160e01b031916630a85bd0160e11b1492505050949350505050565b6001600160e01b03198082161415612273576040805162461bcd60e51b815260206004820152601c60248201527f4552433136353a20696e76616c696420696e7465726661636520696400000000604482015290519081900360640190fd5b6001600160e01b0319166000908152606560205260409020805460ff19166001179055565b6000818152600183016020526040812054801561235457835460001980830191908101906000908790839081106122cb57fe5b90600052602060002001549050808760000184815481106122e857fe5b60009182526020808320909101929092558281526001898101909252604090209084019055865487908061231857fe5b60019003818190600052602060002001600090559055866001016000878152602001908152602001600020600090556001945050505050610b2f565b6000915050610b2f565b6000828152600184016020526040812054806123c3575050604080518082018252838152602080820184815286546001818101895560008981528481209551600290930290950191825591519082015586548684528188019092529290912055610a1a565b828560000160018303815481106123d657fe5b9060005260206000209060020201600101819055506000915050610a1a565b60008181526001830160205260408120548015612354578354600019808301919081019060009087908390811061242857fe5b906000526020600020906002020190508087600001848154811061244857fe5b60009182526020808320845460029093020191825560019384015491840191909155835482528983019052604090209084019055865487908061248757fe5b6000828152602080822060026000199094019384020182815560019081018390559290935588815289820190925260408220919091559450610b2f9350505050565b60606116098484600085856124dd856114d3565b61252e576040805162461bcd60e51b815260206004820152601d60248201527f416464726573733a2063616c6c20746f206e6f6e2d636f6e7472616374000000604482015290519081900360640190fd5b60006060866001600160a01b031685876040518082805190602001908083835b6020831061256d5780518252601f19909201916020918201910161254e565b6001836020036101000a03801982511681845116808217855250505050505090500191505060006040518083038185875af1925050503d80600081146125cf576040519150601f19603f3d011682016040523d82523d6000602084013e6125d4565b606091505b50915091506125e48282866125ef565b979650505050505050565b606083156125fe575081610a1a565b82511561260e5782518084602001fd5b60405162461bcd60e51b815260206004820181815284516024840152845185939192839260440191908501908083836000831561202a578181015183820152602001612012565b828054600181600116156101000203166002900490600052602060002090601f016020900481019282601f1061269657805160ff19168380011785556126c3565b828001600101855582156126c3579182015b828111156126c35782518255916020019190600101906126a8565b506126cf929150612713565b5090565b50805460018160011615610100020316600290046000825580601f106126f95750610c80565b601f016020900490600052602060002090810190610c8091905b5b808211156126cf576000815560010161271456fe456e756d657261626c655365743a20696e646578206f7574206f6620626f756e6473416363657373436f6e74726f6c3a2073656e646572206d75737420626520616e2061646d696e20746f206772616e744552433732313a207472616e7366657220746f206e6f6e20455243373231526563656976657220696d706c656d656e7465724552433732313a207472616e7366657220746f20746865207a65726f20616464726573734552433732313a206f70657261746f7220717565727920666f72206e6f6e6578697374656e7420746f6b656e416363657373436f6e74726f6c3a2073656e646572206d75737420626520616e2061646d696e20746f207265766f6b654552433732313a20617070726f76652063616c6c6572206973206e6f74206f776e6572206e6f7220617070726f76656420666f7220616c6c4552433732313a2062616c616e636520717565727920666f7220746865207a65726f20616464726573734552433732313a206f776e657220717565727920666f72206e6f6e6578697374656e7420746f6b656e496e697469616c697a61626c653a20636f6e747261637420697320616c726561647920696e697469616c697a6564456e756d657261626c654d61703a20696e646578206f7574206f6620626f756e64734552433732313a20617070726f76656420717565727920666f72206e6f6e6578697374656e7420746f6b656e4552433732314d657461646174613a2055524920736574206f66206e6f6e6578697374656e7420746f6b656e4552433732313a207472616e73666572206f6620746f6b656e2074686174206973206e6f74206f776e4552433732314d657461646174613a2055524920717565727920666f72206e6f6e6578697374656e7420746f6b656e4552433732313a20617070726f76616c20746f2063757272656e74206f776e65724552433732313a207472616e736665722063616c6c6572206973206e6f74206f776e6572206e6f7220617070726f7665644552433732314275726e61626c653a2063616c6c6572206973206e6f74206f776e6572206e6f7220617070726f766564416363657373436f6e74726f6c3a2063616e206f6e6c792072656e6f756e636520726f6c657320666f722073656c66a26469706673582212206cfed4af0d06c86fc24af2eff048829ddbcce69495200e80936dbbfb68bcbc3964736f6c634300060c0033496e697469616c697a61626c653a20636f6e747261637420697320616c726561647920696e697469616c697a65649f2df0fed2c77648de5860a4cc508cd0818c85b8b8a1ab4ceeef8d981c8956a67164765a3c8bd2513bdfa0c90f1bee9606e920fbf2c9071f310263fbd818684ba2646970667358221220469b7851d5bfd5ad0528576b385cb20fb6d257127cd7edd5673dfbc19b63e3bf64736f6c634300060c0033",
  "linkReferences": {},
  "deployedLinkReferences": {}
}