{
  "_format": "hh-sol-artifact-1",
  "contractName": "MessageProxyForSchain",
  "sourceName": "contracts/schain/MessageProxyForSchain.sol",
  "abi": [
    {
      "anonymous": false,
      "inputs": [
        {
          "indexed": true,
          "internalType": "bytes32",
          "name": "dstChainHash",
          "type": "bytes32"
        },
        {
          "indexed": true,
          "internalType": "uint256",
          "name": "msgCounter",
          "type": "uint256"
        },
        {
          "indexed": true,
          "internalType": "address",
          "name": "srcContract",
          "type": "address"
        },
        {
          "indexed": false,
          "internalType": "address",
          "name": "dstContract",
          "type": "address"
        },
        {
          "indexed": false,
          "internalType": "bytes",
          "name": "data",
          "type": "bytes"
        }
      ],
      "name": "OutgoingMessage",
      "type": "event"
    },
    {
      "anonymous": false,
      "inputs": [
        {
          "indexed": true,
          "internalType": "uint256",
          "name": "msgCounter",
          "type": "uint256"
        },
        {
          "indexed": false,
          "internalType": "bytes",
          "name": "message",
          "type": "bytes"
        }
      ],
      "name": "PostMessageError",
      "type": "event"
    },
    {
      "anonymous": false,
      "inputs": [
        {
          "indexed": true,
          "internalType": "bytes32",
          "name": "role",
          "type": "bytes32"
        },
        {
          "indexed": true,
          "internalType": "bytes32",
          "name": "previousAdminRole",
          "type": "bytes32"
        },
        {
          "indexed": true,
          "internalType": "bytes32",
          "name": "newAdminRole",
          "type": "bytes32"
        }
      ],
      "name": "RoleAdminChanged",
      "type": "event"
    },
    {
      "anonymous": false,
      "inputs": [
        {
          "indexed": true,
          "internalType": "bytes32",
          "name": "role",
          "type": "bytes32"
        },
        {
          "indexed": true,
          "internalType": "address",
          "name": "account",
          "type": "address"
        },
        {
          "indexed": true,
          "internalType": "address",
          "name": "sender",
          "type": "address"
        }
      ],
      "name": "RoleGranted",
      "type": "event"
    },
    {
      "anonymous": false,
      "inputs": [
        {
          "indexed": true,
          "internalType": "bytes32",
          "name": "role",
          "type": "bytes32"
        },
        {
          "indexed": true,
          "internalType": "address",
          "name": "account",
          "type": "address"
        },
        {
          "indexed": true,
          "internalType": "address",
          "name": "sender",
          "type": "address"
        }
      ],
      "name": "RoleRevoked",
      "type": "event"
    },
    {
      "inputs": [],
      "name": "CHAIN_CONNECTOR_ROLE",
      "outputs": [
        {
          "internalType": "bytes32",
          "name": "",
          "type": "bytes32"
        }
      ],
      "stateMutability": "view",
      "type": "function"
    },
    {
      "inputs": [],
      "name": "CONSTANT_SETTER_ROLE",
      "outputs": [
        {
          "internalType": "bytes32",
          "name": "",
          "type": "bytes32"
        }
      ],
      "stateMutability": "view",
      "type": "function"
    },
    {
      "inputs": [],
      "name": "DEFAULT_ADMIN_ROLE",
      "outputs": [
        {
          "internalType": "bytes32",
          "name": "",
          "type": "bytes32"
        }
      ],
      "stateMutability": "view",
      "type": "function"
    },
    {
      "inputs": [],
      "name": "EXTRA_CONTRACT_REGISTRAR_ROLE",
      "outputs": [
        {
          "internalType": "bytes32",
          "name": "",
          "type": "bytes32"
        }
      ],
      "stateMutability": "view",
      "type": "function"
    },
    {
      "inputs": [
        {
          "internalType": "string",
          "name": "chainName",
          "type": "string"
        }
      ],
      "name": "addConnectedChain",
      "outputs": [],
      "stateMutability": "nonpayable",
      "type": "function"
    },
    {
      "inputs": [
        {
          "internalType": "bytes32",
          "name": "",
          "type": "bytes32"
        }
      ],
      "name": "connectedChains",
      "outputs": [
        {
          "internalType": "uint256",
          "name": "incomingMessageCounter",
          "type": "uint256"
        },
        {
          "internalType": "uint256",
          "name": "outgoingMessageCounter",
          "type": "uint256"
        },
        {
          "internalType": "bool",
          "name": "inited",
          "type": "bool"
        }
      ],
      "stateMutability": "view",
      "type": "function"
    },
    {
      "inputs": [],
      "name": "gasLimit",
      "outputs": [
        {
          "internalType": "uint256",
          "name": "",
          "type": "uint256"
        }
      ],
      "stateMutability": "view",
      "type": "function"
    },
    {
      "inputs": [
        {
          "internalType": "string",
          "name": "fromSchainName",
          "type": "string"
        }
      ],
      "name": "getIncomingMessagesCounter",
      "outputs": [
        {
          "internalType": "uint256",
          "name": "",
          "type": "uint256"
        }
      ],
      "stateMutability": "view",
      "type": "function"
    },
    {
      "inputs": [
        {
          "internalType": "string",
          "name": "targetSchainName",
          "type": "string"
        }
      ],
      "name": "getOutgoingMessagesCounter",
      "outputs": [
        {
          "internalType": "uint256",
          "name": "",
          "type": "uint256"
        }
      ],
      "stateMutability": "view",
      "type": "function"
    },
    {
      "inputs": [
        {
          "internalType": "bytes32",
          "name": "role",
          "type": "bytes32"
        }
      ],
      "name": "getRoleAdmin",
      "outputs": [
        {
          "internalType": "bytes32",
          "name": "",
          "type": "bytes32"
        }
      ],
      "stateMutability": "view",
      "type": "function"
    },
    {
      "inputs": [
        {
          "internalType": "bytes32",
          "name": "role",
          "type": "bytes32"
        },
        {
          "internalType": "uint256",
          "name": "index",
          "type": "uint256"
        }
      ],
      "name": "getRoleMember",
      "outputs": [
        {
          "internalType": "address",
          "name": "",
          "type": "address"
        }
      ],
      "stateMutability": "view",
      "type": "function"
    },
    {
      "inputs": [
        {
          "internalType": "bytes32",
          "name": "role",
          "type": "bytes32"
        }
      ],
      "name": "getRoleMemberCount",
      "outputs": [
        {
          "internalType": "uint256",
          "name": "",
          "type": "uint256"
        }
      ],
      "stateMutability": "view",
      "type": "function"
    },
    {
      "inputs": [
        {
          "internalType": "bytes32",
          "name": "role",
          "type": "bytes32"
        },
        {
          "internalType": "address",
          "name": "account",
          "type": "address"
        }
      ],
      "name": "grantRole",
      "outputs": [],
      "stateMutability": "nonpayable",
      "type": "function"
    },
    {
      "inputs": [
        {
          "internalType": "bytes32",
          "name": "role",
          "type": "bytes32"
        },
        {
          "internalType": "address",
          "name": "account",
          "type": "address"
        }
      ],
      "name": "hasRole",
      "outputs": [
        {
          "internalType": "bool",
          "name": "",
          "type": "bool"
        }
      ],
      "stateMutability": "view",
      "type": "function"
    },
    {
      "inputs": [
        {
          "internalType": "contract KeyStorage",
          "name": "blsKeyStorage",
          "type": "address"
        },
        {
          "internalType": "string",
          "name": "schainName",
          "type": "string"
        }
      ],
      "name": "initialize",
      "outputs": [],
      "stateMutability": "nonpayable",
      "type": "function"
    },
    {
      "inputs": [
        {
          "internalType": "string",
          "name": "schainName",
          "type": "string"
        }
      ],
      "name": "isConnectedChain",
      "outputs": [
        {
          "internalType": "bool",
          "name": "",
          "type": "bool"
        }
      ],
      "stateMutability": "view",
      "type": "function"
    },
    {
      "inputs": [
        {
          "internalType": "string",
          "name": "schainName",
          "type": "string"
        },
        {
          "internalType": "address",
          "name": "contractAddress",
          "type": "address"
        }
      ],
      "name": "isContractRegistered",
      "outputs": [
        {
          "internalType": "bool",
          "name": "",
          "type": "bool"
        }
      ],
      "stateMutability": "view",
      "type": "function"
    },
    {
      "inputs": [],
      "name": "keyStorage",
      "outputs": [
        {
          "internalType": "contract KeyStorage",
          "name": "",
          "type": "address"
        }
      ],
      "stateMutability": "view",
      "type": "function"
    },
    {
      "inputs": [
        {
          "internalType": "string",
          "name": "fromChainName",
          "type": "string"
        },
        {
          "internalType": "uint256",
          "name": "startingCounter",
          "type": "uint256"
        },
        {
          "components": [
            {
              "internalType": "address",
              "name": "sender",
              "type": "address"
            },
            {
              "internalType": "address",
              "name": "destinationContract",
              "type": "address"
            },
            {
              "internalType": "bytes",
              "name": "data",
              "type": "bytes"
            }
          ],
          "internalType": "struct MessageProxyForSchain.Message[]",
          "name": "messages",
          "type": "tuple[]"
        },
        {
          "components": [
            {
              "internalType": "uint256[2]",
              "name": "blsSignature",
              "type": "uint256[2]"
            },
            {
              "internalType": "uint256",
              "name": "hashA",
              "type": "uint256"
            },
            {
              "internalType": "uint256",
              "name": "hashB",
              "type": "uint256"
            },
            {
              "internalType": "uint256",
              "name": "counter",
              "type": "uint256"
            }
          ],
          "internalType": "struct MessageProxyForSchain.Signature",
          "name": "signature",
          "type": "tuple"
        }
      ],
      "name": "postIncomingMessages",
      "outputs": [],
      "stateMutability": "nonpayable",
      "type": "function"
    },
    {
      "inputs": [
        {
          "internalType": "bytes32",
          "name": "targetChainHash",
          "type": "bytes32"
        },
        {
          "internalType": "address",
          "name": "dstContract",
          "type": "address"
        },
        {
          "internalType": "bytes",
          "name": "data",
          "type": "bytes"
        }
      ],
      "name": "postOutgoingMessage",
      "outputs": [],
      "stateMutability": "nonpayable",
      "type": "function"
    },
    {
      "inputs": [
        {
          "internalType": "string",
          "name": "schainName",
          "type": "string"
        },
        {
          "internalType": "address",
          "name": "contractOnSchain",
          "type": "address"
        }
      ],
      "name": "registerExtraContract",
      "outputs": [],
      "stateMutability": "nonpayable",
      "type": "function"
    },
    {
      "inputs": [
        {
          "internalType": "address",
          "name": "contractOnSchain",
          "type": "address"
        }
      ],
      "name": "registerExtraContractForAll",
      "outputs": [],
      "stateMutability": "nonpayable",
      "type": "function"
    },
    {
      "inputs": [
        {
          "internalType": "bytes32",
          "name": "",
          "type": "bytes32"
        },
        {
          "internalType": "address",
          "name": "",
          "type": "address"
        }
      ],
      "name": "registryContracts",
      "outputs": [
        {
          "internalType": "bool",
          "name": "",
          "type": "bool"
        }
      ],
      "stateMutability": "view",
      "type": "function"
    },
    {
      "inputs": [
        {
          "internalType": "string",
          "name": "schainName",
          "type": "string"
        }
      ],
      "name": "removeConnectedChain",
      "outputs": [],
      "stateMutability": "nonpayable",
      "type": "function"
    },
    {
      "inputs": [
        {
          "internalType": "string",
          "name": "schainName",
          "type": "string"
        },
        {
          "internalType": "address",
          "name": "contractOnSchain",
          "type": "address"
        }
      ],
      "name": "removeExtraContract",
      "outputs": [],
      "stateMutability": "nonpayable",
      "type": "function"
    },
    {
      "inputs": [
        {
          "internalType": "address",
          "name": "contractOnSchain",
          "type": "address"
        }
      ],
      "name": "removeExtraContractForAll",
      "outputs": [],
      "stateMutability": "nonpayable",
      "type": "function"
    },
    {
      "inputs": [
        {
          "internalType": "bytes32",
          "name": "role",
          "type": "bytes32"
        },
        {
          "internalType": "address",
          "name": "account",
          "type": "address"
        }
      ],
      "name": "renounceRole",
      "outputs": [],
      "stateMutability": "nonpayable",
      "type": "function"
    },
    {
      "inputs": [
        {
          "internalType": "bytes32",
          "name": "role",
          "type": "bytes32"
        },
        {
          "internalType": "address",
          "name": "account",
          "type": "address"
        }
      ],
      "name": "revokeRole",
      "outputs": [],
      "stateMutability": "nonpayable",
      "type": "function"
    },
    {
      "inputs": [],
      "name": "schainHash",
      "outputs": [
        {
          "internalType": "bytes32",
          "name": "",
          "type": "bytes32"
        }
      ],
      "stateMutability": "view",
      "type": "function"
    },
    {
      "inputs": [
        {
          "internalType": "uint256",
          "name": "newGasLimit",
          "type": "uint256"
        }
      ],
      "name": "setNewGasLimit",
      "outputs": [],
      "stateMutability": "nonpayable",
      "type": "function"
    },
    {
      "inputs": [
        {
          "components": [
            {
              "internalType": "bytes32",
              "name": "dstChain",
              "type": "bytes32"
            },
            {
              "internalType": "uint256",
              "name": "msgCounter",
              "type": "uint256"
            },
            {
              "internalType": "address",
              "name": "srcContract",
              "type": "address"
            },
            {
              "internalType": "address",
              "name": "dstContract",
              "type": "address"
            },
            {
              "internalType": "bytes",
              "name": "data",
              "type": "bytes"
            }
          ],
          "internalType": "struct MessageProxyForSchain.OutgoingMessageData",
          "name": "message",
          "type": "tuple"
        }
      ],
      "name": "verifyOutgoingMessageData",
      "outputs": [
        {
          "internalType": "bool",
          "name": "isValidMessage",
          "type": "bool"
        }
      ],
      "stateMutability": "view",
      "type": "function"
    }
  ],
  "bytecode": "0x608060405234801561001057600080fd5b506132a0806100206000396000f3fe608060405234801561001057600080fd5b50600436106101e55760003560e01c806391d148541161010f578063d547741f116100a2578063f399e22e11610071578063f399e22e146103f5578063f68016b714610408578063f79f795414610410578063f8c88a1614610418576101e5565b8063d547741f1461039a578063e356a6f9146103ad578063e6ab8403146103c0578063f2f63605146103e2576101e5565b8063a8bb1b7d116100de578063a8bb1b7d14610359578063bbc4e8c21461036c578063ca15c87314610374578063cab010c914610387576101e5565b806391d1485414610318578063944892021461032b578063999ab9aa1461033e578063a217fddf14610351576101e5565b80634d2038591161018757806377fe0f311161015657806377fe0f31146102b25780637aa38a7c146102c55780637c5ad80c146102e55780639010d07c146102f8576101e5565b80634d20385914610271578063523c8ab614610284578063603e5d131461028c57806367ec60201461029f576101e5565b806336568abe116101c357806336568abe146102305780633b597ffe146102435780633b690b6b146102565780633cdd2cc31461025e576101e5565b806313c52260146101ea578063248a9ca3146102085780632f2ff15d1461021b575b600080fd5b6101f261042b565b6040516101ff919061280a565b60405180910390f35b6101f26102163660046123ae565b61044f565b61022e6102293660046123c6565b610464565b005b61022e61023e3660046123c6565b6104b5565b61022e6102513660046123ae565b6104f7565b6101f2610542565b61022e61026c3660046124be565b610548565b61022e61027f366004612376565b610658565b6101f2610731565b61022e61029a366004612553565b610743565b6101f26102ad3660046124be565b61086e565b6101f26102c03660046124be565b6108db565b6102d86102d3366004612647565b610943565b6040516101ff91906127ff565b6102d86102f33660046123c6565b61097d565b61030b61030636600461244f565b61099d565b6040516101ff91906127c7565b6102d86103263660046123c6565b6109bc565b61022e6103393660046123f5565b6109d4565b6102d861034c3660046124be565b610b0f565b6101f2610b5b565b61022e610367366004612376565b610b60565b6101f2610c35565b6101f26103823660046123ae565b610c59565b61022e6103953660046124fe565b610c70565b61022e6103a83660046123c6565b610db9565b6102d86103bb3660046124fe565b610df3565b6103d36103ce3660046123ae565b610e81565b6040516101ff93929190613085565b61022e6103f03660046124be565b610ea5565b61022e610403366004612470565b610fbe565b6101f261111b565b61030b611121565b61022e6104263660046124fe565b611130565b7f2785f35fe7d8743aa971942d8474737bb31895d396eff2cc688a481e0221e19181565b60009081526033602052604090206002015490565b6000828152603360205260409020600201546104829061032661122f565b6104a75760405162461bcd60e51b815260040161049e90612935565b60405180910390fd5b6104b18282611234565b5050565b6104bd61122f565b6001600160a01b0316816001600160a01b0316146104ed5760405162461bcd60e51b815260040161049e90613036565b6104b1828261129d565b6105217f96e3fc3be15159903e053027cff8a23f39a990e0194abcd8ac1cf1b355b8b93c336109bc565b61053d5760405162461bcd60e51b815260040161049e90612a5a565b606c55565b60665481565b6105727f2785f35fe7d8743aa971942d8474737bb31895d396eff2cc688a481e0221e191336109bc565b61058e5760405162461bcd60e51b815260040161049e90612aa0565b600082826040516020016105a3929190612788565b6040516020818303038152906040528051906020012090506040516020016105ca906127b4565b604051602081830303815290604052805190602001208114156105ff5760405162461bcd60e51b815260040161049e90612fed565b60008181526067602052604090206002015460ff166106305760405162461bcd60e51b815260040161049e90612e63565b60009081526067602052604081208181556001810191909155600201805460ff191690555050565b61067060008051602061320b833981519152336109bc565b61068c5760405162461bcd60e51b815260040161049e90612984565b61069e816001600160a01b0316611306565b6106ba5760405162461bcd60e51b815260040161049e90612f15565b6001600160a01b038116600090815260008051602061324b833981519152602052604090205460ff16156107005760405162461bcd60e51b815260040161049e90612fa9565b6001600160a01b0316600090815260008051602061324b83398151915260205260409020805460ff19166001179055565b60008051602061320b83398151915281565b60008686604051602001610758929190612788565b60405160208183030381529060405280519060200120905061078361077d858561130c565b836113fb565b61079f5760405162461bcd60e51b815260040161049e90612c22565b60008181526067602052604090206002015460ff166107d05760405162461bcd60e51b815260040161049e90612e63565b60008181526067602052604090205485146107fd5760405162461bcd60e51b815260040161049e90612cc7565b60005b8381101561083c576108338286868481811061081857fe5b905060200281019061082a91906130e2565b886001016114a8565b50600101610800565b506000818152606760205260409020546108569084611616565b60009182526067602052604090912055505050505050565b6000808383604051602001610884929190612788565b60408051601f1981840301815291815281516020928301206000818152606790935291206002015490915060ff166108c05760009150506108d5565b60009081526067602052604090206001015490505b92915050565b60008083836040516020016108f1929190612788565b60408051601f1981840301815291815281516020928301206000818152606790935291206002015490915060ff1661092d5760009150506108d5565b6000908152606760205260409020549392505050565b8051600090815260686020908152604080832082850151845290915281205461096b8361163b565b81141561097757600191505b50919050565b606b60209081526000928352604080842090915290825290205460ff1681565b60008281526033602052604081206109b590836116a8565b9392505050565b60008281526033602052604081206109b590836116b4565b60008481526067602052604090206002015460ff16610a055760405162461bcd60e51b815260040161049e90612dc3565b33600090815260008051602061324b833981519152602052604090205460ff1680610a4957506000848152606b6020908152604080832033845290915290205460ff165b610a655760405162461bcd60e51b815260040161049e90612a19565b6000848152606760205260409020600190810154610a8291611616565b6000858152606760208181526040808420600101859055805160a081018252898152938990529181526000199093018284015233828201526001600160a01b03861660608301528051601f8501849004840281018401909152838152610b0992608083019190869086908190840183828082843760009201919091525050509152506116c9565b50505050565b6000606760008484604051602001610b28929190612788565b60408051808303601f190181529181528151602092830120835290820192909252016000206002015460ff169392505050565b600081565b610b7860008051602061320b833981519152336109bc565b610b945760405162461bcd60e51b815260040161049e90612f4c565b610ba6816001600160a01b0316611306565b610bc25760405162461bcd60e51b815260040161049e90612f15565b6001600160a01b038116600090815260008051602061324b833981519152602052604090205460ff16610c075760405162461bcd60e51b815260040161049e90612b9b565b6001600160a01b0316600090815260008051602061324b83398151915260205260409020805460ff19169055565b7f96e3fc3be15159903e053027cff8a23f39a990e0194abcd8ac1cf1b355b8b93c81565b60008181526033602052604081206108d59061177b565b60008383604051602001610c85929190612788565b604051602081830303815290604052805190602001209050610cb560008051602061320b833981519152336109bc565b610cd15760405162461bcd60e51b815260040161049e90612d24565b610ce3826001600160a01b0316611306565b610cff5760405162461bcd60e51b815260040161049e90612f15565b6000818152606b602090815260408083206001600160a01b038616845290915290205460ff1615610d425760405162461bcd60e51b815260040161049e90612fa9565b6001600160a01b038216600090815260008051602061324b833981519152602052604090205460ff1615610d885760405162461bcd60e51b815260040161049e90612ec2565b6000908152606b602090815260408083206001600160a01b03909416835292905220805460ff191660011790555050565b600082815260336020526040902060020154610dd79061032661122f565b6104ed5760405162461bcd60e51b815260040161049e90612bd2565b6000606b60008585604051602001610e0c929190612788565b60408051601f19818403018152918152815160209283012083528282019390935290820160009081206001600160a01b0386168252909152205460ff1680610e7957506001600160a01b038216600090815260008051602061324b833981519152602052604090205460ff165b949350505050565b60676020526000908152604090208054600182015460029092015490919060ff1683565b610ecf7f2785f35fe7d8743aa971942d8474737bb31895d396eff2cc688a481e0221e191336109bc565b610eeb5760405162461bcd60e51b815260040161049e90612aa0565b60008282604051602001610f00929190612788565b604051602081830303815290604052805190602001209050606654811415610f3a5760405162461bcd60e51b815260040161049e906128fe565b60008181526067602052604090206002015460ff1615610f6c5760405162461bcd60e51b815260040161049e90612c59565b604080516060810182526000808252602080830182815260018486018181529684526067909252939091209151825591519181019190915590516002909101805460ff19169115159190911790555050565b600054610100900460ff1680610fd75750610fd7611786565b80610fe5575060005460ff16155b6110015760405162461bcd60e51b815260040161049e90612d75565b600054610100900460ff1615801561102c576000805460ff1961ff0019909116610100171660011790555b611034611797565b61103f6000336104a7565b606580546001600160a01b0319166001600160a01b03851617905560408051606081018252600080825260208083018290526001838501529251919260679261108891016127b4565b60408051808303601f19018152918152815160209283012083528282019390935290820160002083518155838201516001820155928201516002909301805460ff191693151593909317909255516110e291849101612798565b60408051601f198184030181529190528051602090910120606655622dc6c0606c558015611116576000805461ff00191690555b505050565b606c5481565b6065546001600160a01b031681565b60008383604051602001611145929190612788565b60405160208183030381529060405280519060200120905061117560008051602061320b833981519152336109bc565b6111915760405162461bcd60e51b815260040161049e906128af565b6111a3826001600160a01b0316611306565b6111bf5760405162461bcd60e51b815260040161049e90612f15565b6000818152606b602090815260408083206001600160a01b038616845290915290205460ff166112015760405162461bcd60e51b815260040161049e90612b9b565b6000908152606b602090815260408083206001600160a01b03909416835292905220805460ff191690555050565b335b90565b600082815260336020526040902061124c908261182a565b156104b15761125961122f565b6001600160a01b0316816001600160a01b0316837f2f8788117e7eff1d82e926ec794901d17c78024a50270940304540a733656f0d60405160405180910390a45050565b60008281526033602052604090206112b5908261183f565b156104b1576112c261122f565b6001600160a01b0316816001600160a01b0316837ff6391f5c32d9c69d2a47ea670b442974b53935d1edc7fd64eb21e047a839171b60405160405180910390a45050565b3b151590565b6000606060005b838110156113eb578185858381811061132857fe5b905060200281019061133a91906130e2565b611348906020810190612376565b60601b6001600160601b03191686868481811061136157fe5b905060200281019061137391906130e2565b611384906040810190602001612376565b60601b6001600160601b03191687878581811061139d57fe5b90506020028101906113af91906130e2565b6113bd90604081019061309d565b6040516020016113d1959493929190612751565b60408051601f198184030181529190529150600101611313565b5080516020909101209392505050565b60408051808201825282358152602080840135908201526065548251632aa77bd360e11b815283516000946109b5949388936080808a013594938a01359360608b0135936001600160a01b03169263554ef7a6926004808301939192829003018186803b15801561146b57600080fd5b505afa15801561147f573d6000803e3d6000fd5b505050506040513d601f19601f820116820180604052508101906114a39190612607565b611854565b60006114ba6040840160208501612376565b6001600160a01b031663884cee5a606c54868660000160208101906114df9190612376565b6114ec604089018961309d565b6040518663ffffffff1660e01b815260040161150b9493929190612813565b602060405180830381600088803b15801561152557600080fd5b5087f193505050508015611556575060408051601f3d908101601f1916820190925261155391810190612392565b60015b61160f57611562613150565b8061156d57506115af565b827f4b7d3908626050c0d998d657e4e6f31cb43ed736bf2b9a1a0192494537ca0e598260405161159d919061285a565b60405180910390a260009150506109b5565b3d8080156115d9576040519150601f19603f3d011682016040523d82523d6000602084013e6115de565b606091505b50827f4b7d3908626050c0d998d657e4e6f31cb43ed736bf2b9a1a0192494537ca0e598260405161159d919061285a565b90506109b5565b6000828201838110156109b55760405162461bcd60e51b815260040161049e906129e2565b600060608260000151836020015160001b846040015160601b6001600160601b031916856060015160601b6001600160601b0319168660800151604051602001611689959493929190612716565b60408051808303601f1901815291905280516020909101209392505050565b60006109b58383611992565b60006109b5836001600160a01b0384166119d7565b60008160000151905081604001516001600160a01b03168260200151827f803d7f3ca0e5f93fcce39fa29812ed57a95a151594966e17125220132741c6b08560600151866080015160405161171f9291906127db565b60405180910390a46117308261163b565b6000828152606860209081526040808320606a8084528285208054865291845291842094909455918490525254611768906001611616565b6000918252606a60205260409091205550565b60006108d5826119ef565b600061179130611306565b15905090565b600054610100900460ff16806117b057506117b0611786565b806117be575060005460ff16155b6117da5760405162461bcd60e51b815260040161049e90612d75565b600054610100900460ff16158015611805576000805460ff1961ff0019909116610100171660011790555b61180d6119f3565b6118156119f3565b8015611827576000805461ff00191690555b50565b60006109b5836001600160a01b038416611a74565b60006109b5836001600160a01b038416611abe565b600061185f87611b8b565b61187b5760405162461bcd60e51b815260040161049e90612b0c565b61188786868686611bc1565b61189357506000611988565b60006118a28860200151611c93565b90506118b2886000015182611cb7565b6118ce5760405162461bcd60e51b815260040161049e90612e9a565b6118d88585611cb7565b6118f45760405162461bcd60e51b815260040161049e90612b3c565b6118fc6121fd565b611904611ce7565b905061190f84611da7565b61192b5760405162461bcd60e51b815260040161049e90612e35565b6119838960000151838360000151602001518460000151600001518560200151602001518660200151600001518c8c8c60000151602001518d60000151600001518e60200151602001518f6020015160000151611dbb565b925050505b9695505050505050565b815460009082106119b55760405162461bcd60e51b815260040161049e9061286d565b8260000182815481106119c457fe5b9060005260206000200154905092915050565b60009081526001919091016020526040902054151590565b5490565b600054610100900460ff1680611a0c5750611a0c611786565b80611a1a575060005460ff16155b611a365760405162461bcd60e51b815260040161049e90612d75565b600054610100900460ff16158015611815576000805460ff1961ff0019909116610100171660011790558015611827576000805461ff001916905550565b6000611a8083836119d7565b611ab6575081546001818101845560008481526020808220909301849055845484825282860190935260409020919091556108d5565b5060006108d5565b60008181526001830160205260408120548015611b7a5783546000198083019190810190600090879083908110611af157fe5b9060005260206000200154905080876000018481548110611b0e57fe5b600091825260208083209091019290925582815260018981019092526040902090840190558654879080611b3e57fe5b600190038181906000526020600020016000905590558660010160008781526020019081526020016000206000905560019450505050506108d5565b60009150506108d5565b5092915050565b600060008051602061322b83398151915282600001511080156108d55750506020015160008051602061322b8339815191521190565b60006064841115611bd457506000610e79565b60008051602061322b83398151915280860690611bf18287611616565b81611bf857fe5b069050600060008051602061322b833981519152600360008051602061322b8339815191528460008051602061322b83398151915286870909089050611c4d60008051602061322b8339815191526002611e64565b841080611c6b57508060008051602061322b83398151915285860914155b80611c765750848214155b15611c8657600092505050610e79565b5060019695505050505050565b60006108d560008051602061322b833981519152611cb18185611e96565b90611ebe565b600060008051602061322b83398151915280600381868188890909088180611cdb57fe5b84850914949350505050565b611cef6121fd565b50604080516080810182527f1800deef121f1e76426a00665e5c4479674322d4f75edadd46debd5cd992f6ed8183019081527f198e9393920d483a7260bfb731fb5d25f1aa493335a9e71297e485b7aef312c26060830152815281518083019092527f12c85ea5db8c6deb4aab71808dcb408fe3d1e7690c43d37b4ce6cc0166fa7daa82527f090689d0585ff075ec9e99ad690c3395bc4b313370b38ef355acdadcd122975b60208381019190915281019190915290565b60006108d582600001518360200151611ef0565b600080611dc6612222565b8e8152602081018e9052604081018d9052606081018c9052608081018b905260a081018a905260c0810189905260e081018890526101008101879052610120810186905261014081018590526101608101849052611e22612241565b602081610180846008600019fa925082611e4e5760405162461bcd60e51b815260040161049e90612e07565b5115159f9e505050505050505050505050505050565b6000808211611e855760405162461bcd60e51b815260040161049e90612b64565b818381611e8e57fe5b049392505050565b600082821115611eb85760405162461bcd60e51b815260040161049e90612ad5565b50900390565b6000808211611edf5760405162461bcd60e51b815260040161049e90612c90565b818381611ee857fe5b069392505050565b6000611efc8383611f6f565b15611f09575060016108d5565b611f1161225f565b611f1a83611fa2565b9050611f2461225f565b611f52611f2f612027565b611f4c611f4588611f3f8a611fa2565b90612085565b8590612149565b90612149565b8051909150158015611f6657506020810151155b95945050505050565b8151600090158015611f8357506020830151155b8015611f90575081516001145b80156109b55750506020015115919050565b611faa61225f565b60008051602061322b8339815191526000816020850151855109905060008280611fd057fe5b8380611fd857fe5b8480611fe057fe5b876020015160018703098751088480611ff557fe5b60208801518851080990506040518060400160405280828152602001848061201957fe5b848508905295945050505050565b61202f61225f565b50604080518082019091527f2b149d40ceb8aaae81be18991be06ac3b5b4c5e559dbefa33267e6dc24a138e581527e9713b03af0fed4cd2cafadeed8fdf4a74fa084e52d1852e4a2bd0685c315d2602082015290565b61208d61225f565b60008051602061322b8339815191526120a461225f565b604051806040016040528083806120b757fe5b8651885109815260200183806120c957fe5b86602001518860200151099052905081806120e057fe5b82806120e857fe5b82602001516001850309825108835281806120ff57fe5b828061210757fe5b60208301518351088303838061211957fe5b848061212157fe5b6020880151885108858061213157fe5b60208a01518a51080908602084015250909392505050565b61215161225f565b8151835160008051602061322b833981519152911161218257808061217257fe5b83518551908303900882526121a2565b61219f81828061218e57fe5b865186519085039008830390611ebe565b82525b82602001518460200151106121d05780806121b957fe5b836020015182038560200151086020830152611b84565b6121f18182806121dc57fe5b86602001518403866020015108830390611ebe565b60208301525092915050565b604051806040016040528061221061225f565b815260200161221d61225f565b905290565b604051806101800160405280600c906020820280368337509192915050565b60405180602001604052806001906020820280368337509192915050565b604051806040016040528060008152602001600081525090565b80356108d5816131f5565b60008083601f840112612295578182fd5b50813567ffffffffffffffff8111156122ac578182fd5b6020830191508360208285010111156122c457600080fd5b9250929050565b600082601f8301126122db578081fd5b813567ffffffffffffffff8111156122f1578182fd5b612304601f8201601f19166020016130f7565b915080825283602082850101111561231b57600080fd5b8060208401602084013760009082016020015292915050565b600060408284031215612345578081fd5b61234f60406130f7565b9050815181526020820151602082015292915050565b600060a08284031215610977578081fd5b600060208284031215612387578081fd5b81356109b5816131f5565b6000602082840312156123a3578081fd5b81516109b5816131f5565b6000602082840312156123bf578081fd5b5035919050565b600080604083850312156123d8578081fd5b8235915060208301356123ea816131f5565b809150509250929050565b6000806000806060858703121561240a578182fd5b84359350602085013561241c816131f5565b9250604085013567ffffffffffffffff811115612437578283fd5b61244387828801612284565b95989497509550505050565b60008060408385031215612461578182fd5b50508035926020909101359150565b60008060408385031215612482578182fd5b823561248d816131f5565b9150602083013567ffffffffffffffff8111156124a8578182fd5b6124b4858286016122cb565b9150509250929050565b600080602083850312156124d0578182fd5b823567ffffffffffffffff8111156124e6578283fd5b6124f285828601612284565b90969095509350505050565b600080600060408486031215612512578283fd5b833567ffffffffffffffff811115612528578384fd5b61253486828701612284565b9094509250506020840135612548816131f5565b809150509250925092565b600080600080600080610100878903121561256c578384fd5b863567ffffffffffffffff80821115612583578586fd5b61258f8a838b01612284565b90985096506020890135955060408901359150808211156125ae578384fd5b818901915089601f8301126125c1578384fd5b8135818111156125cf578485fd5b8a602080830285010111156125e2578485fd5b6020830195508094505050506125fb8860608901612365565b90509295509295509295565b600060808284031215612618578081fd5b61262260406130f7565b61262c8484612334565b815261263b8460408501612334565b60208201529392505050565b600060208284031215612658578081fd5b813567ffffffffffffffff8082111561266f578283fd5b9083019060a08286031215612682578283fd5b61268c60a06130f7565b82358152602083013560208201526126a78660408501612279565b60408201526126b98660608501612279565b60608201526080830135828111156126cf578485fd5b6126db878286016122cb565b60808301525095945050505050565b6000815180845261270281602086016020860161311e565b601f01601f19169290920160200192915050565b6000868252856020830152846040830152836060830152825161274081608085016020870161311e565b919091016080019695505050505050565b60008651612763818460208b0161311e565b8201868152602081018690528385604083013790920160400191825250949350505050565b6000828483379101908152919050565b600082516127aa81846020870161311e565b9190910192915050565b6613585a5b9b995d60ca1b815260070190565b6001600160a01b0391909116815260200190565b6001600160a01b0383168152604060208201819052600090610e79908301846126ea565b901515815260200190565b90815260200190565b8481526001600160a01b03841660208201526060604082018190528101829052600082846080840137818301608090810191909152601f909201601f191601019392505050565b6000602082526109b560208301846126ea565b60208082526022908201527f456e756d657261626c655365743a20696e646578206f7574206f6620626f756e604082015261647360f01b606082015260800190565b6020808252602f908201527f4e6f7420656e6f756768207065726d697373696f6e7320746f2072656d6f766560408201526e08195e1d1c984818dbdb9d1c9858dd608a1b606082015260800190565b6020808252601c908201527f53636861696e2063616e6e6f7420636f6e6e65637420697473656c6600000000604082015260600190565b6020808252602f908201527f416363657373436f6e74726f6c3a2073656e646572206d75737420626520616e60408201526e0818591b5a5b881d1bc819dc985b9d608a1b606082015260800190565b602080825260409082018190527f4e6f7420656e6f756768207065726d697373696f6e7320746f20726567697374908201527f657220657874726120636f6e747261637420666f7220616c6c20636861696e73606082015260800190565b6020808252601b908201527f536166654d6174683a206164646974696f6e206f766572666c6f770000000000604082015260600190565b60208082526021908201527f53656e64657220636f6e7472616374206973206e6f74207265676973746572656040820152601960fa1b606082015260800190565b60208082526026908201527f4e6f7420656e6f756768207065726d697373696f6e7320746f2073657420636f6040820152651b9cdd185b9d60d21b606082015260800190565b6020808252818101527f434841494e5f434f4e4e4543544f525f524f4c45206973207265717569726564604082015260600190565b6020808252601e908201527f536166654d6174683a207375627472616374696f6e206f766572666c6f770000604082015260600190565b60208082526016908201527514da59db985d1d5c99481a5cc81b9bdd081d985b1a5960521b604082015260600190565b6020808252600e908201526d48617368206e6f7420696e20473160901b604082015260600190565b6020808252601a908201527f536166654d6174683a206469766973696f6e206279207a65726f000000000000604082015260600190565b6020808252601d908201527f457874726120636f6e747261637420646f6573206e6f74206578697374000000604082015260600190565b60208082526030908201527f416363657373436f6e74726f6c3a2073656e646572206d75737420626520616e60408201526f2061646d696e20746f207265766f6b6560801b606082015260800190565b60208082526019908201527f5369676e6174757265206973206e6f7420766572696669656400000000000000604082015260600190565b6020808252601a908201527f436861696e20697320616c726561647920636f6e6e6563746564000000000000604082015260600190565b60208082526018908201527f536166654d6174683a206d6f64756c6f206279207a65726f0000000000000000604082015260600190565b60208082526038908201527f5374617274696e6720636f756e746572206973206e6f74207175616c20746f2060408201527f696e636f6d696e67206d65737361676520636f756e7465720000000000000000606082015260800190565b60208082526031908201527f4e6f7420656e6f756768207065726d697373696f6e7320746f20726567697374604082015270195c88195e1d1c984818dbdb9d1c9858dd607a1b606082015260800190565b6020808252602e908201527f496e697469616c697a61626c653a20636f6e747261637420697320616c72656160408201526d191e481a5b9a5d1a585b1a5e995960921b606082015260800190565b60208082526024908201527f44657374696e6174696f6e20636861696e206973206e6f7420696e697469616c6040820152631a5e995960e21b606082015260800190565b60208082526014908201527314185a5c9a5b99c818da1958dac819985a5b195960621b604082015260600190565b602080825260149082015273283ab13634b19025b2bc903737ba1034b710239960611b604082015260600190565b60208082526018908201527f436861696e206973206e6f7420696e697469616c697a65640000000000000000604082015260600190565b6020808252600e908201526d5369676e206e6f7420696e20473160901b604082015260600190565b60208082526033908201527f457874726120636f6e747261637420697320616c7265616479207265676973746040820152726572656420666f7220616c6c20636861696e7360681b606082015260800190565b6020808252601f908201527f476976656e2061646472657373206973206e6f74206120636f6e747261637400604082015260600190565b6020808252603e908201527f4e6f7420656e6f756768207065726d697373696f6e7320746f2072656d6f766560408201527f20657874726120636f6e747261637420666f7220616c6c20636861696e730000606082015260800190565b60208082526024908201527f457874726120636f6e747261637420697320616c726561647920726567697374604082015263195c995960e21b606082015260800190565b60208082526029908201527f4e657720636861696e20686173682063616e6e6f7420626520657175616c20746040820152681bc813585a5b9b995d60ba1b606082015260800190565b6020808252602f908201527f416363657373436f6e74726f6c3a2063616e206f6e6c792072656e6f756e636560408201526e103937b632b9903337b91039b2b63360891b606082015260800190565b92835260208301919091521515604082015260600190565b6000808335601e198436030181126130b3578283fd5b83018035915067ffffffffffffffff8211156130cd578283fd5b6020019150368190038213156122c457600080fd5b60008235605e198336030181126127aa578182fd5b60405181810167ffffffffffffffff8111828210171561311657600080fd5b604052919050565b60005b83811015613139578181015183820152602001613121565b83811115610b095750506000910152565b60e01c90565b600060443d101561316057611231565b600481823e6308c379a0613174825161314a565b1461317e57611231565b6040513d600319016004823e80513d67ffffffffffffffff81602484011181841117156131ae5750505050611231565b828401925082519150808211156131c85750505050611231565b503d830160208284010111156131e057505050611231565b601f01601f1916810160200160405291505090565b6001600160a01b038116811461182757600080fdfe6155b5aac15ce9aa193c0527a6f43be0a36a7e2e7496c2b615c0e5f92284277330644e72e131a029b85045b68181585d97816a916871ca8d3c208c16d87cfd47c8cc8bda7ad4886bea3ebbdafa02e79d37c39bf4011696b26a31a0802fd9458ba2646970667358221220dbdf57e23b356adcd554a7fd468244a9dbc3cf0c0f73ff6603f107b4c8284f2b64736f6c634300060c0033",
  "linkReferences": {},
  "deployedLinkReferences": {}
}