{
  "_format": "hh-sol-artifact-1",
  "contractName": "TokenManagerEth",
  "sourceName": "contracts/schain/TokenManagers/TokenManagerEth.sol",
  "abi": [
    {
      "anonymous": false,
      "inputs": [
        {
          "indexed": true,
          "internalType": "bytes32",
          "name": "role",
          "type": "bytes32"
        },
        {
          "indexed": true,
          "internalType": "bytes32",
          "name": "previousAdminRole",
          "type": "bytes32"
        },
        {
          "indexed": true,
          "internalType": "bytes32",
          "name": "newAdminRole",
          "type": "bytes32"
        }
      ],
      "name": "RoleAdminChanged",
      "type": "event"
    },
    {
      "anonymous": false,
      "inputs": [
        {
          "indexed": true,
          "internalType": "bytes32",
          "name": "role",
          "type": "bytes32"
        },
        {
          "indexed": true,
          "internalType": "address",
          "name": "account",
          "type": "address"
        },
        {
          "indexed": true,
          "internalType": "address",
          "name": "sender",
          "type": "address"
        }
      ],
      "name": "RoleGranted",
      "type": "event"
    },
    {
      "anonymous": false,
      "inputs": [
        {
          "indexed": true,
          "internalType": "bytes32",
          "name": "role",
          "type": "bytes32"
        },
        {
          "indexed": true,
          "internalType": "address",
          "name": "account",
          "type": "address"
        },
        {
          "indexed": true,
          "internalType": "address",
          "name": "sender",
          "type": "address"
        }
      ],
      "name": "RoleRevoked",
      "type": "event"
    },
    {
      "inputs": [],
      "name": "AUTOMATIC_DEPLOY_ROLE",
      "outputs": [
        {
          "internalType": "bytes32",
          "name": "",
          "type": "bytes32"
        }
      ],
      "stateMutability": "view",
      "type": "function"
    },
    {
      "inputs": [],
      "name": "DEFAULT_ADMIN_ROLE",
      "outputs": [
        {
          "internalType": "bytes32",
          "name": "",
          "type": "bytes32"
        }
      ],
      "stateMutability": "view",
      "type": "function"
    },
    {
      "inputs": [],
      "name": "MAINNET_HASH",
      "outputs": [
        {
          "internalType": "bytes32",
          "name": "",
          "type": "bytes32"
        }
      ],
      "stateMutability": "view",
      "type": "function"
    },
    {
      "inputs": [],
      "name": "MAINNET_NAME",
      "outputs": [
        {
          "internalType": "string",
          "name": "",
          "type": "string"
        }
      ],
      "stateMutability": "view",
      "type": "function"
    },
    {
      "inputs": [],
      "name": "TOKEN_REGISTRAR_ROLE",
      "outputs": [
        {
          "internalType": "bytes32",
          "name": "",
          "type": "bytes32"
        }
      ],
      "stateMutability": "view",
      "type": "function"
    },
    {
      "inputs": [
        {
          "internalType": "string",
          "name": "schainName",
          "type": "string"
        },
        {
          "internalType": "address",
          "name": "newTokenManager",
          "type": "address"
        }
      ],
      "name": "addTokenManager",
      "outputs": [],
      "stateMutability": "nonpayable",
      "type": "function"
    },
    {
      "inputs": [],
      "name": "automaticDeploy",
      "outputs": [
        {
          "internalType": "bool",
          "name": "",
          "type": "bool"
        }
      ],
      "stateMutability": "view",
      "type": "function"
    },
    {
      "inputs": [
        {
          "internalType": "address",
          "name": "newDepositBox",
          "type": "address"
        }
      ],
      "name": "changeDepositBoxAddress",
      "outputs": [],
      "stateMutability": "nonpayable",
      "type": "function"
    },
    {
      "inputs": [],
      "name": "communityLocker",
      "outputs": [
        {
          "internalType": "contract CommunityLocker",
          "name": "",
          "type": "address"
        }
      ],
      "stateMutability": "view",
      "type": "function"
    },
    {
      "inputs": [],
      "name": "depositBox",
      "outputs": [
        {
          "internalType": "address",
          "name": "",
          "type": "address"
        }
      ],
      "stateMutability": "view",
      "type": "function"
    },
    {
      "inputs": [],
      "name": "disableAutomaticDeploy",
      "outputs": [],
      "stateMutability": "nonpayable",
      "type": "function"
    },
    {
      "inputs": [],
      "name": "enableAutomaticDeploy",
      "outputs": [],
      "stateMutability": "nonpayable",
      "type": "function"
    },
    {
      "inputs": [],
      "name": "ethErc20",
      "outputs": [
        {
          "internalType": "contract EthErc20",
          "name": "",
          "type": "address"
        }
      ],
      "stateMutability": "view",
      "type": "function"
    },
    {
      "inputs": [
        {
          "internalType": "address",
          "name": "to",
          "type": "address"
        },
        {
          "internalType": "uint256",
          "name": "amount",
          "type": "uint256"
        }
      ],
      "name": "exitToMain",
      "outputs": [],
      "stateMutability": "nonpayable",
      "type": "function"
    },
    {
      "inputs": [
        {
          "internalType": "bytes32",
          "name": "role",
          "type": "bytes32"
        }
      ],
      "name": "getRoleAdmin",
      "outputs": [
        {
          "internalType": "bytes32",
          "name": "",
          "type": "bytes32"
        }
      ],
      "stateMutability": "view",
      "type": "function"
    },
    {
      "inputs": [
        {
          "internalType": "bytes32",
          "name": "role",
          "type": "bytes32"
        },
        {
          "internalType": "uint256",
          "name": "index",
          "type": "uint256"
        }
      ],
      "name": "getRoleMember",
      "outputs": [
        {
          "internalType": "address",
          "name": "",
          "type": "address"
        }
      ],
      "stateMutability": "view",
      "type": "function"
    },
    {
      "inputs": [
        {
          "internalType": "bytes32",
          "name": "role",
          "type": "bytes32"
        }
      ],
      "name": "getRoleMemberCount",
      "outputs": [
        {
          "internalType": "uint256",
          "name": "",
          "type": "uint256"
        }
      ],
      "stateMutability": "view",
      "type": "function"
    },
    {
      "inputs": [
        {
          "internalType": "bytes32",
          "name": "role",
          "type": "bytes32"
        },
        {
          "internalType": "address",
          "name": "account",
          "type": "address"
        }
      ],
      "name": "grantRole",
      "outputs": [],
      "stateMutability": "nonpayable",
      "type": "function"
    },
    {
      "inputs": [
        {
          "internalType": "bytes32",
          "name": "role",
          "type": "bytes32"
        },
        {
          "internalType": "address",
          "name": "account",
          "type": "address"
        }
      ],
      "name": "hasRole",
      "outputs": [
        {
          "internalType": "bool",
          "name": "",
          "type": "bool"
        }
      ],
      "stateMutability": "view",
      "type": "function"
    },
    {
      "inputs": [
        {
          "internalType": "string",
          "name": "schainName",
          "type": "string"
        }
      ],
      "name": "hasTokenManager",
      "outputs": [
        {
          "internalType": "bool",
          "name": "",
          "type": "bool"
        }
      ],
      "stateMutability": "view",
      "type": "function"
    },
    {
      "inputs": [
        {
          "internalType": "string",
          "name": "newChainName",
          "type": "string"
        },
        {
          "internalType": "contract MessageProxyForSchain",
          "name": "newMessageProxy",
          "type": "address"
        },
        {
          "internalType": "contract TokenManagerLinker",
          "name": "newIMALinker",
          "type": "address"
        },
        {
          "internalType": "contract CommunityLocker",
          "name": "newCommunityLocker",
          "type": "address"
        },
        {
          "internalType": "address",
          "name": "newDepositBox",
          "type": "address"
        },
        {
          "internalType": "contract EthErc20",
          "name": "ethErc20Address",
          "type": "address"
        }
      ],
      "name": "initialize",
      "outputs": [],
      "stateMutability": "nonpayable",
      "type": "function"
    },
    {
      "inputs": [
        {
          "internalType": "string",
          "name": "newSchainName",
          "type": "string"
        },
        {
          "internalType": "contract MessageProxyForSchain",
          "name": "newMessageProxy",
          "type": "address"
        },
        {
          "internalType": "contract TokenManagerLinker",
          "name": "newIMALinker",
          "type": "address"
        },
        {
          "internalType": "contract CommunityLocker",
          "name": "newCommunityLocker",
          "type": "address"
        },
        {
          "internalType": "address",
          "name": "newDepositBox",
          "type": "address"
        }
      ],
      "name": "initializeTokenManager",
      "outputs": [],
      "stateMutability": "nonpayable",
      "type": "function"
    },
    {
      "inputs": [],
      "name": "messageProxy",
      "outputs": [
        {
          "internalType": "contract MessageProxyForSchain",
          "name": "",
          "type": "address"
        }
      ],
      "stateMutability": "view",
      "type": "function"
    },
    {
      "inputs": [
        {
          "internalType": "bytes32",
          "name": "fromChainHash",
          "type": "bytes32"
        },
        {
          "internalType": "address",
          "name": "sender",
          "type": "address"
        },
        {
          "internalType": "bytes",
          "name": "data",
          "type": "bytes"
        }
      ],
      "name": "postMessage",
      "outputs": [
        {
          "internalType": "address",
          "name": "",
          "type": "address"
        }
      ],
      "stateMutability": "nonpayable",
      "type": "function"
    },
    {
      "inputs": [
        {
          "internalType": "string",
          "name": "schainName",
          "type": "string"
        }
      ],
      "name": "removeTokenManager",
      "outputs": [],
      "stateMutability": "nonpayable",
      "type": "function"
    },
    {
      "inputs": [
        {
          "internalType": "bytes32",
          "name": "role",
          "type": "bytes32"
        },
        {
          "internalType": "address",
          "name": "account",
          "type": "address"
        }
      ],
      "name": "renounceRole",
      "outputs": [],
      "stateMutability": "nonpayable",
      "type": "function"
    },
    {
      "inputs": [
        {
          "internalType": "bytes32",
          "name": "role",
          "type": "bytes32"
        },
        {
          "internalType": "address",
          "name": "account",
          "type": "address"
        }
      ],
      "name": "revokeRole",
      "outputs": [],
      "stateMutability": "nonpayable",
      "type": "function"
    },
    {
      "inputs": [],
      "name": "schainHash",
      "outputs": [
        {
          "internalType": "bytes32",
          "name": "",
          "type": "bytes32"
        }
      ],
      "stateMutability": "view",
      "type": "function"
    },
    {
      "inputs": [
        {
          "internalType": "contract EthErc20",
          "name": "newEthErc20Address",
          "type": "address"
        }
      ],
      "name": "setEthErc20Address",
      "outputs": [],
      "stateMutability": "nonpayable",
      "type": "function"
    },
    {
      "inputs": [],
      "name": "tokenManagerLinker",
      "outputs": [
        {
          "internalType": "contract TokenManagerLinker",
          "name": "",
          "type": "address"
        }
      ],
      "stateMutability": "view",
      "type": "function"
    },
    {
      "inputs": [
        {
          "internalType": "bytes32",
          "name": "",
          "type": "bytes32"
        }
      ],
      "name": "tokenManagers",
      "outputs": [
        {
          "internalType": "address",
          "name": "",
          "type": "address"
        }
      ],
      "stateMutability": "view",
      "type": "function"
    },
    {
      "inputs": [
        {
          "internalType": "string",
          "name": "targetSchainName",
          "type": "string"
        },
        {
          "internalType": "address",
          "name": "to",
          "type": "address"
        },
        {
          "internalType": "uint256",
          "name": "amount",
          "type": "uint256"
        }
      ],
      "name": "transferToSchain",
      "outputs": [],
      "stateMutability": "nonpayable",
      "type": "function"
    }
  ],
  "bytecode": "0x608060405234801561001057600080fd5b50611fb4806100206000396000f3fe608060405234801561001057600080fd5b50600436106101f05760003560e01c80638182e7071161010f578063c0e312dc116100a2578063d547741f11610071578063d547741f146103b9578063dec2deb6146103cc578063e4a9eaaf146103d4578063edcc12b5146103e7576101f0565b8063c0e312dc14610378578063ca15c8731461038b578063cb703bff1461039e578063cc5b715b146103b1576101f0565b806391d14854116100de57806391d148541461034d57806392d7846a14610360578063a217fddf14610368578063b9581c5014610370576101f0565b80638182e70714610301578063884cee5a146103145780638b71b4b5146103275780639010d07c1461033a576101f0565b80633b690b6b116101875780636ce681d2116101565780636ce681d2146102cb5780636d611286146102de5780636d6c68e6146102e657806372838baa146102ee576101f0565b80633b690b6b1461029e5780633fa194ce146102a657806350f44280146102ae5780635573b8b6146102c3576101f0565b80632dc151de116101c35780632dc151de146102505780632f2ff15d1461025857806336568abe1461026b57806339927cf91461027e576101f0565b8063029996b8146101f55780630f1a8f74146101ff578063248a9ca31461022857806328c5e18214610248575b600080fd5b6101fd6103fa565b005b61021261020d36600461160d565b61044c565b60405161021f91906119be565b60405180910390f35b61023b61023636600461160d565b610467565b60405161021f91906119f6565b61023b61047c565b6102126104c5565b6101fd610266366004611625565b6104d4565b6101fd610279366004611625565b61051c565b61029161028c3660046116ea565b61055e565b60405161021f91906119eb565b61023b6105bb565b61023b6105c1565b6102b66105d3565b60405161021f9190611a32565b6102126105f6565b6101fd6102d93660046117d7565b610605565b610212610758565b610212610767565b6101fd6102fc36600461177f565b610776565b6101fd61030f36600461185f565b6108b4565b610212610322366004611654565b610964565b6101fd6103353660046115c6565b610af1565b6102126103483660046116ae565b610b68565b61029161035b366004611625565b610b87565b610212610b9f565b61023b610bae565b6101fd610bb3565b6101fd6103863660046116ea565b610bf6565b61023b61039936600461160d565b610cb3565b6101fd6103ac36600461172a565b610cca565b61023b610dbe565b6101fd6103c7366004611625565b610de2565b610291610e1c565b6101fd6103e23660046115e2565b610e2c565b6101fd6103f53660046115c6565b610eec565b610412600080516020611f5f83398151915233610b87565b6104375760405162461bcd60e51b815260040161042e90611c02565b60405180910390fd5b6069805460ff60a01b1916600160a01b179055565b606a602052600090815260409020546001600160a01b031681565b60009081526033602052604090206002015490565b6040518060400160405280600781526020016613585a5b9b995d60ca1b8152506040516020016104ac91906119a2565b6040516020818303038152906040528051906020012081565b6066546001600160a01b031681565b6000828152603360205260409020600201546104f29061035b610f35565b61050e5760405162461bcd60e51b815260040161042e90611abe565b6105188282610f39565b5050565b610524610f35565b6001600160a01b0316816001600160a01b0316146105545760405162461bcd60e51b815260040161042e90611e43565b6105188282610fa2565b6000806001600160a01b0316606a60008585604051602001610581929190611992565b60408051601f19818403018152918152815160209283012083529082019290925201600020546001600160a01b0316141590505b92915050565b60685481565b600080516020611f5f83398151915281565b6040518060400160405280600781526020016613585a5b9b995d60ca1b81525081565b6065546001600160a01b031681565b600054610100900460ff168061061e575061061e61100b565b8061062c575060005460ff16155b6106485760405162461bcd60e51b815260040161042e90611cf5565b600054610100900460ff16158015610673576000805460ff1961ff0019909116610100171660011790555b61067b61101c565b61068660003361050e565b61069e600080516020611f5f8339815191523361050e565b6106c87ffda70c2cc66a36c14884ee85424961f51b1d92b4494751699b6d105b3bcbcba83361050e565b856040516020016106d991906119a2565b60408051601f198184030181529190528051602090910120606855606580546001600160a01b038088166001600160a01b031992831617909255606680548784169083161790556067805486841690831617905560698054928516929091169190911790558015610750576000805461ff00191690555b505050505050565b6069546001600160a01b031681565b6067546001600160a01b031681565b828260008260405160200161078b91906119a2565b60408051601f1981840301815282825280516020918201208383018352600784526613585a5b9b995d60ca1b8483015291519193506107cb9291016119a2565b604051602081830303815290604052805190602001208114156108005760405162461bcd60e51b815260040161042e90611b7b565b6001600160a01b0382166108265760405162461bcd60e51b815260040161042e90611d43565b6000818152606a60205260409020546001600160a01b031661085a5760405162461bcd60e51b815260040161042e90611a45565b60008660405160200161086d91906119a2565b60408051601f1981840301815291815281516020928301206000818152606a9093529120549091506108ab9082906001600160a01b031688886110af565b50505050505050565b600054610100900460ff16806108cd57506108cd61100b565b806108db575060005460ff16155b6108f75760405162461bcd60e51b815260040161042e90611cf5565b600054610100900460ff16158015610922576000805460ff1961ff0019909116610100171660011790555b61092f8787878787610605565b606b80546001600160a01b0319166001600160a01b03841617905580156108ab576000805461ff001916905550505050505050565b6065546000906001600160a01b031633146109915760405162461bcd60e51b815260040161042e90611b0d565b84846068548214158015610a2057506040518060400160405280600781526020016613585a5b9b995d60ca1b8152506040516020016109d091906119a2565b604051602081830303815290604052805190602001208214610a0e576000828152606a60205260409020546001600160a01b03828116911614610a20565b6069546001600160a01b038281169116145b610a3c5760405162461bcd60e51b815260040161042e90611d7a565b610a446114ce565b610a4e8686611194565b60208101519091506001600160a01b038116610a7c5760405162461bcd60e51b815260040161042e90611de8565b606b5460408084015190516340c10f1960e01b81526001600160a01b03909216916340c10f1991610ab2918591906004016119d2565b600060405180830381600087803b158015610acc57600080fd5b505af1158015610ae0573d6000803e3d6000fd5b50929b9a5050505050505050505050565b610afc600033610b87565b610b185760405162461bcd60e51b815260040161042e90611e14565b606b546001600160a01b0382811691161415610b465760405162461bcd60e51b815260040161042e90611cc8565b606b80546001600160a01b0319166001600160a01b0392909216919091179055565b6000828152603360205260408120610b8090836111dc565b9392505050565b6000828152603360205260408120610b8090836111e8565b606b546001600160a01b031681565b600081565b610bcb600080516020611f5f83398151915233610b87565b610be75760405162461bcd60e51b815260040161042e90611c02565b6069805460ff60a01b19169055565b6066546001600160a01b0316331480610c155750610c15600033610b87565b610c315760405162461bcd60e51b815260040161042e90611e14565b60008282604051602001610c46929190611992565b60408051601f1981840301815291815281516020928301206000818152606a9093529120549091506001600160a01b0316610c935760405162461bcd60e51b815260040161042e90611bcb565b6000908152606a6020526040902080546001600160a01b03191690555050565b60008181526033602052604081206105b5906111fd565b6066546001600160a01b0316331480610ce95750610ce9600033610b87565b610d055760405162461bcd60e51b815260040161042e90611e14565b60008383604051602001610d1a929190611992565b60408051601f1981840301815291815281516020928301206000818152606a9093529120549091506001600160a01b031615610d685760405162461bcd60e51b815260040161042e90611db1565b6001600160a01b038216610d8e5760405162461bcd60e51b815260040161042e90611a45565b6000908152606a6020526040902080546001600160a01b0319166001600160a01b03929092169190911790555050565b7ffda70c2cc66a36c14884ee85424961f51b1d92b4494751699b6d105b3bcbcba881565b600082815260336020526040902060020154610e009061035b610f35565b6105545760405162461bcd60e51b815260040161042e90611c43565b606954600160a01b900460ff1681565b6067546040516311be333d60e11b81526001600160a01b039091169063237c667a90610e5c9085906004016119be565b600060405180830381600087803b158015610e7657600080fd5b505af1158015610e8a573d6000803e3d6000fd5b505050506105186040518060400160405280600781526020016613585a5b9b995d60ca1b815250604051602001610ec191906119a2565b60408051601f1981840301815291905280516020909101206069546001600160a01b031684846110af565b610ef7600033610b87565b610f135760405162461bcd60e51b815260040161042e90611b44565b606980546001600160a01b0319166001600160a01b0392909216919091179055565b3390565b6000828152603360205260409020610f519082611208565b1561051857610f5e610f35565b6001600160a01b0316816001600160a01b0316837f2f8788117e7eff1d82e926ec794901d17c78024a50270940304540a733656f0d60405160405180910390a45050565b6000828152603360205260409020610fba908261121d565b1561051857610fc7610f35565b6001600160a01b0316816001600160a01b0316837ff6391f5c32d9c69d2a47ea670b442974b53935d1edc7fd64eb21e047a839171b60405160405180910390a45050565b600061101630611232565b15905090565b600054610100900460ff1680611035575061103561100b565b80611043575060005460ff16155b61105f5760405162461bcd60e51b815260040161042e90611cf5565b600054610100900460ff1615801561108a576000805460ff1961ff0019909116610100171660011790555b611092611238565b61109a611238565b80156110ac576000805461ff00191690555b50565b801561111a57606b546040516338b5bd8d60e21b81526001600160a01b039091169063e2d6f634906110e790339085906004016119d2565b600060405180830381600087803b15801561110157600080fd5b505af1158015611115573d6000803e3d6000fd5b505050505b606061112683836112b9565b606554604051634a24490160e11b81529192506001600160a01b03169063944892029061115b908890889086906004016119ff565b600060405180830381600087803b15801561117557600080fd5b505af1158015611189573d6000803e3d6000fd5b505050505050505050565b61119c6114ce565b60016111a8848461131c565b600c8111156111b357fe5b146111d05760405162461bcd60e51b815260040161042e90611c93565b610b80828401846118f8565b6000610b80838361135d565b6000610b80836001600160a01b0384166113a2565b60006105b5826113ba565b6000610b80836001600160a01b0384166113be565b6000610b80836001600160a01b038416611408565b3b151590565b600054610100900460ff1680611251575061125161100b565b8061125f575060005460ff16155b61127b5760405162461bcd60e51b815260040161042e90611cf5565b600054610100900460ff1615801561109a576000805460ff1961ff00199091166101001716600117905580156110ac576000805461ff001916905550565b60606112c36114ce565b604080516080810190915280606081018060018152508152602001856001600160a01b03168152602001848152509050806040516020016113049190611e92565b60405160208183030381529060405291505092915050565b60008061132b8385018561160d565b9050602081066113515761134961134484838188611ef1565b61131c565b9150506105b5565b611349838501856116cf565b815460009082106113805760405162461bcd60e51b815260040161042e90611a7c565b82600001828154811061138f57fe5b9060005260206000200154905092915050565b60009081526001919091016020526040902054151590565b5490565b60006113ca83836113a2565b611400575081546001818101845560008481526020808220909301849055845484825282860190935260409020919091556105b5565b5060006105b5565b600081815260018301602052604081205480156114c4578354600019808301919081019060009087908390811061143b57fe5b906000526020600020015490508087600001848154811061145857fe5b60009182526020808320909101929092558281526001898101909252604090209084019055865487908061148857fe5b600190038181906000526020600020016000905590558660010160008781526020019081526020016000206000905560019450505050506105b5565b60009150506105b5565b60405180606001604052806114e16114f5565b815260006020820181905260409091015290565b60408051602081019091526000815290565b60008083601f840112611518578182fd5b50813567ffffffffffffffff81111561152f578182fd5b60208301915083602082850101111561154757600080fd5b9250929050565b8035600d81106105b557600080fd5b600082601f83011261156d578081fd5b813567ffffffffffffffff811115611583578182fd5b611596601f8201601f1916602001611eca565b91508082528360208285010111156115ad57600080fd5b8060208401602084013760009082016020015292915050565b6000602082840312156115d7578081fd5b8135610b8081611f49565b600080604083850312156115f4578081fd5b82356115ff81611f49565b946020939093013593505050565b60006020828403121561161e578081fd5b5035919050565b60008060408385031215611637578182fd5b82359150602083013561164981611f49565b809150509250929050565b60008060008060608587031215611669578182fd5b84359350602085013561167b81611f49565b9250604085013567ffffffffffffffff811115611696578283fd5b6116a287828801611507565b95989497509550505050565b600080604083850312156116c0578182fd5b50508035926020909101359150565b6000602082840312156116e0578081fd5b610b80838361154e565b600080602083850312156116fc578182fd5b823567ffffffffffffffff811115611712578283fd5b61171e85828601611507565b90969095509350505050565b60008060006040848603121561173e578283fd5b833567ffffffffffffffff811115611754578384fd5b61176086828701611507565b909450925050602084013561177481611f49565b809150509250925092565b600080600060608486031215611793578283fd5b833567ffffffffffffffff8111156117a9578384fd5b6117b58682870161155d565b93505060208401356117c681611f49565b929592945050506040919091013590565b600080600080600060a086880312156117ee578283fd5b853567ffffffffffffffff811115611804578384fd5b6118108882890161155d565b955050602086013561182181611f49565b9350604086013561183181611f49565b9250606086013561184181611f49565b9150608086013561185181611f49565b809150509295509295909350565b60008060008060008060c08789031215611877578384fd5b863567ffffffffffffffff81111561188d578485fd5b61189989828a0161155d565b96505060208701356118aa81611f49565b945060408701356118ba81611f49565b935060608701356118ca81611f49565b925060808701356118da81611f49565b915060a08701356118ea81611f49565b809150509295509295509295565b6000818303606081121561190a578182fd5b6119146060611eca565b6020821215611921578283fd5b61192b6020611eca565b9150611937858561154e565b825290815260208301359061194b82611f49565b81602082015260408401356040820152809250505092915050565b6000815180845261197e816020860160208601611f19565b601f01601f19169290920160200192915050565b6000828483379101908152919050565b600082516119b4818460208701611f19565b9190910192915050565b6001600160a01b0391909116815260200190565b6001600160a01b03929092168252602082015260400190565b901515815260200190565b90815260200190565b8381526001600160a01b0383166020820152606060408201819052600090611a2990830184611966565b95945050505050565b600060208252610b806020830184611966565b6020808252601f908201527f496e636f727265637420546f6b656e204d616e61676572206164647265737300604082015260600190565b60208082526022908201527f456e756d657261626c655365743a20696e646578206f7574206f6620626f756e604082015261647360f01b606082015260800190565b6020808252602f908201527f416363657373436f6e74726f6c3a2073656e646572206d75737420626520616e60408201526e0818591b5a5b881d1bc819dc985b9d608a1b606082015260800190565b6020808252601c908201527f53656e646572206973206e6f742061204d65737361676550726f787900000000604082015260600190565b6020808252601e908201527f44454641554c545f41444d494e5f524f4c452069732072657175697265640000604082015260600190565b60208082526030908201527f546869732066756e6374696f6e206973206e6f7420666f72207472616e73666560408201526f1c9c9a5b99c81d1bc813585a5b9b995d60821b606082015260800190565b60208082526018908201527f546f6b656e204d616e61676572206973206e6f74207365740000000000000000604082015260600190565b60208082526021908201527f4155544f4d415449435f4445504c4f595f524f4c4520697320726571756972656040820152601960fa1b606082015260800190565b60208082526030908201527f416363657373436f6e74726f6c3a2073656e646572206d75737420626520616e60408201526f2061646d696e20746f207265766f6b6560801b606082015260800190565b6020808252818101527f4d6573736167652074797065206973206e6f7420455448207472616e73666572604082015260600190565b6020808252601390820152724d757374206265206e6577206164647265737360681b604082015260600190565b6020808252602e908201527f496e697469616c697a61626c653a20636f6e747261637420697320616c72656160408201526d191e481a5b9a5d1a585b1a5e995960921b606082015260800190565b6020808252601a908201527f496e636f72726563742072656365697665722061646472657373000000000000604082015260600190565b6020808252601b908201527f526563656976657220636861696e20697320696e636f72726563740000000000604082015260600190565b6020808252601c908201527f546f6b656e204d616e6167657220697320616c72656164792073657400000000604082015260600190565b60208082526012908201527124b731b7b93932b1ba103932b1b2b4bb32b960711b604082015260600190565b6020808252601590820152742737ba1030baba3437b934bd32b21031b0b63632b960591b604082015260600190565b6020808252602f908201527f416363657373436f6e74726f6c3a2063616e206f6e6c792072656e6f756e636560408201526e103937b632b9903337b91039b2b63360891b606082015260800190565b8151516060820190600d8110611ea457fe5b82526020838101516001600160a01b031690830152604092830151929091019190915290565b60405181810167ffffffffffffffff81118282101715611ee957600080fd5b604052919050565b60008085851115611f00578182fd5b83861115611f0c578182fd5b5050820193919092039150565b60005b83811015611f34578181015183820152602001611f1c565b83811115611f43576000848401525b50505050565b6001600160a01b03811681146110ac57600080fdfe7164765a3c8bd2513bdfa0c90f1bee9606e920fbf2c9071f310263fbd818684ba264697066735822122087fbbfefcd8dfd9c8a6e1d933064c6a23c25e598d6713c382fe9117c39124ed564736f6c634300060c0033",
  "linkReferences": {},
  "deployedLinkReferences": {}
}